{
  "contractName": "Owned",
  "abi": [
    {
      "inputs": [],
      "stateMutability": "nonpayable",
      "type": "constructor"
    },
    {
      "anonymous": false,
      "inputs": [
        {
          "indexed": true,
          "internalType": "address",
          "name": "_from",
          "type": "address"
        },
        {
          "indexed": true,
          "internalType": "address",
          "name": "_to",
          "type": "address"
        }
      ],
      "name": "OwnershipTransferred",
      "type": "event"
    },
    {
      "inputs": [],
      "name": "newOwner",
      "outputs": [
        {
          "internalType": "address",
          "name": "",
          "type": "address"
        }
      ],
      "stateMutability": "view",
      "type": "function"
    },
    {
      "inputs": [],
      "name": "owner",
      "outputs": [
        {
          "internalType": "address",
          "name": "",
          "type": "address"
        }
      ],
      "stateMutability": "view",
      "type": "function"
    },
    {
      "inputs": [
        {
          "internalType": "address",
          "name": "_to",
          "type": "address"
        }
      ],
      "name": "transferOwnership",
      "outputs": [],
      "stateMutability": "nonpayable",
      "type": "function"
    },
    {
      "inputs": [],
      "name": "acceptOwnership",
      "outputs": [],
      "stateMutability": "nonpayable",
      "type": "function"
    }
  ],
  "bytecode": "0x608060405234801561001057600080fd5b50336000806101000a81548173ffffffffffffffffffffffffffffffffffffffff021916908373ffffffffffffffffffffffffffffffffffffffff16021790555061057a806100606000396000f3fe608060405234801561001057600080fd5b506004361061004c5760003560e01c806379ba5097146100515780638da5cb5b1461005b578063d4ee1d9014610079578063f2fde38b14610097575b600080fd5b6100596100b3565b005b610063610285565b60405161007091906103e2565b60405180910390f35b6100816102a9565b60405161008e91906103e2565b60405180910390f35b6100b160048036038101906100ac919061042e565b6102cf565b005b600160009054906101000a900473ffffffffffffffffffffffffffffffffffffffff1673ffffffffffffffffffffffffffffffffffffffff163373ffffffffffffffffffffffffffffffffffffffff1614610143576040517f08c379a000000000000000000000000000000000000000000000000000000000815260040161013a906104b8565b60405180910390fd5b600160009054906101000a900473ffffffffffffffffffffffffffffffffffffffff1673ffffffffffffffffffffffffffffffffffffffff1660008054906101000a900473ffffffffffffffffffffffffffffffffffffffff1673ffffffffffffffffffffffffffffffffffffffff167f8be0079c531659141344cd1fd0a4f28419497f9722a3daafe3b4186f6b6457e060405160405180910390a3600160009054906101000a900473ffffffffffffffffffffffffffffffffffffffff166000806101000a81548173ffffffffffffffffffffffffffffffffffffffff021916908373ffffffffffffffffffffffffffffffffffffffff1602179055506000600160006101000a81548173ffffffffffffffffffffffffffffffffffffffff021916908373ffffffffffffffffffffffffffffffffffffffff160217905550565b60008054906101000a900473ffffffffffffffffffffffffffffffffffffffff1681565b600160009054906101000a900473ffffffffffffffffffffffffffffffffffffffff1681565b60008054906101000a900473ffffffffffffffffffffffffffffffffffffffff1673ffffffffffffffffffffffffffffffffffffffff163373ffffffffffffffffffffffffffffffffffffffff161461035d576040517f08c379a000000000000000000000000000000000000000000000000000000000815260040161035490610524565b60405180910390fd5b80600160006101000a81548173ffffffffffffffffffffffffffffffffffffffff021916908373ffffffffffffffffffffffffffffffffffffffff16021790555050565b600073ffffffffffffffffffffffffffffffffffffffff82169050919050565b60006103cc826103a1565b9050919050565b6103dc816103c1565b82525050565b60006020820190506103f760008301846103d3565b92915050565b600080fd5b61040b816103c1565b811461041657600080fd5b50565b60008135905061042881610402565b92915050565b600060208284031215610444576104436103fd565b5b600061045284828501610419565b91505092915050565b600082825260208201905092915050565b7f4f6e6c79206e6577206f776e65722063616e2061636365707400000000000000600082015250565b60006104a260198361045b565b91506104ad8261046c565b602082019050919050565b600060208201905081810360008301526104d181610495565b9050919050565b7f4f6e6c792063757272656e74206f776e65722063616e207472616e7366657200600082015250565b600061050e601f8361045b565b9150610519826104d8565b602082019050919050565b6000602082019050818103600083015261053d81610501565b905091905056fea2646970667358221220f5c16d692435188c9d8483fc64e37851b8fd9e23a028ac61b224b0b227ddd6c564736f6c63430008090033",
  "immutableReferences": {},
  "source": "// SPDX-License-Identifier: MIT\r\n\r\npragma solidity ^0.8.9;\r\n\r\nabstract contract ERC20Token {\r\n    function name() public virtual view returns (string memory);\r\n    function symbol() public virtual view returns (string memory);\r\n    function decimals() public virtual view returns (uint8);\r\n    function totalSupply() public virtual view returns (uint256);\r\n    function balanceOf(address _owner) public virtual view returns (uint256 balance);\r\n    function transfer(address _to, uint256 _value) public virtual returns (bool success);\r\n    function transferFrom(address _from, address _to, uint256 _value) public virtual returns (bool success);\r\n    // function approve(address _spender, uint256 _value) public virtual returns (bool success);\r\n    // function allowance(address _owner, address _spender) public virtual view returns (uint256 remaining);\r\n\r\n    event Transfer(address indexed _from, address indexed _to, uint256 _value);\r\n    event Approval(address indexed _owner, address indexed _spender, uint256 _value);\r\n}\r\n\r\ncontract Owned {\r\n    address public owner;\r\n    address public newOwner;\r\n\r\n    event OwnershipTransferred(address indexed _from, address indexed _to);\r\n\r\n    constructor() {\r\n        owner = msg.sender;\r\n    }\r\n\r\n    function transferOwnership(address _to) public {\r\n        require(msg.sender == owner, \"Only current owner can transfer\");\r\n        newOwner = _to;\r\n    }\r\n\r\n    function acceptOwnership() public {\r\n        require(msg.sender == newOwner, \"Only new owner can accept\");\r\n        emit OwnershipTransferred(owner, newOwner);\r\n        owner = newOwner;\r\n        newOwner = address(0);\r\n    }\r\n}\r\n\r\n// Our own custom ERC20 token (AWT)\r\n\r\ncontract Token is ERC20Token, Owned {\r\n\r\n    string private _name;\r\n    string private _symbol;\r\n    uint8 private _decimal;\r\n    uint256 private _totalSupply;\r\n    address public minter;\r\n\r\n    mapping(address => uint256) private balances;\r\n\r\n    constructor() {\r\n        _name = \"Awesome Token\";\r\n        _symbol = \"AWT\";\r\n        _decimal = 0;\r\n        _totalSupply = 1000;\r\n        minter = msg.sender;\r\n        balances[minter] = _totalSupply;\r\n        emit Transfer(address(0), minter, _totalSupply);\r\n    }\r\n\r\n    function name() public override view returns (string memory) {\r\n        return _name;\r\n    }\r\n\r\n    function symbol() public override view returns (string memory) {\r\n        return _symbol;\r\n    }\r\n\r\n    function decimals() public override view returns (uint8) {\r\n        return _decimal;\r\n    }\r\n\r\n    function totalSupply() public override view returns (uint256) {\r\n        return _totalSupply;\r\n    }\r\n\r\n    function balanceOf(address _owner) public override view returns (uint256 balance) {\r\n        return balances[_owner];\r\n    }\r\n\r\n    function transferFrom(address _from, address _to, uint256 _value) public override returns (bool success) {\r\n        require(balances[_from] >= _value, \"Not enough fund\");\r\n        balances[_from] -= _value;\r\n        balances[_to] += _value;\r\n        emit Transfer(_from, _to, _value);\r\n        return true;\r\n    }\r\n\r\n    function transfer(address _to, uint256 _value) public override returns (bool success) {\r\n        return transferFrom(msg.sender, _to, _value);\r\n    }\r\n\r\n    // function approve(address _spender, uint256 _value) public override pure returns (bool success) {\r\n    //     return true;\r\n    // }\r\n\r\n    // function allowance(address _owner, address _spender) public override pure returns (uint256 remaining) {\r\n    //     return 0;\r\n    // }\r\n\r\n    function mint(uint256 _amount) public returns(bool) {\r\n        require(msg.sender == minter, \"Only minter can mint.\");\r\n        balances[minter] += _amount;\r\n        _totalSupply += _amount;\r\n        return true;\r\n    }\r\n\r\n    function confiscate(address _target, uint256 _amount) public returns(bool) {\r\n        require(msg.sender == minter, \"Only minter can confiscate.\");\r\n        if (balances[_target] >= _amount) {\r\n            balances[_target] -= _amount;\r\n            _totalSupply -= _amount;\r\n        } else {\r\n            _totalSupply -= balances[_target];\r\n            balances[_target] = 0;\r\n        }\r\n        return true;\r\n    }\r\n}\r\n",
  "sourcePath": "G:\\blockchain\\projects\\property_dapp\\property-dapp\\ethereum\\contracts\\Token.sol",
  "compiler": {
    "name": "solc",
    "version": "0.8.9+commit.e5eed63a.Emscripten.clang"
  },
  "schemaVersion": "3.4.10",
  "updatedAt": "2022-10-17T17:40:23.987Z",
  "devdoc": {
    "kind": "dev",
    "methods": {},
    "version": 1
  },
  "userdoc": {
    "kind": "user",
    "methods": {},
    "version": 1
  }
}