{
  "contractName": "Token",
  "abi": [
    {
      "inputs": [],
      "stateMutability": "nonpayable",
      "type": "constructor"
    },
    {
      "anonymous": false,
      "inputs": [
        {
          "indexed": true,
          "internalType": "address",
          "name": "_owner",
          "type": "address"
        },
        {
          "indexed": true,
          "internalType": "address",
          "name": "_spender",
          "type": "address"
        },
        {
          "indexed": false,
          "internalType": "uint256",
          "name": "_value",
          "type": "uint256"
        }
      ],
      "name": "Approval",
      "type": "event"
    },
    {
      "anonymous": false,
      "inputs": [
        {
          "indexed": true,
          "internalType": "address",
          "name": "_from",
          "type": "address"
        },
        {
          "indexed": true,
          "internalType": "address",
          "name": "_to",
          "type": "address"
        }
      ],
      "name": "OwnershipTransferred",
      "type": "event"
    },
    {
      "anonymous": false,
      "inputs": [
        {
          "indexed": true,
          "internalType": "address",
          "name": "_from",
          "type": "address"
        },
        {
          "indexed": true,
          "internalType": "address",
          "name": "_to",
          "type": "address"
        },
        {
          "indexed": false,
          "internalType": "uint256",
          "name": "_value",
          "type": "uint256"
        }
      ],
      "name": "Transfer",
      "type": "event"
    },
    {
      "inputs": [],
      "name": "acceptOwnership",
      "outputs": [],
      "stateMutability": "nonpayable",
      "type": "function"
    },
    {
      "inputs": [],
      "name": "minter",
      "outputs": [
        {
          "internalType": "address",
          "name": "",
          "type": "address"
        }
      ],
      "stateMutability": "view",
      "type": "function"
    },
    {
      "inputs": [],
      "name": "newOwner",
      "outputs": [
        {
          "internalType": "address",
          "name": "",
          "type": "address"
        }
      ],
      "stateMutability": "view",
      "type": "function"
    },
    {
      "inputs": [],
      "name": "owner",
      "outputs": [
        {
          "internalType": "address",
          "name": "",
          "type": "address"
        }
      ],
      "stateMutability": "view",
      "type": "function"
    },
    {
      "inputs": [
        {
          "internalType": "address",
          "name": "_to",
          "type": "address"
        }
      ],
      "name": "transferOwnership",
      "outputs": [],
      "stateMutability": "nonpayable",
      "type": "function"
    },
    {
      "inputs": [],
      "name": "name",
      "outputs": [
        {
          "internalType": "string",
          "name": "",
          "type": "string"
        }
      ],
      "stateMutability": "view",
      "type": "function"
    },
    {
      "inputs": [],
      "name": "symbol",
      "outputs": [
        {
          "internalType": "string",
          "name": "",
          "type": "string"
        }
      ],
      "stateMutability": "view",
      "type": "function"
    },
    {
      "inputs": [],
      "name": "decimals",
      "outputs": [
        {
          "internalType": "uint8",
          "name": "",
          "type": "uint8"
        }
      ],
      "stateMutability": "view",
      "type": "function"
    },
    {
      "inputs": [],
      "name": "totalSupply",
      "outputs": [
        {
          "internalType": "uint256",
          "name": "",
          "type": "uint256"
        }
      ],
      "stateMutability": "view",
      "type": "function"
    },
    {
      "inputs": [
        {
          "internalType": "address",
          "name": "_owner",
          "type": "address"
        }
      ],
      "name": "balanceOf",
      "outputs": [
        {
          "internalType": "uint256",
          "name": "balance",
          "type": "uint256"
        }
      ],
      "stateMutability": "view",
      "type": "function"
    },
    {
      "inputs": [
        {
          "internalType": "address",
          "name": "_from",
          "type": "address"
        },
        {
          "internalType": "address",
          "name": "_to",
          "type": "address"
        },
        {
          "internalType": "uint256",
          "name": "_value",
          "type": "uint256"
        }
      ],
      "name": "transferFrom",
      "outputs": [
        {
          "internalType": "bool",
          "name": "success",
          "type": "bool"
        }
      ],
      "stateMutability": "nonpayable",
      "type": "function"
    },
    {
      "inputs": [
        {
          "internalType": "address",
          "name": "_to",
          "type": "address"
        },
        {
          "internalType": "uint256",
          "name": "_value",
          "type": "uint256"
        }
      ],
      "name": "transfer",
      "outputs": [
        {
          "internalType": "bool",
          "name": "success",
          "type": "bool"
        }
      ],
      "stateMutability": "nonpayable",
      "type": "function"
    },
    {
      "inputs": [
        {
          "internalType": "uint256",
          "name": "_amount",
          "type": "uint256"
        }
      ],
      "name": "mint",
      "outputs": [
        {
          "internalType": "bool",
          "name": "",
          "type": "bool"
        }
      ],
      "stateMutability": "nonpayable",
      "type": "function"
    },
    {
      "inputs": [
        {
          "internalType": "address",
          "name": "_target",
          "type": "address"
        },
        {
          "internalType": "uint256",
          "name": "_amount",
          "type": "uint256"
        }
      ],
      "name": "confiscate",
      "outputs": [
        {
          "internalType": "bool",
          "name": "",
          "type": "bool"
        }
      ],
      "stateMutability": "nonpayable",
      "type": "function"
    }
  ],
  "bytecode": "0x60806040523480156200001157600080fd5b50336000806101000a81548173ffffffffffffffffffffffffffffffffffffffff021916908373ffffffffffffffffffffffffffffffffffffffff1602179055506040518060400160405280600d81526020017f417765736f6d6520546f6b656e00000000000000000000000000000000000000815250600290805190602001906200009f9291906200024e565b506040518060400160405280600381526020017f415754000000000000000000000000000000000000000000000000000000000081525060039080519060200190620000ed9291906200024e565b506000600460006101000a81548160ff021916908360ff1602179055506103e860058190555033600660006101000a81548173ffffffffffffffffffffffffffffffffffffffff021916908373ffffffffffffffffffffffffffffffffffffffff16021790555060055460076000600660009054906101000a900473ffffffffffffffffffffffffffffffffffffffff1673ffffffffffffffffffffffffffffffffffffffff1673ffffffffffffffffffffffffffffffffffffffff16815260200190815260200160002081905550600660009054906101000a900473ffffffffffffffffffffffffffffffffffffffff1673ffffffffffffffffffffffffffffffffffffffff16600073ffffffffffffffffffffffffffffffffffffffff167fddf252ad1be2c89b69c2b068fc378daa952ba7f163c4a11628f55a4df523b3ef60055460405162000240919062000319565b60405180910390a36200039b565b8280546200025c9062000365565b90600052602060002090601f016020900481019282620002805760008555620002cc565b82601f106200029b57805160ff1916838001178555620002cc565b82800160010185558215620002cc579182015b82811115620002cb578251825591602001919060010190620002ae565b5b509050620002db9190620002df565b5090565b5b80821115620002fa576000816000905550600101620002e0565b5090565b6000819050919050565b6200031381620002fe565b82525050565b600060208201905062000330600083018462000308565b92915050565b7f4e487b7100000000000000000000000000000000000000000000000000000000600052602260045260246000fd5b600060028204905060018216806200037e57607f821691505b6020821081141562000395576200039462000336565b5b50919050565b6112bc80620003ab6000396000f3fe608060405234801561001057600080fd5b50600436106100ea5760003560e01c806379ba50971161008c578063a0712d6811610066578063a0712d681461023d578063a9059cbb1461026d578063d4ee1d901461029d578063f2fde38b146102bb576100ea565b806379ba5097146101f75780638da5cb5b1461020157806395d89b411461021f576100ea565b806323b872dd116100c857806323b872dd14610149578063313ce5671461017957806347298f821461019757806370a08231146101c7576100ea565b806306fdde03146100ef578063075461721461010d57806318160ddd1461012b575b600080fd5b6100f76102d7565b6040516101049190610ce7565b60405180910390f35b610115610369565b6040516101229190610d4a565b60405180910390f35b61013361038f565b6040516101409190610d7e565b60405180910390f35b610163600480360381019061015e9190610df6565b610399565b6040516101709190610e64565b60405180910390f35b610181610539565b60405161018e9190610e9b565b60405180910390f35b6101b160048036038101906101ac9190610eb6565b610550565b6040516101be9190610e64565b60405180910390f35b6101e160048036038101906101dc9190610ef6565b610744565b6040516101ee9190610d7e565b60405180910390f35b6101ff61078d565b005b61020961095f565b6040516102169190610d4a565b60405180910390f35b610227610983565b6040516102349190610ce7565b60405180910390f35b61025760048036038101906102529190610f23565b610a15565b6040516102649190610e64565b60405180910390f35b61028760048036038101906102829190610eb6565b610b41565b6040516102949190610e64565b60405180910390f35b6102a5610b56565b6040516102b29190610d4a565b60405180910390f35b6102d560048036038101906102d09190610ef6565b610b7c565b005b6060600280546102e690610f7f565b80601f016020809104026020016040519081016040528092919081815260200182805461031290610f7f565b801561035f5780601f106103345761010080835404028352916020019161035f565b820191906000526020600020905b81548152906001019060200180831161034257829003601f168201915b5050505050905090565b600660009054906101000a900473ffffffffffffffffffffffffffffffffffffffff1681565b6000600554905090565b600081600760008673ffffffffffffffffffffffffffffffffffffffff1673ffffffffffffffffffffffffffffffffffffffff16815260200190815260200160002054101561041d576040517f08c379a000000000000000000000000000000000000000000000000000000000815260040161041490610ffd565b60405180910390fd5b81600760008673ffffffffffffffffffffffffffffffffffffffff1673ffffffffffffffffffffffffffffffffffffffff168152602001908152602001600020600082825461046c919061104c565b9250508190555081600760008573ffffffffffffffffffffffffffffffffffffffff1673ffffffffffffffffffffffffffffffffffffffff16815260200190815260200160002060008282546104c29190611080565b925050819055508273ffffffffffffffffffffffffffffffffffffffff168473ffffffffffffffffffffffffffffffffffffffff167fddf252ad1be2c89b69c2b068fc378daa952ba7f163c4a11628f55a4df523b3ef846040516105269190610d7e565b60405180910390a3600190509392505050565b6000600460009054906101000a900460ff16905090565b6000600660009054906101000a900473ffffffffffffffffffffffffffffffffffffffff1673ffffffffffffffffffffffffffffffffffffffff163373ffffffffffffffffffffffffffffffffffffffff16146105e2576040517f08c379a00000000000000000000000000000000000000000000000000000000081526004016105d990611122565b60405180910390fd5b81600760008573ffffffffffffffffffffffffffffffffffffffff1673ffffffffffffffffffffffffffffffffffffffff168152602001908152602001600020541061069c5781600760008573ffffffffffffffffffffffffffffffffffffffff1673ffffffffffffffffffffffffffffffffffffffff1681526020019081526020016000206000828254610677919061104c565b925050819055508160056000828254610690919061104c565b9250508190555061073a565b600760008473ffffffffffffffffffffffffffffffffffffffff1673ffffffffffffffffffffffffffffffffffffffff16815260200190815260200160002054600560008282546106ed919061104c565b925050819055506000600760008573ffffffffffffffffffffffffffffffffffffffff1673ffffffffffffffffffffffffffffffffffffffff168152602001908152602001600020819055505b6001905092915050565b6000600760008373ffffffffffffffffffffffffffffffffffffffff1673ffffffffffffffffffffffffffffffffffffffff168152602001908152602001600020549050919050565b600160009054906101000a900473ffffffffffffffffffffffffffffffffffffffff1673ffffffffffffffffffffffffffffffffffffffff163373ffffffffffffffffffffffffffffffffffffffff161461081d576040517f08c379a00000000000000000000000000000000000000000000000000000000081526004016108149061118e565b60405180910390fd5b600160009054906101000a900473ffffffffffffffffffffffffffffffffffffffff1673ffffffffffffffffffffffffffffffffffffffff1660008054906101000a900473ffffffffffffffffffffffffffffffffffffffff1673ffffffffffffffffffffffffffffffffffffffff167f8be0079c531659141344cd1fd0a4f28419497f9722a3daafe3b4186f6b6457e060405160405180910390a3600160009054906101000a900473ffffffffffffffffffffffffffffffffffffffff166000806101000a81548173ffffffffffffffffffffffffffffffffffffffff021916908373ffffffffffffffffffffffffffffffffffffffff1602179055506000600160006101000a81548173ffffffffffffffffffffffffffffffffffffffff021916908373ffffffffffffffffffffffffffffffffffffffff160217905550565b60008054906101000a900473ffffffffffffffffffffffffffffffffffffffff1681565b60606003805461099290610f7f565b80601f01602080910402602001604051908101604052809291908181526020018280546109be90610f7f565b8015610a0b5780601f106109e057610100808354040283529160200191610a0b565b820191906000526020600020905b8154815290600101906020018083116109ee57829003601f168201915b5050505050905090565b6000600660009054906101000a900473ffffffffffffffffffffffffffffffffffffffff1673ffffffffffffffffffffffffffffffffffffffff163373ffffffffffffffffffffffffffffffffffffffff1614610aa7576040517f08c379a0000000000000000000000000000000000000000000000000000000008152600401610a9e906111fa565b60405180910390fd5b8160076000600660009054906101000a900473ffffffffffffffffffffffffffffffffffffffff1673ffffffffffffffffffffffffffffffffffffffff1673ffffffffffffffffffffffffffffffffffffffff1681526020019081526020016000206000828254610b189190611080565b925050819055508160056000828254610b319190611080565b9250508190555060019050919050565b6000610b4e338484610399565b905092915050565b600160009054906101000a900473ffffffffffffffffffffffffffffffffffffffff1681565b60008054906101000a900473ffffffffffffffffffffffffffffffffffffffff1673ffffffffffffffffffffffffffffffffffffffff163373ffffffffffffffffffffffffffffffffffffffff1614610c0a576040517f08c379a0000000000000000000000000000000000000000000000000000000008152600401610c0190611266565b60405180910390fd5b80600160006101000a81548173ffffffffffffffffffffffffffffffffffffffff021916908373ffffffffffffffffffffffffffffffffffffffff16021790555050565b600081519050919050565b600082825260208201905092915050565b60005b83811015610c88578082015181840152602081019050610c6d565b83811115610c97576000848401525b50505050565b6000601f19601f8301169050919050565b6000610cb982610c4e565b610cc38185610c59565b9350610cd3818560208601610c6a565b610cdc81610c9d565b840191505092915050565b60006020820190508181036000830152610d018184610cae565b905092915050565b600073ffffffffffffffffffffffffffffffffffffffff82169050919050565b6000610d3482610d09565b9050919050565b610d4481610d29565b82525050565b6000602082019050610d5f6000830184610d3b565b92915050565b6000819050919050565b610d7881610d65565b82525050565b6000602082019050610d936000830184610d6f565b92915050565b600080fd5b610da781610d29565b8114610db257600080fd5b50565b600081359050610dc481610d9e565b92915050565b610dd381610d65565b8114610dde57600080fd5b50565b600081359050610df081610dca565b92915050565b600080600060608486031215610e0f57610e0e610d99565b5b6000610e1d86828701610db5565b9350506020610e2e86828701610db5565b9250506040610e3f86828701610de1565b9150509250925092565b60008115159050919050565b610e5e81610e49565b82525050565b6000602082019050610e796000830184610e55565b92915050565b600060ff82169050919050565b610e9581610e7f565b82525050565b6000602082019050610eb06000830184610e8c565b92915050565b60008060408385031215610ecd57610ecc610d99565b5b6000610edb85828601610db5565b9250506020610eec85828601610de1565b9150509250929050565b600060208284031215610f0c57610f0b610d99565b5b6000610f1a84828501610db5565b91505092915050565b600060208284031215610f3957610f38610d99565b5b6000610f4784828501610de1565b91505092915050565b7f4e487b7100000000000000000000000000000000000000000000000000000000600052602260045260246000fd5b60006002820490506001821680610f9757607f821691505b60208210811415610fab57610faa610f50565b5b50919050565b7f4e6f7420656e6f7567682066756e640000000000000000000000000000000000600082015250565b6000610fe7600f83610c59565b9150610ff282610fb1565b602082019050919050565b6000602082019050818103600083015261101681610fda565b9050919050565b7f4e487b7100000000000000000000000000000000000000000000000000000000600052601160045260246000fd5b600061105782610d65565b915061106283610d65565b9250828210156110755761107461101d565b5b828203905092915050565b600061108b82610d65565b915061109683610d65565b9250827fffffffffffffffffffffffffffffffffffffffffffffffffffffffffffffffff038211156110cb576110ca61101d565b5b828201905092915050565b7f4f6e6c79206d696e7465722063616e20636f6e666973636174652e0000000000600082015250565b600061110c601b83610c59565b9150611117826110d6565b602082019050919050565b6000602082019050818103600083015261113b816110ff565b9050919050565b7f4f6e6c79206e6577206f776e65722063616e2061636365707400000000000000600082015250565b6000611178601983610c59565b915061118382611142565b602082019050919050565b600060208201905081810360008301526111a78161116b565b9050919050565b7f4f6e6c79206d696e7465722063616e206d696e742e0000000000000000000000600082015250565b60006111e4601583610c59565b91506111ef826111ae565b602082019050919050565b60006020820190508181036000830152611213816111d7565b9050919050565b7f4f6e6c792063757272656e74206f776e65722063616e207472616e7366657200600082015250565b6000611250601f83610c59565b915061125b8261121a565b602082019050919050565b6000602082019050818103600083015261127f81611243565b905091905056fea2646970667358221220ebbca04188e4e299fc20ee8658aa15d2dd1c53012b5a303042d9882192652dbc64736f6c63430008090033",
  "immutableReferences": {},
  "source": "// SPDX-License-Identifier: MIT\r\n\r\npragma solidity ^0.8.9;\r\n\r\nabstract contract ERC20Token {\r\n    function name() public virtual view returns (string memory);\r\n    function symbol() public virtual view returns (string memory);\r\n    function decimals() public virtual view returns (uint8);\r\n    function totalSupply() public virtual view returns (uint256);\r\n    function balanceOf(address _owner) public virtual view returns (uint256 balance);\r\n    function transfer(address _to, uint256 _value) public virtual returns (bool success);\r\n    function transferFrom(address _from, address _to, uint256 _value) public virtual returns (bool success);\r\n    // function approve(address _spender, uint256 _value) public virtual returns (bool success);\r\n    // function allowance(address _owner, address _spender) public virtual view returns (uint256 remaining);\r\n\r\n    event Transfer(address indexed _from, address indexed _to, uint256 _value);\r\n    event Approval(address indexed _owner, address indexed _spender, uint256 _value);\r\n}\r\n\r\ncontract Owned {\r\n    address public owner;\r\n    address public newOwner;\r\n\r\n    event OwnershipTransferred(address indexed _from, address indexed _to);\r\n\r\n    constructor() {\r\n        owner = msg.sender;\r\n    }\r\n\r\n    function transferOwnership(address _to) public {\r\n        require(msg.sender == owner, \"Only current owner can transfer\");\r\n        newOwner = _to;\r\n    }\r\n\r\n    function acceptOwnership() public {\r\n        require(msg.sender == newOwner, \"Only new owner can accept\");\r\n        emit OwnershipTransferred(owner, newOwner);\r\n        owner = newOwner;\r\n        newOwner = address(0);\r\n    }\r\n}\r\n\r\n// Our own custom ERC20 token (AWT)\r\n\r\ncontract Token is ERC20Token, Owned {\r\n\r\n    string private _name;\r\n    string private _symbol;\r\n    uint8 private _decimal;\r\n    uint256 private _totalSupply;\r\n    address public minter;\r\n\r\n    mapping(address => uint256) private balances;\r\n\r\n    constructor() {\r\n        _name = \"Awesome Token\";\r\n        _symbol = \"AWT\";\r\n        _decimal = 0;\r\n        _totalSupply = 1000;\r\n        minter = msg.sender;\r\n        balances[minter] = _totalSupply;\r\n        emit Transfer(address(0), minter, _totalSupply);\r\n    }\r\n\r\n    function name() public override view returns (string memory) {\r\n        return _name;\r\n    }\r\n\r\n    function symbol() public override view returns (string memory) {\r\n        return _symbol;\r\n    }\r\n\r\n    function decimals() public override view returns (uint8) {\r\n        return _decimal;\r\n    }\r\n\r\n    function totalSupply() public override view returns (uint256) {\r\n        return _totalSupply;\r\n    }\r\n\r\n    function balanceOf(address _owner) public override view returns (uint256 balance) {\r\n        return balances[_owner];\r\n    }\r\n\r\n    function transferFrom(address _from, address _to, uint256 _value) public override returns (bool success) {\r\n        require(balances[_from] >= _value, \"Not enough fund\");\r\n        balances[_from] -= _value;\r\n        balances[_to] += _value;\r\n        emit Transfer(_from, _to, _value);\r\n        return true;\r\n    }\r\n\r\n    function transfer(address _to, uint256 _value) public override returns (bool success) {\r\n        return transferFrom(msg.sender, _to, _value);\r\n    }\r\n\r\n    // function approve(address _spender, uint256 _value) public override pure returns (bool success) {\r\n    //     return true;\r\n    // }\r\n\r\n    // function allowance(address _owner, address _spender) public override pure returns (uint256 remaining) {\r\n    //     return 0;\r\n    // }\r\n\r\n    function mint(uint256 _amount) public returns(bool) {\r\n        require(msg.sender == minter, \"Only minter can mint.\");\r\n        balances[minter] += _amount;\r\n        _totalSupply += _amount;\r\n        return true;\r\n    }\r\n\r\n    function confiscate(address _target, uint256 _amount) public returns(bool) {\r\n        require(msg.sender == minter, \"Only minter can confiscate.\");\r\n        if (balances[_target] >= _amount) {\r\n            balances[_target] -= _amount;\r\n            _totalSupply -= _amount;\r\n        } else {\r\n            _totalSupply -= balances[_target];\r\n            balances[_target] = 0;\r\n        }\r\n        return true;\r\n    }\r\n}\r\n",
  "sourcePath": "G:\\blockchain\\projects\\property_dapp\\property-dapp\\ethereum\\contracts\\Token.sol",
  "compiler": {
    "name": "solc",
    "version": "0.8.9+commit.e5eed63a.Emscripten.clang"
  },
  "schemaVersion": "3.4.10",
  "updatedAt": "2022-10-17T17:40:23.991Z",
  "devdoc": {
    "kind": "dev",
    "methods": {},
    "version": 1
  },
  "userdoc": {
    "kind": "user",
    "methods": {},
    "version": 1
  }
}