{"contractName":"Vendor","abi":[{"inputs":[{"internalType":"address","name":"_tokenAddress","type":"address"}],"stateMutability":"nonpayable","type":"constructor"},{"anonymous":false,"inputs":[{"indexed":false,"internalType":"address","name":"buyer","type":"address"},{"indexed":false,"internalType":"uint256","name":"amountOfETH","type":"uint256"},{"indexed":false,"internalType":"uint256","name":"amountOfTokens","type":"uint256"}],"name":"BuyTokens","type":"event"},{"anonymous":false,"inputs":[{"indexed":true,"internalType":"address","name":"previousOwner","type":"address"},{"indexed":true,"internalType":"address","name":"newOwner","type":"address"}],"name":"OwnershipTransferred","type":"event"},{"inputs":[],"name":"owner","outputs":[{"internalType":"address","name":"","type":"address"}],"stateMutability":"view","type":"function","constant":true},{"inputs":[],"name":"renounceOwnership","outputs":[],"stateMutability":"nonpayable","type":"function"},{"inputs":[],"name":"tokenPerEther","outputs":[{"internalType":"uint256","name":"","type":"uint256"}],"stateMutability":"view","type":"function","constant":true},{"inputs":[{"internalType":"address","name":"newOwner","type":"address"}],"name":"transferOwnership","outputs":[],"stateMutability":"nonpayable","type":"function"},{"inputs":[],"name":"buyToken","outputs":[],"stateMutability":"payable","type":"function","payable":true},{"inputs":[{"internalType":"uint256","name":"_amountToSell","type":"uint256"}],"name":"sellToken","outputs":[],"stateMutability":"nonpayable","type":"function"},{"inputs":[],"name":"withdraw","outputs":[],"stateMutability":"nonpayable","type":"function"}],"bytecode":"0x608060405260646002553480156200001657600080fd5b506040516200178a3803806200178a83398181016040528101906200003c91906200024d565b6200005c620000506200011760201b60201c565b6200011f60201b60201c565b600073ffffffffffffffffffffffffffffffffffffffff168173ffffffffffffffffffffffffffffffffffffffff161415620000cf576040517f08c379a0000000000000000000000000000000000000000000000000000000008152600401620000c69062000306565b60405180910390fd5b80600160006101000a81548173ffffffffffffffffffffffffffffffffffffffff021916908373ffffffffffffffffffffffffffffffffffffffff1602179055505062000328565b600033905090565b60008060009054906101000a900473ffffffffffffffffffffffffffffffffffffffff169050816000806101000a81548173ffffffffffffffffffffffffffffffffffffffff021916908373ffffffffffffffffffffffffffffffffffffffff1602179055508173ffffffffffffffffffffffffffffffffffffffff168173ffffffffffffffffffffffffffffffffffffffff167f8be0079c531659141344cd1fd0a4f28419497f9722a3daafe3b4186f6b6457e060405160405180910390a35050565b600080fd5b600073ffffffffffffffffffffffffffffffffffffffff82169050919050565b60006200021582620001e8565b9050919050565b620002278162000208565b81146200023357600080fd5b50565b60008151905062000247816200021c565b92915050565b600060208284031215620002665762000265620001e3565b5b6000620002768482850162000236565b91505092915050565b600082825260208201905092915050565b7f537065636966792070726f7065722041575420746f6b656e20636f6e7472616360008201527f7420616464726573732e00000000000000000000000000000000000000000000602082015250565b6000620002ee602a836200027f565b9150620002fb8262000290565b604082019050919050565b600060208201905081810360008301526200032181620002df565b9050919050565b61145280620003386000396000f3fe6080604052600436106100705760003560e01c8063715018a61161004e578063715018a6146100e05780638da5cb5b146100f7578063a482171914610122578063f2fde38b1461012c57610070565b80632397e4d7146100755780632f77dba41461009e5780633ccfd60b146100c9575b600080fd5b34801561008157600080fd5b5061009c60048036038101906100979190610a52565b610155565b005b3480156100aa57600080fd5b506100b361048c565b6040516100c09190610a8e565b60405180910390f35b3480156100d557600080fd5b506100de610492565b005b3480156100ec57600080fd5b506100f5610592565b005b34801561010357600080fd5b5061010c6105a6565b6040516101199190610aea565b60405180910390f35b61012a6105cf565b005b34801561013857600080fd5b50610153600480360381019061014e9190610b31565b610849565b005b60008111610198576040517f08c379a000000000000000000000000000000000000000000000000000000000815260040161018f90610be1565b60405180910390fd5b6000600160009054906101000a900473ffffffffffffffffffffffffffffffffffffffff1673ffffffffffffffffffffffffffffffffffffffff166370a08231336040518263ffffffff1660e01b81526004016101f59190610aea565b60206040518083038186803b15801561020d57600080fd5b505afa158015610221573d6000803e3d6000fd5b505050506040513d601f19601f820116820180604052508101906102459190610c16565b90508181101561028a576040517f08c379a000000000000000000000000000000000000000000000000000000000815260040161028190610cb5565b60405180910390fd5b60006002548361029a9190610d33565b90506000479050818110156102e4576040517f08c379a00000000000000000000000000000000000000000000000000000000081526004016102db90610db0565b60405180910390fd5b6000600160009054906101000a900473ffffffffffffffffffffffffffffffffffffffff1673ffffffffffffffffffffffffffffffffffffffff166323b872dd3330886040518463ffffffff1660e01b815260040161034593929190610dd0565b602060405180830381600087803b15801561035f57600080fd5b505af1158015610373573d6000803e3d6000fd5b505050506040513d601f19601f820116820180604052508101906103979190610e3f565b9050806103d9576040517f08c379a00000000000000000000000000000000000000000000000000000000081526004016103d090610ede565b60405180910390fd5b3373ffffffffffffffffffffffffffffffffffffffff16836040516103fd90610f2f565b60006040518083038185875af1925050503d806000811461043a576040519150601f19603f3d011682016040523d82523d6000602084013e61043f565b606091505b50508091505080610485576040517f08c379a000000000000000000000000000000000000000000000000000000000815260040161047c90610f90565b60405180910390fd5b5050505050565b60025481565b61049a6108cd565b6000479050600081116104e2576040517f08c379a00000000000000000000000000000000000000000000000000000000081526004016104d990611022565b60405180910390fd5b60003373ffffffffffffffffffffffffffffffffffffffff168260405161050890610f2f565b60006040518083038185875af1925050503d8060008114610545576040519150601f19603f3d011682016040523d82523d6000602084013e61054a565b606091505b505090508061058e576040517f08c379a00000000000000000000000000000000000000000000000000000000081526004016105859061108e565b60405180910390fd5b5050565b61059a6108cd565b6105a4600061094b565b565b60008060009054906101000a900473ffffffffffffffffffffffffffffffffffffffff16905090565b60003411610612576040517f08c379a000000000000000000000000000000000000000000000000000000000815260040161060990611120565b60405180910390fd5b6000600254346106229190611140565b90506000600160009054906101000a900473ffffffffffffffffffffffffffffffffffffffff1673ffffffffffffffffffffffffffffffffffffffff166370a08231306040518263ffffffff1660e01b81526004016106819190610aea565b60206040518083038186803b15801561069957600080fd5b505afa1580156106ad573d6000803e3d6000fd5b505050506040513d601f19601f820116820180604052508101906106d19190610c16565b905081811015610716576040517f08c379a000000000000000000000000000000000000000000000000000000000815260040161070d9061120c565b60405180910390fd5b6000600160009054906101000a900473ffffffffffffffffffffffffffffffffffffffff1673ffffffffffffffffffffffffffffffffffffffff1663a9059cbb33856040518363ffffffff1660e01b815260040161077592919061122c565b602060405180830381600087803b15801561078f57600080fd5b505af11580156107a3573d6000803e3d6000fd5b505050506040513d601f19601f820116820180604052508101906107c79190610e3f565b905080610809576040517f08c379a0000000000000000000000000000000000000000000000000000000008152600401610800906112c7565b60405180910390fd5b7f0a37b72bb67eee30e09084cf386f8a17817c57f620c3ab95fb25d6a20356ec7733348560405161083c939291906112e7565b60405180910390a1505050565b6108516108cd565b600073ffffffffffffffffffffffffffffffffffffffff168173ffffffffffffffffffffffffffffffffffffffff1614156108c1576040517f08c379a00000000000000000000000000000000000000000000000000000000081526004016108b890611390565b60405180910390fd5b6108ca8161094b565b50565b6108d5610a0f565b73ffffffffffffffffffffffffffffffffffffffff166108f36105a6565b73ffffffffffffffffffffffffffffffffffffffff1614610949576040517f08c379a0000000000000000000000000000000000000000000000000000000008152600401610940906113fc565b60405180910390fd5b565b60008060009054906101000a900473ffffffffffffffffffffffffffffffffffffffff169050816000806101000a81548173ffffffffffffffffffffffffffffffffffffffff021916908373ffffffffffffffffffffffffffffffffffffffff1602179055508173ffffffffffffffffffffffffffffffffffffffff168173ffffffffffffffffffffffffffffffffffffffff167f8be0079c531659141344cd1fd0a4f28419497f9722a3daafe3b4186f6b6457e060405160405180910390a35050565b600033905090565b600080fd5b6000819050919050565b610a2f81610a1c565b8114610a3a57600080fd5b50565b600081359050610a4c81610a26565b92915050565b600060208284031215610a6857610a67610a17565b5b6000610a7684828501610a3d565b91505092915050565b610a8881610a1c565b82525050565b6000602082019050610aa36000830184610a7f565b92915050565b600073ffffffffffffffffffffffffffffffffffffffff82169050919050565b6000610ad482610aa9565b9050919050565b610ae481610ac9565b82525050565b6000602082019050610aff6000830184610adb565b92915050565b610b0e81610ac9565b8114610b1957600080fd5b50565b600081359050610b2b81610b05565b92915050565b600060208284031215610b4757610b46610a17565b5b6000610b5584828501610b1c565b91505092915050565b600082825260208201905092915050565b7f5370656369667920616e20616d6f756e74206f6620746f6b656e20677265617460008201527f6572207468616e207a65726f2e00000000000000000000000000000000000000602082015250565b6000610bcb602d83610b5e565b9150610bd682610b6f565b604082019050919050565b60006020820190508181036000830152610bfa81610bbe565b9050919050565b600081519050610c1081610a26565b92915050565b600060208284031215610c2c57610c2b610a17565b5b6000610c3a84828501610c01565b91505092915050565b7f596f75206861766520696e73756666696369656e742041575420746f6b656e7360008201527f2e00000000000000000000000000000000000000000000000000000000000000602082015250565b6000610c9f602183610b5e565b9150610caa82610c43565b604082019050919050565b60006020820190508181036000830152610cce81610c92565b9050919050565b7f4e487b7100000000000000000000000000000000000000000000000000000000600052601260045260246000fd5b7f4e487b7100000000000000000000000000000000000000000000000000000000600052601160045260246000fd5b6000610d3e82610a1c565b9150610d4983610a1c565b925082610d5957610d58610cd5565b5b828204905092915050565b7f56656e646f722068617320696e73756666696369656e742066756e64732e0000600082015250565b6000610d9a601e83610b5e565b9150610da582610d64565b602082019050919050565b60006020820190508181036000830152610dc981610d8d565b9050919050565b6000606082019050610de56000830186610adb565b610df26020830185610adb565b610dff6040830184610a7f565b949350505050565b60008115159050919050565b610e1c81610e07565b8114610e2757600080fd5b50565b600081519050610e3981610e13565b92915050565b600060208284031215610e5557610e54610a17565b5b6000610e6384828501610e2a565b91505092915050565b7f4661696c656420746f207472616e7366657220746f6b656e732066726f6d207560008201527f73657220746f2076656e646f722e000000000000000000000000000000000000602082015250565b6000610ec8602e83610b5e565b9150610ed382610e6c565b604082019050919050565b60006020820190508181036000830152610ef781610ebb565b9050919050565b600081905092915050565b50565b6000610f19600083610efe565b9150610f2482610f09565b600082019050919050565b6000610f3a82610f0c565b9150819050919050565b7f4661696c656420746f2073656e642045544820746f2074686520757365722e00600082015250565b6000610f7a601f83610b5e565b9150610f8582610f44565b602082019050919050565b60006020820190508181036000830152610fa981610f6d565b9050919050565b7f4e6f204554482070726573656e7420696e207468652076656e646f722061636360008201527f6f756e742e000000000000000000000000000000000000000000000000000000602082015250565b600061100c602583610b5e565b915061101782610fb0565b604082019050919050565b6000602082019050818103600083015261103b81610fff565b9050919050565b7f4661696c656420746f2077697468647261770000000000000000000000000000600082015250565b6000611078601283610b5e565b915061108382611042565b602082019050919050565b600060208201905081810360008301526110a78161106b565b9050919050565b7f596f75206e65656420746f2073656e6420736f6d652045544820746f2070726f60008201527f636565642e000000000000000000000000000000000000000000000000000000602082015250565b600061110a602583610b5e565b9150611115826110ae565b604082019050919050565b60006020820190508181036000830152611139816110fd565b9050919050565b600061114b82610a1c565b915061115683610a1c565b9250817fffffffffffffffffffffffffffffffffffffffffffffffffffffffffffffffff048311821515161561118f5761118e610d04565b5b828202905092915050565b7f56656e646f722068617320696e73756666696369656e742041575420746f6b6560008201527f6e2e000000000000000000000000000000000000000000000000000000000000602082015250565b60006111f6602283610b5e565b91506112018261119a565b604082019050919050565b60006020820190508181036000830152611225816111e9565b9050919050565b60006040820190506112416000830185610adb565b61124e6020830184610a7f565b9392505050565b7f4661696c656420746f207472616e7366657220746f6b656e20746f207573657260008201527f2e00000000000000000000000000000000000000000000000000000000000000602082015250565b60006112b1602183610b5e565b91506112bc82611255565b604082019050919050565b600060208201905081810360008301526112e0816112a4565b9050919050565b60006060820190506112fc6000830186610adb565b6113096020830185610a7f565b6113166040830184610a7f565b949350505050565b7f4f776e61626c653a206e6577206f776e657220697320746865207a65726f206160008201527f6464726573730000000000000000000000000000000000000000000000000000602082015250565b600061137a602683610b5e565b91506113858261131e565b604082019050919050565b600060208201905081810360008301526113a98161136d565b9050919050565b7f4f776e61626c653a2063616c6c6572206973206e6f7420746865206f776e6572600082015250565b60006113e6602083610b5e565b91506113f1826113b0565b602082019050919050565b60006020820190508181036000830152611415816113d9565b905091905056fea2646970667358221220d8b0711e6f0c0014dc55b5ddedfdabd14c5d7b4c9eb1d33d03cd5c190585bdbf64736f6c63430008090033","immutableReferences":{},"source":"// SPDX-License-Identifier: MIT\r\n\r\npragma solidity ^0.8.9;\r\n\r\nimport \"@openzeppelin/contracts/access/Ownable.sol\";\r\nimport \"./Token.sol\";\r\n\r\ncontract Vendor is Ownable {\r\n\r\n    Token token;                            // refers to our custom AWT ERC20 token\r\n    uint256 public tokenPerEther = 100;     // 1 ETH = 100 AWT\r\n\r\n    event BuyTokens(address buyer, uint256 amountOfETH, uint256 amountOfTokens);\r\n\r\n    constructor(address _tokenAddress) {\r\n        require(_tokenAddress != address(0), \"Specify proper AWT token contract address.\");\r\n        token = Token(_tokenAddress);\r\n    }\r\n\r\n    function buyToken() public payable {\r\n        require(msg.value > 0, \"You need to send some ETH to proceed.\");\r\n\r\n        uint256 amountToBuy = msg.value * tokenPerEther;            // Ex: 10 AWT = 0.1 ETH * 100\r\n        uint256 vendorBalance = token.balanceOf(address(this));     // getting vendor contract balance of AWT\r\n        require(vendorBalance >= amountToBuy, \"Vendor has insufficient AWT token.\");\r\n\r\n        (bool success) = token.transfer(msg.sender, amountToBuy);   // transferring AWT to the buyer account\r\n        require(success, \"Failed to transfer token to user.\");\r\n\r\n        emit BuyTokens(msg.sender, msg.value, amountToBuy);         // recording buy token event\r\n    }\r\n\r\n    function sellToken(uint256 _amountToSell) public {\r\n        require(_amountToSell > 0, \"Specify an amount of token greater than zero.\");\r\n\r\n        uint256 userBalance = token.balanceOf(msg.sender);      // getting seller contract balance of AWT\r\n        require(userBalance >= _amountToSell, \"You have insufficient AWT tokens.\");\r\n\r\n        uint256 amoutOfETHToTransfer = _amountToSell / tokenPerEther;       // converting to ETH\r\n        uint256 ownerETHBalance = address(this).balance;                    // getting the ETH balance of this vendor contract\r\n        require(ownerETHBalance >= amoutOfETHToTransfer, \"Vendor has insufficient funds.\");\r\n\r\n        (bool success) = token.transferFrom(msg.sender, address(this), _amountToSell);      // transferring AWT from seller account to vendor account\r\n        require(success, \"Failed to transfer tokens from user to vendor.\");\r\n\r\n        (success, ) = msg.sender.call{ value: amoutOfETHToTransfer }(\"\");   // transferring ETH to seller account\r\n        require(success, \"Failed to send ETH to the user.\");\r\n    }\r\n\r\n    // only owner of the vendor contract can withdraw\r\n    function withdraw() public onlyOwner {\r\n        uint256 ownerBalance = address(this).balance;\r\n        require(ownerBalance > 0, \"No ETH present in the vendor account.\");\r\n        (bool success, ) = msg.sender.call{ value: ownerBalance }(\"\");          // transferring ETH from vender contract to owner account\r\n        require(success, \"Failed to withdraw\");\r\n    }\r\n}\r\n","sourcePath":"G:\\blockchain\\projects\\property_dapp\\ethereum\\contracts\\Vendor.sol","compiler":{"name":"solc","version":"0.8.9+commit.e5eed63a.Emscripten.clang"},"schemaVersion":"3.4.10","updatedAt":"2022-10-06T07:58:21.997Z","networkType":"ethereum","devdoc":{"kind":"dev","methods":{"owner()":{"details":"Returns the address of the current owner."},"renounceOwnership()":{"details":"Leaves the contract without owner. It will not be possible to call `onlyOwner` functions anymore. Can only be called by the current owner. NOTE: Renouncing ownership will leave the contract without an owner, thereby removing any functionality that is only available to the owner."},"transferOwnership(address)":{"details":"Transfers ownership of the contract to a new account (`newOwner`). Can only be called by the current owner."}},"version":1},"userdoc":{"kind":"user","methods":{},"version":1}}