{"contractName":"Registry","abi":[{"inputs":[{"internalType":"address","name":"_propertyContract","type":"address"},{"internalType":"address","name":"_tokenAddress","type":"address"}],"stateMutability":"nonpayable","type":"constructor"},{"anonymous":false,"inputs":[{"indexed":false,"internalType":"address","name":"buyer","type":"address"},{"indexed":false,"internalType":"uint256","name":"pid","type":"uint256"},{"indexed":false,"internalType":"uint256","name":"price","type":"uint256"}],"name":"BuyProperty","type":"event"},{"anonymous":false,"inputs":[{"indexed":false,"internalType":"uint256","name":"id","type":"uint256"},{"indexed":false,"internalType":"address","name":"owner","type":"address"},{"indexed":false,"internalType":"uint256","name":"price","type":"uint256"},{"indexed":false,"internalType":"string","name":"location","type":"string"},{"indexed":false,"internalType":"uint256","name":"size","type":"uint256"}],"name":"NewPropertyEvent","type":"event"},{"anonymous":false,"inputs":[{"indexed":false,"internalType":"uint256","name":"id","type":"uint256"},{"indexed":false,"internalType":"bool","name":"available","type":"bool"}],"name":"PropertyAvailabilityEvent","type":"event"},{"inputs":[{"internalType":"uint256","name":"","type":"uint256"}],"name":"properties","outputs":[{"internalType":"uint256","name":"pid","type":"uint256"},{"internalType":"address","name":"owner","type":"address"},{"internalType":"uint256","name":"price","type":"uint256"},{"internalType":"string","name":"location","type":"string"},{"internalType":"uint256","name":"size","type":"uint256"},{"internalType":"bool","name":"isAvailable","type":"bool"}],"stateMutability":"view","type":"function"},{"inputs":[{"internalType":"uint256","name":"","type":"uint256"}],"name":"propertyList","outputs":[{"internalType":"uint256","name":"pid","type":"uint256"},{"internalType":"address","name":"owner","type":"address"},{"internalType":"uint256","name":"price","type":"uint256"},{"internalType":"string","name":"location","type":"string"},{"internalType":"uint256","name":"size","type":"uint256"},{"internalType":"bool","name":"isAvailable","type":"bool"}],"stateMutability":"view","type":"function"},{"inputs":[{"internalType":"uint256","name":"","type":"uint256"}],"name":"purchases","outputs":[{"internalType":"uint256","name":"pid","type":"uint256"},{"internalType":"address","name":"buyer","type":"address"},{"internalType":"address","name":"owner","type":"address"},{"internalType":"uint256","name":"price","type":"uint256"},{"internalType":"uint256","name":"time","type":"uint256"}],"stateMutability":"view","type":"function"},{"inputs":[{"internalType":"uint256","name":"_price","type":"uint256"},{"internalType":"string","name":"_location","type":"string"},{"internalType":"uint256","name":"_size","type":"uint256"}],"name":"addProperty","outputs":[],"stateMutability":"nonpayable","type":"function"},{"inputs":[{"internalType":"uint256","name":"_pid","type":"uint256"}],"name":"buyProperty","outputs":[],"stateMutability":"nonpayable","type":"function"},{"inputs":[{"internalType":"uint256","name":"_pid","type":"uint256"},{"internalType":"bool","name":"_status","type":"bool"}],"name":"setPropertyAvailability","outputs":[],"stateMutability":"nonpayable","type":"function"},{"inputs":[],"name":"getProperties","outputs":[{"components":[{"internalType":"uint256","name":"pid","type":"uint256"},{"internalType":"address","name":"owner","type":"address"},{"internalType":"uint256","name":"price","type":"uint256"},{"internalType":"string","name":"location","type":"string"},{"internalType":"uint256","name":"size","type":"uint256"},{"internalType":"bool","name":"isAvailable","type":"bool"}],"internalType":"struct Registry.PropertyInfo[]","name":"","type":"tuple[]"}],"stateMutability":"view","type":"function"},{"inputs":[],"name":"getPurchases","outputs":[{"components":[{"internalType":"uint256","name":"pid","type":"uint256"},{"internalType":"address","name":"buyer","type":"address"},{"internalType":"address","name":"owner","type":"address"},{"internalType":"uint256","name":"price","type":"uint256"},{"internalType":"uint256","name":"time","type":"uint256"}],"internalType":"struct Registry.Purchase[]","name":"","type":"tuple[]"}],"stateMutability":"view","type":"function"}],"bytecode":"0x60806040523480156200001157600080fd5b50604051620020fb380380620020fb83398181016040528101906200003791906200014f565b6200004e6000620000d860201b620011511760201c565b81600160006101000a81548173ffffffffffffffffffffffffffffffffffffffff021916908373ffffffffffffffffffffffffffffffffffffffff16021790555080600260006101000a81548173ffffffffffffffffffffffffffffffffffffffff021916908373ffffffffffffffffffffffffffffffffffffffff160217905550505062000196565b6000816000018190555050565b600080fd5b600073ffffffffffffffffffffffffffffffffffffffff82169050919050565b60006200011782620000ea565b9050919050565b62000129816200010a565b81146200013557600080fd5b50565b60008151905062000149816200011e565b92915050565b60008060408385031215620001695762000168620000e5565b5b6000620001798582860162000138565b92505060206200018c8582860162000138565b9150509250929050565b611f5580620001a66000396000f3fe608060405234801561001057600080fd5b50600436106100885760003560e01c8063c47f0f901161005b578063c47f0f901461012e578063ec0cfd0b1461014c578063f7b108081461016a578063fe93ba091461019f57610088565b806351d2a3b21461008d5780636fa830a6146100c25780638392fe31146100de578063bf4a5a5514610112575b600080fd5b6100a760048036038101906100a2919061126f565b6101bb565b6040516100b9969594939291906113a0565b60405180910390f35b6100dc60048036038101906100d7919061126f565b6102bc565b005b6100f860048036038101906100f3919061126f565b6108b1565b604051610109959493929190611408565b60405180910390f35b61012c60048036038101906101279190611487565b610937565b005b610136610af7565b60405161014391906115fc565b60405180910390f35b610154610c20565b60405161016191906117c2565b60405180910390f35b610184600480360381019061017f919061126f565b610da0565b604051610196969594939291906113a0565b60405180910390f35b6101b960048036038101906101b49190611919565b610e91565b005b600481815481106101cb57600080fd5b90600052602060002090600602016000915090508060000154908060010160009054906101000a900473ffffffffffffffffffffffffffffffffffffffff1690806002015490806003018054610220906119b7565b80601f016020809104026020016040519081016040528092919081815260200182805461024c906119b7565b80156102995780601f1061026e57610100808354040283529160200191610299565b820191906000526020600020905b81548152906001019060200180831161027c57829003601f168201915b5050505050908060040154908060050160009054906101000a900460ff16905086565b6000600160009054906101000a900473ffffffffffffffffffffffffffffffffffffffff1673ffffffffffffffffffffffffffffffffffffffff16636352211e836040518263ffffffff1660e01b815260040161031991906119e9565b60206040518083038186803b15801561033157600080fd5b505afa158015610345573d6000803e3d6000fd5b505050506040513d601f19601f820116820180604052508101906103699190611a30565b90508073ffffffffffffffffffffffffffffffffffffffff163373ffffffffffffffffffffffffffffffffffffffff1614156103da576040517f08c379a00000000000000000000000000000000000000000000000000000000081526004016103d190611acf565b60405180910390fd5b6003600083815260200190815260200160002060050160009054906101000a900460ff1661043d576040517f08c379a000000000000000000000000000000000000000000000000000000000815260040161043490611b61565b60405180910390fd5b6000600360008481526020019081526020016000206002015490506000600260009054906101000a900473ffffffffffffffffffffffffffffffffffffffff1673ffffffffffffffffffffffffffffffffffffffff166370a08231336040518263ffffffff1660e01b81526004016104b59190611b81565b60206040518083038186803b1580156104cd57600080fd5b505afa1580156104e1573d6000803e3d6000fd5b505050506040513d601f19601f820116820180604052508101906105059190611bb1565b90508181101561054a576040517f08c379a000000000000000000000000000000000000000000000000000000000815260040161054190611c50565b60405180910390fd5b6000600260009054906101000a900473ffffffffffffffffffffffffffffffffffffffff1673ffffffffffffffffffffffffffffffffffffffff166323b872dd3386866040518463ffffffff1660e01b81526004016105ab93929190611c70565b602060405180830381600087803b1580156105c557600080fd5b505af11580156105d9573d6000803e3d6000fd5b505050506040513d601f19601f820116820180604052508101906105fd9190611cbc565b90508061063f576040517f08c379a000000000000000000000000000000000000000000000000000000000815260040161063690611d5b565b60405180910390fd5b600160009054906101000a900473ffffffffffffffffffffffffffffffffffffffff1673ffffffffffffffffffffffffffffffffffffffff166342842e0e8533886040518463ffffffff1660e01b815260040161069e93929190611c70565b600060405180830381600087803b1580156106b857600080fd5b505af11580156106cc573d6000803e3d6000fd5b5050505060006003600087815260200190815260200160002060050160006101000a81548160ff02191690831515021790555060006004868154811061071557610714611d7b565b5b906000526020600020906006020160050160006101000a81548160ff02191690831515021790555060006040518060a001604052808781526020013373ffffffffffffffffffffffffffffffffffffffff1681526020018673ffffffffffffffffffffffffffffffffffffffff16815260200185815260200142815250905060058190806001815401808255809150506001900390600052602060002090600502016000909190919091506000820151816000015560208201518160010160006101000a81548173ffffffffffffffffffffffffffffffffffffffff021916908373ffffffffffffffffffffffffffffffffffffffff16021790555060408201518160020160006101000a81548173ffffffffffffffffffffffffffffffffffffffff021916908373ffffffffffffffffffffffffffffffffffffffff160217905550606082015181600301556080820151816004015550507f75decf89a96d485b07819128c69cca58057a61ec52a8ec4b406b16e9e0c701a43387866040516108a193929190611daa565b60405180910390a1505050505050565b600581815481106108c157600080fd5b90600052602060002090600502016000915090508060000154908060010160009054906101000a900473ffffffffffffffffffffffffffffffffffffffff16908060020160009054906101000a900473ffffffffffffffffffffffffffffffffffffffff16908060030154908060040154905085565b3373ffffffffffffffffffffffffffffffffffffffff16600160009054906101000a900473ffffffffffffffffffffffffffffffffffffffff1673ffffffffffffffffffffffffffffffffffffffff16636352211e846040518263ffffffff1660e01b81526004016109a991906119e9565b60206040518083038186803b1580156109c157600080fd5b505afa1580156109d5573d6000803e3d6000fd5b505050506040513d601f19601f820116820180604052508101906109f99190611a30565b73ffffffffffffffffffffffffffffffffffffffff1614610a4f576040517f08c379a0000000000000000000000000000000000000000000000000000000008152600401610a4690611e53565b60405180910390fd5b806003600084815260200190815260200160002060050160006101000a81548160ff0219169083151502179055508060048381548110610a9257610a91611d7b565b5b906000526020600020906006020160050160006101000a81548160ff0219169083151502179055507f54ab9fe6e22aa439d1f804de48ebbbacc56ec024fd1b67fabb2b6c06dcbff3148282604051610aeb929190611e73565b60405180910390a15050565b60606005805480602002602001604051908101604052809291908181526020016000905b82821015610c1757838290600052602060002090600502016040518060a0016040529081600082015481526020016001820160009054906101000a900473ffffffffffffffffffffffffffffffffffffffff1673ffffffffffffffffffffffffffffffffffffffff1673ffffffffffffffffffffffffffffffffffffffff1681526020016002820160009054906101000a900473ffffffffffffffffffffffffffffffffffffffff1673ffffffffffffffffffffffffffffffffffffffff1673ffffffffffffffffffffffffffffffffffffffff1681526020016003820154815260200160048201548152505081526020019060010190610b1b565b50505050905090565b60606004805480602002602001604051908101604052809291908181526020016000905b82821015610d9757838290600052602060002090600602016040518060c0016040529081600082015481526020016001820160009054906101000a900473ffffffffffffffffffffffffffffffffffffffff1673ffffffffffffffffffffffffffffffffffffffff1673ffffffffffffffffffffffffffffffffffffffff16815260200160028201548152602001600382018054610ce1906119b7565b80601f0160208091040260200160405190810160405280929190818152602001828054610d0d906119b7565b8015610d5a5780601f10610d2f57610100808354040283529160200191610d5a565b820191906000526020600020905b815481529060010190602001808311610d3d57829003601f168201915b50505050508152602001600482015481526020016005820160009054906101000a900460ff16151515158152505081526020019060010190610c44565b50505050905090565b60036020528060005260406000206000915090508060000154908060010160009054906101000a900473ffffffffffffffffffffffffffffffffffffffff1690806002015490806003018054610df5906119b7565b80601f0160208091040260200160405190810160405280929190818152602001828054610e21906119b7565b8015610e6e5780601f10610e4357610100808354040283529160200191610e6e565b820191906000526020600020905b815481529060010190602001808311610e5157829003601f168201915b5050505050908060040154908060050160009054906101000a900460ff16905086565b6000610e9d600061115e565b9050610ea9600061116c565b600160009054906101000a900473ffffffffffffffffffffffffffffffffffffffff1673ffffffffffffffffffffffffffffffffffffffff166340c10f1933836040518363ffffffff1660e01b8152600401610f06929190611e9c565b600060405180830381600087803b158015610f2057600080fd5b505af1158015610f34573d6000803e3d6000fd5b5050505060006040518060c001604052808381526020013373ffffffffffffffffffffffffffffffffffffffff16815260200186815260200185815260200184815260200160011515815250905080600360008481526020019081526020016000206000820151816000015560208201518160010160006101000a81548173ffffffffffffffffffffffffffffffffffffffff021916908373ffffffffffffffffffffffffffffffffffffffff16021790555060408201518160020155606082015181600301908051906020019061100d929190611182565b506080820151816004015560a08201518160050160006101000a81548160ff02191690831515021790555090505060048190806001815401808255809150506001900390600052602060002090600602016000909190919091506000820151816000015560208201518160010160006101000a81548173ffffffffffffffffffffffffffffffffffffffff021916908373ffffffffffffffffffffffffffffffffffffffff1602179055506040820151816002015560608201518160030190805190602001906110de929190611182565b506080820151816004015560a08201518160050160006101000a81548160ff02191690831515021790555050507ff53871e57d7ce51bb7ce3839716c51bf6bd180effee4b5e4db40b53cf43f9a488233878787604051611142959493929190611ec5565b60405180910390a15050505050565b6000816000018190555050565b600081600001549050919050565b6001816000016000828254019250508190555050565b82805461118e906119b7565b90600052602060002090601f0160209004810192826111b057600085556111f7565b82601f106111c957805160ff19168380011785556111f7565b828001600101855582156111f7579182015b828111156111f65782518255916020019190600101906111db565b5b5090506112049190611208565b5090565b5b80821115611221576000816000905550600101611209565b5090565b6000604051905090565b600080fd5b600080fd5b6000819050919050565b61124c81611239565b811461125757600080fd5b50565b60008135905061126981611243565b92915050565b6000602082840312156112855761128461122f565b5b60006112938482850161125a565b91505092915050565b6112a581611239565b82525050565b600073ffffffffffffffffffffffffffffffffffffffff82169050919050565b60006112d6826112ab565b9050919050565b6112e6816112cb565b82525050565b600081519050919050565b600082825260208201905092915050565b60005b8381101561132657808201518184015260208101905061130b565b83811115611335576000848401525b50505050565b6000601f19601f8301169050919050565b6000611357826112ec565b61136181856112f7565b9350611371818560208601611308565b61137a8161133b565b840191505092915050565b60008115159050919050565b61139a81611385565b82525050565b600060c0820190506113b5600083018961129c565b6113c260208301886112dd565b6113cf604083018761129c565b81810360608301526113e1818661134c565b90506113f0608083018561129c565b6113fd60a0830184611391565b979650505050505050565b600060a08201905061141d600083018861129c565b61142a60208301876112dd565b61143760408301866112dd565b611444606083018561129c565b611451608083018461129c565b9695505050505050565b61146481611385565b811461146f57600080fd5b50565b6000813590506114818161145b565b92915050565b6000806040838503121561149e5761149d61122f565b5b60006114ac8582860161125a565b92505060206114bd85828601611472565b9150509250929050565b600081519050919050565b600082825260208201905092915050565b6000819050602082019050919050565b6114fc81611239565b82525050565b61150b816112cb565b82525050565b60a08201600082015161152760008501826114f3565b50602082015161153a6020850182611502565b50604082015161154d6040850182611502565b50606082015161156060608501826114f3565b50608082015161157360808501826114f3565b50505050565b60006115858383611511565b60a08301905092915050565b6000602082019050919050565b60006115a9826114c7565b6115b381856114d2565b93506115be836114e3565b8060005b838110156115ef5781516115d68882611579565b97506115e183611591565b9250506001810190506115c2565b5085935050505092915050565b60006020820190508181036000830152611616818461159e565b905092915050565b600081519050919050565b600082825260208201905092915050565b6000819050602082019050919050565b600082825260208201905092915050565b6000611666826112ec565b611670818561164a565b9350611680818560208601611308565b6116898161133b565b840191505092915050565b61169d81611385565b82525050565b600060c0830160008301516116bb60008601826114f3565b5060208301516116ce6020860182611502565b5060408301516116e160408601826114f3565b50606083015184820360608601526116f9828261165b565b915050608083015161170e60808601826114f3565b5060a083015161172160a0860182611694565b508091505092915050565b600061173883836116a3565b905092915050565b6000602082019050919050565b60006117588261161e565b6117628185611629565b9350836020820285016117748561163a565b8060005b858110156117b05784840389528151611791858261172c565b945061179c83611740565b925060208a01995050600181019050611778565b50829750879550505050505092915050565b600060208201905081810360008301526117dc818461174d565b905092915050565b600080fd5b600080fd5b7f4e487b7100000000000000000000000000000000000000000000000000000000600052604160045260246000fd5b6118268261133b565b810181811067ffffffffffffffff82111715611845576118446117ee565b5b80604052505050565b6000611858611225565b9050611864828261181d565b919050565b600067ffffffffffffffff821115611884576118836117ee565b5b61188d8261133b565b9050602081019050919050565b82818337600083830152505050565b60006118bc6118b784611869565b61184e565b9050828152602081018484840111156118d8576118d76117e9565b5b6118e384828561189a565b509392505050565b600082601f830112611900576118ff6117e4565b5b81356119108482602086016118a9565b91505092915050565b6000806000606084860312156119325761193161122f565b5b60006119408682870161125a565b935050602084013567ffffffffffffffff81111561196157611960611234565b5b61196d868287016118eb565b925050604061197e8682870161125a565b9150509250925092565b7f4e487b7100000000000000000000000000000000000000000000000000000000600052602260045260246000fd5b600060028204905060018216806119cf57607f821691505b602082108114156119e3576119e2611988565b5b50919050565b60006020820190506119fe600083018461129c565b92915050565b611a0d816112cb565b8114611a1857600080fd5b50565b600081519050611a2a81611a04565b92915050565b600060208284031215611a4657611a4561122f565b5b6000611a5484828501611a1b565b91505092915050565b7f50726f7065727479206f776e65722063616e6e6f74206275792074686569722060008201527f6f776e2070726f70657274792e00000000000000000000000000000000000000602082015250565b6000611ab9602d836112f7565b9150611ac482611a5d565b604082019050919050565b60006020820190508181036000830152611ae881611aac565b9050919050565b7f43757272656e746c7920746869732070726f7065727479206973206e6f74206160008201527f7661696c61626c652e0000000000000000000000000000000000000000000000602082015250565b6000611b4b6029836112f7565b9150611b5682611aef565b604082019050919050565b60006020820190508181036000830152611b7a81611b3e565b9050919050565b6000602082019050611b9660008301846112dd565b92915050565b600081519050611bab81611243565b92915050565b600060208284031215611bc757611bc661122f565b5b6000611bd584828501611b9c565b91505092915050565b7f5573657220646f6573206e6f7420686176652073756666696369656e7420415760008201527f5420746f6b656e732e0000000000000000000000000000000000000000000000602082015250565b6000611c3a6029836112f7565b9150611c4582611bde565b604082019050919050565b60006020820190508181036000830152611c6981611c2d565b9050919050565b6000606082019050611c8560008301866112dd565b611c9260208301856112dd565b611c9f604083018461129c565b949350505050565b600081519050611cb68161145b565b92915050565b600060208284031215611cd257611cd161122f565b5b6000611ce084828501611ca7565b91505092915050565b7f4661696c656420746f207472616e7366657220746f6b656e20746f207573657260008201527f2e00000000000000000000000000000000000000000000000000000000000000602082015250565b6000611d456021836112f7565b9150611d5082611ce9565b604082019050919050565b60006020820190508181036000830152611d7481611d38565b9050919050565b7f4e487b7100000000000000000000000000000000000000000000000000000000600052603260045260246000fd5b6000606082019050611dbf60008301866112dd565b611dcc602083018561129c565b611dd9604083018461129c565b949350505050565b7f4f6e6c79206f776e6572206f66207468652070726f70657274792063616e207560008201527f70646174652074686520617661696c6162696c69747920737461747573000000602082015250565b6000611e3d603d836112f7565b9150611e4882611de1565b604082019050919050565b60006020820190508181036000830152611e6c81611e30565b9050919050565b6000604082019050611e88600083018561129c565b611e956020830184611391565b9392505050565b6000604082019050611eb160008301856112dd565b611ebe602083018461129c565b9392505050565b600060a082019050611eda600083018861129c565b611ee760208301876112dd565b611ef4604083018661129c565b8181036060830152611f06818561134c565b9050611f15608083018461129c565b969550505050505056fea26469706673582212209fc90936b0fdc68982a6b9d4d60de926736b9f97a3e611ef2d15f6143333f59a64736f6c63430008090033","immutableReferences":{},"source":"// SPDX-License-Identifier: MIT\r\n\r\npragma solidity ^0.8.9;\r\n\r\nimport \"@openzeppelin/contracts/utils/Counters.sol\";\r\nimport \"./Property.sol\";\r\nimport \"./Token.sol\";\r\n\r\ncontract Registry {\r\n\r\n    using Counters for Counters.Counter;\r\n\r\n    Counters.Counter nProperties;\r\n    Property property;              // refers to our property NFT\r\n    Token token;                    // refers to our custom AWT ERC20 token\r\n    mapping(uint256 => PropertyInfo) public properties;\r\n    PropertyInfo[] public propertyList;\r\n    Purchase[] public purchases;\r\n\r\n    struct PropertyInfo {\r\n        uint256 pid;\r\n        address owner;\r\n        uint256 price;              // price in AWT\r\n        string location;\r\n        uint256 size;               // in squarefeet\r\n        bool isAvailable;\r\n    }\r\n\r\n    struct Purchase {\r\n        uint256 pid;\r\n        address buyer;\r\n        address owner;\r\n        uint256 price;\r\n        uint256 time;\r\n    }\r\n\r\n    // events\r\n    event NewPropertyEvent(uint256 id, address owner, uint256 price, string location, uint256 size);\r\n    event BuyProperty(address buyer, uint256 pid, uint256 price);\r\n    event PropertyAvailabilityEvent(uint256 id, bool available);\r\n\r\n    constructor(address _propertyContract, address _tokenAddress) {\r\n        nProperties.reset();\r\n        property = Property(_propertyContract);\r\n        token = Token(_tokenAddress);\r\n    }\r\n\r\n    function addProperty(uint256 _price, string memory _location, uint256 _size) public {\r\n        uint256 pid = nProperties.current();\r\n        nProperties.increment();\r\n        property.mint(msg.sender, pid);     // minting property non-fungible token\r\n\r\n        PropertyInfo memory prop = PropertyInfo(pid, msg.sender, _price, _location, _size, true);\r\n        properties[pid] = prop;\r\n        propertyList.push(prop);            // pushing to an array so that we can fetch the array of properties\r\n\r\n        emit NewPropertyEvent(pid, msg.sender, _price, _location, _size);\r\n    }\r\n\r\n    function buyProperty(uint256 _pid) public {\r\n        address propertyOwner = property.ownerOf(_pid);\r\n        require(msg.sender != propertyOwner, \"Property owner cannot buy their own property.\");\r\n        require(properties[_pid].isAvailable, \"Currently this property is not available.\");\r\n\r\n        uint256 propertyPrice = properties[_pid].price;\r\n\r\n        // this following codes is for transferring ETH\r\n        // require(msg.value == propertyPrice, \"Not sufficient fund.\");   // checking if buyer is sending exact price amount or not\r\n        // (bool success, ) = address(propertyOwner).call{ value: msg.value }(\"\");\r\n        // require(success, \"Failed to send money to the owner.\");\r\n\r\n        // this following codes is for transferring AWT\r\n        uint256 userBalance = token.balanceOf(msg.sender);\r\n        require(userBalance >= propertyPrice, \"User does not have sufficient AWT tokens.\");\r\n        (bool success) = token.transferFrom(msg.sender, propertyOwner, propertyPrice);          // transferring AWT from buyer account to property owner account\r\n        require(success, \"Failed to transfer token to user.\");\r\n\r\n        property.safeTransferFrom(propertyOwner, msg.sender, _pid);   // transferring the property token to the buyer\r\n        properties[_pid].isAvailable = false;   // only after succsfull transaction setting the property is not available\r\n        propertyList[_pid].isAvailable = false;\r\n\r\n        Purchase memory purchase = Purchase(_pid, msg.sender, propertyOwner, propertyPrice, block.timestamp);\r\n        purchases.push(purchase);   // pushing to the purchase array\r\n\r\n        emit BuyProperty(msg.sender, _pid, propertyPrice);\r\n    }\r\n\r\n    function setPropertyAvailability(uint256 _pid, bool _status) public {\r\n        require(property.ownerOf(_pid) == msg.sender, \"Only owner of the property can update the availability status\");\r\n        properties[_pid].isAvailable = _status;\r\n        propertyList[_pid].isAvailable = _status;\r\n        emit PropertyAvailabilityEvent(_pid, _status);\r\n    }\r\n\r\n    function getProperties() public view returns(PropertyInfo[] memory) {\r\n        return propertyList;\r\n    }\r\n\r\n    function getPurchases() public view returns(Purchase[] memory) {\r\n        return purchases;\r\n    }\r\n}\r\n","sourcePath":"G:\\blockchain\\projects\\property_dapp\\property-dapp\\ethereum\\contracts\\Registry.sol","compiler":{"name":"solc","version":"0.8.9+commit.e5eed63a.Emscripten.clang"},"schemaVersion":"3.4.10","updatedAt":"2022-10-17T17:30:52.872Z","networkType":"ethereum","devdoc":{"kind":"dev","methods":{},"version":1},"userdoc":{"kind":"user","methods":{},"version":1}}