{"contractName":"Registry","abi":[{"inputs":[{"internalType":"address","name":"_propertyContract","type":"address"},{"internalType":"address","name":"_tokenAddress","type":"address"}],"stateMutability":"nonpayable","type":"constructor"},{"anonymous":false,"inputs":[{"indexed":false,"internalType":"address","name":"buyer","type":"address"},{"indexed":false,"internalType":"uint256","name":"pid","type":"uint256"},{"indexed":false,"internalType":"uint256","name":"price","type":"uint256"}],"name":"BuyProperty","type":"event"},{"anonymous":false,"inputs":[{"indexed":false,"internalType":"uint256","name":"id","type":"uint256"},{"indexed":false,"internalType":"address","name":"owner","type":"address"},{"indexed":false,"internalType":"uint256","name":"price","type":"uint256"},{"indexed":false,"internalType":"string","name":"location","type":"string"},{"indexed":false,"internalType":"uint256","name":"size","type":"uint256"}],"name":"NewPropertyEvent","type":"event"},{"anonymous":false,"inputs":[{"indexed":false,"internalType":"uint256","name":"id","type":"uint256"},{"indexed":false,"internalType":"bool","name":"available","type":"bool"}],"name":"PropertyAvailabilityEvent","type":"event"},{"inputs":[{"internalType":"uint256","name":"","type":"uint256"}],"name":"properties","outputs":[{"internalType":"uint256","name":"price","type":"uint256"},{"internalType":"string","name":"location","type":"string"},{"internalType":"uint256","name":"size","type":"uint256"},{"internalType":"bool","name":"isAvailable","type":"bool"}],"stateMutability":"view","type":"function"},{"inputs":[{"internalType":"uint256","name":"","type":"uint256"}],"name":"propertyList","outputs":[{"internalType":"uint256","name":"price","type":"uint256"},{"internalType":"string","name":"location","type":"string"},{"internalType":"uint256","name":"size","type":"uint256"},{"internalType":"bool","name":"isAvailable","type":"bool"}],"stateMutability":"view","type":"function"},{"inputs":[{"internalType":"uint256","name":"","type":"uint256"}],"name":"purchases","outputs":[{"internalType":"uint256","name":"pid","type":"uint256"},{"internalType":"address","name":"buyer","type":"address"},{"internalType":"address","name":"owner","type":"address"},{"internalType":"uint256","name":"price","type":"uint256"},{"internalType":"uint256","name":"time","type":"uint256"}],"stateMutability":"view","type":"function"},{"inputs":[{"internalType":"uint256","name":"_price","type":"uint256"},{"internalType":"string","name":"_location","type":"string"},{"internalType":"uint256","name":"_size","type":"uint256"}],"name":"addProperty","outputs":[],"stateMutability":"nonpayable","type":"function"},{"inputs":[{"internalType":"uint256","name":"_pid","type":"uint256"}],"name":"buyProperty","outputs":[],"stateMutability":"nonpayable","type":"function"},{"inputs":[{"internalType":"uint256","name":"_pid","type":"uint256"},{"internalType":"bool","name":"_status","type":"bool"}],"name":"setPropertyAvailability","outputs":[],"stateMutability":"nonpayable","type":"function"},{"inputs":[],"name":"getProperties","outputs":[{"components":[{"internalType":"uint256","name":"price","type":"uint256"},{"internalType":"string","name":"location","type":"string"},{"internalType":"uint256","name":"size","type":"uint256"},{"internalType":"bool","name":"isAvailable","type":"bool"}],"internalType":"struct Registry.PropertyInfo[]","name":"","type":"tuple[]"}],"stateMutability":"view","type":"function"},{"inputs":[],"name":"getPurchases","outputs":[{"components":[{"internalType":"uint256","name":"pid","type":"uint256"},{"internalType":"address","name":"buyer","type":"address"},{"internalType":"address","name":"owner","type":"address"},{"internalType":"uint256","name":"price","type":"uint256"},{"internalType":"uint256","name":"time","type":"uint256"}],"internalType":"struct Registry.Purchase[]","name":"","type":"tuple[]"}],"stateMutability":"view","type":"function"}],"bytecode":"0x60806040523480156200001157600080fd5b5060405162001f3938038062001f3983398181016040528101906200003791906200014f565b6200004e6000620000d860201b62000fd11760201c565b81600160006101000a81548173ffffffffffffffffffffffffffffffffffffffff021916908373ffffffffffffffffffffffffffffffffffffffff16021790555080600260006101000a81548173ffffffffffffffffffffffffffffffffffffffff021916908373ffffffffffffffffffffffffffffffffffffffff160217905550505062000196565b6000816000018190555050565b600080fd5b600073ffffffffffffffffffffffffffffffffffffffff82169050919050565b60006200011782620000ea565b9050919050565b62000129816200010a565b81146200013557600080fd5b50565b60008151905062000149816200011e565b92915050565b60008060408385031215620001695762000168620000e5565b5b6000620001798582860162000138565b92505060206200018c8582860162000138565b9150509250929050565b611d9380620001a66000396000f3fe608060405234801561001057600080fd5b50600436106100885760003560e01c8063c47f0f901161005b578063c47f0f901461012c578063ec0cfd0b1461014a578063f7b1080814610168578063fe93ba091461019b57610088565b806351d2a3b21461008d5780636fa830a6146100c05780638392fe31146100dc578063bf4a5a5514610110575b600080fd5b6100a760048036038101906100a291906110ef565b6101b7565b6040516100b794939291906111df565b60405180910390f35b6100da60048036038101906100d591906110ef565b61028c565b005b6100f660048036038101906100f191906110ef565b610881565b60405161010795949392919061126c565b60405180910390f35b61012a600480360381019061012591906112eb565b610907565b005b610134610ac7565b6040516101419190611460565b60405180910390f35b610152610bf0565b60405161015f9190611600565b60405180910390f35b610182600480360381019061017d91906110ef565b610d10565b60405161019294939291906111df565b60405180910390f35b6101b560048036038101906101b09190611757565b610dd5565b005b600481815481106101c757600080fd5b90600052602060002090600402016000915090508060000154908060010180546101f0906117f5565b80601f016020809104026020016040519081016040528092919081815260200182805461021c906117f5565b80156102695780601f1061023e57610100808354040283529160200191610269565b820191906000526020600020905b81548152906001019060200180831161024c57829003601f168201915b5050505050908060020154908060030160009054906101000a900460ff16905084565b6000600160009054906101000a900473ffffffffffffffffffffffffffffffffffffffff1673ffffffffffffffffffffffffffffffffffffffff16636352211e836040518263ffffffff1660e01b81526004016102e99190611827565b60206040518083038186803b15801561030157600080fd5b505afa158015610315573d6000803e3d6000fd5b505050506040513d601f19601f82011682018060405250810190610339919061186e565b90508073ffffffffffffffffffffffffffffffffffffffff163373ffffffffffffffffffffffffffffffffffffffff1614156103aa576040517f08c379a00000000000000000000000000000000000000000000000000000000081526004016103a19061190d565b60405180910390fd5b6003600083815260200190815260200160002060030160009054906101000a900460ff1661040d576040517f08c379a00000000000000000000000000000000000000000000000000000000081526004016104049061199f565b60405180910390fd5b6000600360008481526020019081526020016000206000015490506000600260009054906101000a900473ffffffffffffffffffffffffffffffffffffffff1673ffffffffffffffffffffffffffffffffffffffff166370a08231336040518263ffffffff1660e01b815260040161048591906119bf565b60206040518083038186803b15801561049d57600080fd5b505afa1580156104b1573d6000803e3d6000fd5b505050506040513d601f19601f820116820180604052508101906104d591906119ef565b90508181101561051a576040517f08c379a000000000000000000000000000000000000000000000000000000000815260040161051190611a8e565b60405180910390fd5b6000600260009054906101000a900473ffffffffffffffffffffffffffffffffffffffff1673ffffffffffffffffffffffffffffffffffffffff166323b872dd3386866040518463ffffffff1660e01b815260040161057b93929190611aae565b602060405180830381600087803b15801561059557600080fd5b505af11580156105a9573d6000803e3d6000fd5b505050506040513d601f19601f820116820180604052508101906105cd9190611afa565b90508061060f576040517f08c379a000000000000000000000000000000000000000000000000000000000815260040161060690611b99565b60405180910390fd5b600160009054906101000a900473ffffffffffffffffffffffffffffffffffffffff1673ffffffffffffffffffffffffffffffffffffffff166342842e0e8533886040518463ffffffff1660e01b815260040161066e93929190611aae565b600060405180830381600087803b15801561068857600080fd5b505af115801561069c573d6000803e3d6000fd5b5050505060006003600087815260200190815260200160002060030160006101000a81548160ff0219169083151502179055506000600486815481106106e5576106e4611bb9565b5b906000526020600020906004020160030160006101000a81548160ff02191690831515021790555060006040518060a001604052808781526020013373ffffffffffffffffffffffffffffffffffffffff1681526020018673ffffffffffffffffffffffffffffffffffffffff16815260200185815260200142815250905060058190806001815401808255809150506001900390600052602060002090600502016000909190919091506000820151816000015560208201518160010160006101000a81548173ffffffffffffffffffffffffffffffffffffffff021916908373ffffffffffffffffffffffffffffffffffffffff16021790555060408201518160020160006101000a81548173ffffffffffffffffffffffffffffffffffffffff021916908373ffffffffffffffffffffffffffffffffffffffff160217905550606082015181600301556080820151816004015550507f75decf89a96d485b07819128c69cca58057a61ec52a8ec4b406b16e9e0c701a433878660405161087193929190611be8565b60405180910390a1505050505050565b6005818154811061089157600080fd5b90600052602060002090600502016000915090508060000154908060010160009054906101000a900473ffffffffffffffffffffffffffffffffffffffff16908060020160009054906101000a900473ffffffffffffffffffffffffffffffffffffffff16908060030154908060040154905085565b3373ffffffffffffffffffffffffffffffffffffffff16600160009054906101000a900473ffffffffffffffffffffffffffffffffffffffff1673ffffffffffffffffffffffffffffffffffffffff16636352211e846040518263ffffffff1660e01b81526004016109799190611827565b60206040518083038186803b15801561099157600080fd5b505afa1580156109a5573d6000803e3d6000fd5b505050506040513d601f19601f820116820180604052508101906109c9919061186e565b73ffffffffffffffffffffffffffffffffffffffff1614610a1f576040517f08c379a0000000000000000000000000000000000000000000000000000000008152600401610a1690611c91565b60405180910390fd5b806003600084815260200190815260200160002060030160006101000a81548160ff0219169083151502179055508060048381548110610a6257610a61611bb9565b5b906000526020600020906004020160030160006101000a81548160ff0219169083151502179055507f54ab9fe6e22aa439d1f804de48ebbbacc56ec024fd1b67fabb2b6c06dcbff3148282604051610abb929190611cb1565b60405180910390a15050565b60606005805480602002602001604051908101604052809291908181526020016000905b82821015610be757838290600052602060002090600502016040518060a0016040529081600082015481526020016001820160009054906101000a900473ffffffffffffffffffffffffffffffffffffffff1673ffffffffffffffffffffffffffffffffffffffff1673ffffffffffffffffffffffffffffffffffffffff1681526020016002820160009054906101000a900473ffffffffffffffffffffffffffffffffffffffff1673ffffffffffffffffffffffffffffffffffffffff1673ffffffffffffffffffffffffffffffffffffffff1681526020016003820154815260200160048201548152505081526020019060010190610aeb565b50505050905090565b60606004805480602002602001604051908101604052809291908181526020016000905b82821015610d07578382906000526020600020906004020160405180608001604052908160008201548152602001600182018054610c51906117f5565b80601f0160208091040260200160405190810160405280929190818152602001828054610c7d906117f5565b8015610cca5780601f10610c9f57610100808354040283529160200191610cca565b820191906000526020600020905b815481529060010190602001808311610cad57829003601f168201915b50505050508152602001600282015481526020016003820160009054906101000a900460ff16151515158152505081526020019060010190610c14565b50505050905090565b6003602052806000526040600020600091509050806000015490806001018054610d39906117f5565b80601f0160208091040260200160405190810160405280929190818152602001828054610d65906117f5565b8015610db25780601f10610d8757610100808354040283529160200191610db2565b820191906000526020600020905b815481529060010190602001808311610d9557829003601f168201915b5050505050908060020154908060030160009054906101000a900460ff16905084565b6000610de16000610fde565b9050610ded6000610fec565b600160009054906101000a900473ffffffffffffffffffffffffffffffffffffffff1673ffffffffffffffffffffffffffffffffffffffff166340c10f1933836040518363ffffffff1660e01b8152600401610e4a929190611cda565b600060405180830381600087803b158015610e6457600080fd5b505af1158015610e78573d6000803e3d6000fd5b50505050600060405180608001604052808681526020018581526020018481526020016001151581525090508060036000848152602001908152602001600020600082015181600001556020820151816001019080519060200190610ede929190611002565b506040820151816002015560608201518160030160006101000a81548160ff0219169083151502179055509050506004819080600181540180825580915050600190039060005260206000209060040201600090919091909150600082015181600001556020820151816001019080519060200190610f5e929190611002565b506040820151816002015560608201518160030160006101000a81548160ff02191690831515021790555050507ff53871e57d7ce51bb7ce3839716c51bf6bd180effee4b5e4db40b53cf43f9a488233878787604051610fc2959493929190611d03565b60405180910390a15050505050565b6000816000018190555050565b600081600001549050919050565b6001816000016000828254019250508190555050565b82805461100e906117f5565b90600052602060002090601f0160209004810192826110305760008555611077565b82601f1061104957805160ff1916838001178555611077565b82800160010185558215611077579182015b8281111561107657825182559160200191906001019061105b565b5b5090506110849190611088565b5090565b5b808211156110a1576000816000905550600101611089565b5090565b6000604051905090565b600080fd5b600080fd5b6000819050919050565b6110cc816110b9565b81146110d757600080fd5b50565b6000813590506110e9816110c3565b92915050565b600060208284031215611105576111046110af565b5b6000611113848285016110da565b91505092915050565b611125816110b9565b82525050565b600081519050919050565b600082825260208201905092915050565b60005b8381101561116557808201518184015260208101905061114a565b83811115611174576000848401525b50505050565b6000601f19601f8301169050919050565b60006111968261112b565b6111a08185611136565b93506111b0818560208601611147565b6111b98161117a565b840191505092915050565b60008115159050919050565b6111d9816111c4565b82525050565b60006080820190506111f4600083018761111c565b8181036020830152611206818661118b565b9050611215604083018561111c565b61122260608301846111d0565b95945050505050565b600073ffffffffffffffffffffffffffffffffffffffff82169050919050565b60006112568261122b565b9050919050565b6112668161124b565b82525050565b600060a082019050611281600083018861111c565b61128e602083018761125d565b61129b604083018661125d565b6112a8606083018561111c565b6112b5608083018461111c565b9695505050505050565b6112c8816111c4565b81146112d357600080fd5b50565b6000813590506112e5816112bf565b92915050565b60008060408385031215611302576113016110af565b5b6000611310858286016110da565b9250506020611321858286016112d6565b9150509250929050565b600081519050919050565b600082825260208201905092915050565b6000819050602082019050919050565b611360816110b9565b82525050565b61136f8161124b565b82525050565b60a08201600082015161138b6000850182611357565b50602082015161139e6020850182611366565b5060408201516113b16040850182611366565b5060608201516113c46060850182611357565b5060808201516113d76080850182611357565b50505050565b60006113e98383611375565b60a08301905092915050565b6000602082019050919050565b600061140d8261132b565b6114178185611336565b935061142283611347565b8060005b8381101561145357815161143a88826113dd565b9750611445836113f5565b925050600181019050611426565b5085935050505092915050565b6000602082019050818103600083015261147a8184611402565b905092915050565b600081519050919050565b600082825260208201905092915050565b6000819050602082019050919050565b600082825260208201905092915050565b60006114ca8261112b565b6114d481856114ae565b93506114e4818560208601611147565b6114ed8161117a565b840191505092915050565b611501816111c4565b82525050565b600060808301600083015161151f6000860182611357565b506020830151848203602086015261153782826114bf565b915050604083015161154c6040860182611357565b50606083015161155f60608601826114f8565b508091505092915050565b60006115768383611507565b905092915050565b6000602082019050919050565b600061159682611482565b6115a0818561148d565b9350836020820285016115b28561149e565b8060005b858110156115ee57848403895281516115cf858261156a565b94506115da8361157e565b925060208a019950506001810190506115b6565b50829750879550505050505092915050565b6000602082019050818103600083015261161a818461158b565b905092915050565b600080fd5b600080fd5b7f4e487b7100000000000000000000000000000000000000000000000000000000600052604160045260246000fd5b6116648261117a565b810181811067ffffffffffffffff821117156116835761168261162c565b5b80604052505050565b60006116966110a5565b90506116a2828261165b565b919050565b600067ffffffffffffffff8211156116c2576116c161162c565b5b6116cb8261117a565b9050602081019050919050565b82818337600083830152505050565b60006116fa6116f5846116a7565b61168c565b90508281526020810184848401111561171657611715611627565b5b6117218482856116d8565b509392505050565b600082601f83011261173e5761173d611622565b5b813561174e8482602086016116e7565b91505092915050565b6000806000606084860312156117705761176f6110af565b5b600061177e868287016110da565b935050602084013567ffffffffffffffff81111561179f5761179e6110b4565b5b6117ab86828701611729565b92505060406117bc868287016110da565b9150509250925092565b7f4e487b7100000000000000000000000000000000000000000000000000000000600052602260045260246000fd5b6000600282049050600182168061180d57607f821691505b60208210811415611821576118206117c6565b5b50919050565b600060208201905061183c600083018461111c565b92915050565b61184b8161124b565b811461185657600080fd5b50565b60008151905061186881611842565b92915050565b600060208284031215611884576118836110af565b5b600061189284828501611859565b91505092915050565b7f50726f7065727479206f776e65722063616e6e6f74206275792074686569722060008201527f6f776e2070726f70657274792e00000000000000000000000000000000000000602082015250565b60006118f7602d83611136565b91506119028261189b565b604082019050919050565b60006020820190508181036000830152611926816118ea565b9050919050565b7f43757272656e746c7920746869732070726f7065727479206973206e6f74206160008201527f7661696c61626c652e0000000000000000000000000000000000000000000000602082015250565b6000611989602983611136565b91506119948261192d565b604082019050919050565b600060208201905081810360008301526119b88161197c565b9050919050565b60006020820190506119d4600083018461125d565b92915050565b6000815190506119e9816110c3565b92915050565b600060208284031215611a0557611a046110af565b5b6000611a13848285016119da565b91505092915050565b7f5573657220646f6573206e6f7420686176652073756666696369656e7420415760008201527f5420746f6b656e732e0000000000000000000000000000000000000000000000602082015250565b6000611a78602983611136565b9150611a8382611a1c565b604082019050919050565b60006020820190508181036000830152611aa781611a6b565b9050919050565b6000606082019050611ac3600083018661125d565b611ad0602083018561125d565b611add604083018461111c565b949350505050565b600081519050611af4816112bf565b92915050565b600060208284031215611b1057611b0f6110af565b5b6000611b1e84828501611ae5565b91505092915050565b7f4661696c656420746f207472616e7366657220746f6b656e20746f207573657260008201527f2e00000000000000000000000000000000000000000000000000000000000000602082015250565b6000611b83602183611136565b9150611b8e82611b27565b604082019050919050565b60006020820190508181036000830152611bb281611b76565b9050919050565b7f4e487b7100000000000000000000000000000000000000000000000000000000600052603260045260246000fd5b6000606082019050611bfd600083018661125d565b611c0a602083018561111c565b611c17604083018461111c565b949350505050565b7f4f6e6c79206f776e6572206f66207468652070726f70657274792063616e207560008201527f70646174652074686520617661696c6162696c69747920737461747573000000602082015250565b6000611c7b603d83611136565b9150611c8682611c1f565b604082019050919050565b60006020820190508181036000830152611caa81611c6e565b9050919050565b6000604082019050611cc6600083018561111c565b611cd360208301846111d0565b9392505050565b6000604082019050611cef600083018561125d565b611cfc602083018461111c565b9392505050565b600060a082019050611d18600083018861111c565b611d25602083018761125d565b611d32604083018661111c565b8181036060830152611d44818561118b565b9050611d53608083018461111c565b969550505050505056fea2646970667358221220c6301f006ef92733edc27e579c84de04e42bca9eef94c22121e591f44c75004364736f6c63430008090033","immutableReferences":{},"source":"// SPDX-License-Identifier: MIT\r\n\r\npragma solidity ^0.8.9;\r\n\r\nimport \"@openzeppelin/contracts/utils/Counters.sol\";\r\nimport \"./Property.sol\";\r\nimport \"./Token.sol\";\r\n\r\ncontract Registry {\r\n\r\n    using Counters for Counters.Counter;\r\n\r\n    Counters.Counter nProperties;\r\n    Property property;              // refers to our property NFT\r\n    Token token;                    // refers to our custom AWT ERC20 token\r\n    mapping(uint256 => PropertyInfo) public properties;\r\n    PropertyInfo[] public propertyList;\r\n    Purchase[] public purchases;\r\n\r\n    struct PropertyInfo {\r\n        uint256 price;              // price in AWT\r\n        string location;\r\n        uint256 size;               // in squarefeet\r\n        bool isAvailable;\r\n    }\r\n\r\n    struct Purchase {\r\n        uint256 pid;\r\n        address buyer;\r\n        address owner;\r\n        uint256 price;\r\n        uint256 time;\r\n    }\r\n\r\n    // events\r\n    event NewPropertyEvent(uint256 id, address owner, uint256 price, string location, uint256 size);\r\n    event BuyProperty(address buyer, uint256 pid, uint256 price);\r\n    event PropertyAvailabilityEvent(uint256 id, bool available);\r\n\r\n    constructor(address _propertyContract, address _tokenAddress) {\r\n        nProperties.reset();\r\n        property = Property(_propertyContract);\r\n        token = Token(_tokenAddress);\r\n    }\r\n\r\n    function addProperty(uint256 _price, string memory _location, uint256 _size) public {\r\n        uint256 pid = nProperties.current();\r\n        nProperties.increment();\r\n        property.mint(msg.sender, pid);     // minting property non-fungible token\r\n\r\n        PropertyInfo memory prop = PropertyInfo(_price, _location, _size, true);\r\n        properties[pid] = prop;\r\n        propertyList.push(prop);            // pushing to an array so that we can fetch the array of properties\r\n\r\n        emit NewPropertyEvent(pid, msg.sender, _price, _location, _size);\r\n    }\r\n\r\n    function buyProperty(uint256 _pid) public {\r\n        address propertyOwner = property.ownerOf(_pid);\r\n        require(msg.sender != propertyOwner, \"Property owner cannot buy their own property.\");\r\n        require(properties[_pid].isAvailable, \"Currently this property is not available.\");\r\n\r\n        uint256 propertyPrice = properties[_pid].price;\r\n\r\n        // this following codes is for transferring ETH\r\n        // require(msg.value == propertyPrice, \"Not sufficient fund.\");   // checking if buyer is sending exact price amount or not\r\n        // (bool success, ) = address(propertyOwner).call{ value: msg.value }(\"\");\r\n        // require(success, \"Failed to send money to the owner.\");\r\n\r\n        // this following codes is for transferring AWT\r\n        uint256 userBalance = token.balanceOf(msg.sender);\r\n        require(userBalance >= propertyPrice, \"User does not have sufficient AWT tokens.\");\r\n        (bool success) = token.transferFrom(msg.sender, propertyOwner, propertyPrice);          // transferring AWT from buyer account to property owner account\r\n        require(success, \"Failed to transfer token to user.\");\r\n\r\n        property.safeTransferFrom(propertyOwner, msg.sender, _pid);   // transferring the property token to the buyer\r\n        properties[_pid].isAvailable = false;   // only after succsfull transaction setting the property is not available\r\n        propertyList[_pid].isAvailable = false;\r\n\r\n        Purchase memory purchase = Purchase(_pid, msg.sender, propertyOwner, propertyPrice, block.timestamp);\r\n        purchases.push(purchase);   // pushing to the purchase array\r\n\r\n        emit BuyProperty(msg.sender, _pid, propertyPrice);\r\n    }\r\n\r\n    function setPropertyAvailability(uint256 _pid, bool _status) public {\r\n        require(property.ownerOf(_pid) == msg.sender, \"Only owner of the property can update the availability status\");\r\n        properties[_pid].isAvailable = _status;\r\n        propertyList[_pid].isAvailable = _status;\r\n        emit PropertyAvailabilityEvent(_pid, _status);\r\n    }\r\n\r\n    function getProperties() public view returns(PropertyInfo[] memory) {\r\n        return propertyList;\r\n    }\r\n\r\n    function getPurchases() public view returns(Purchase[] memory) {\r\n        return purchases;\r\n    }\r\n}\r\n","sourcePath":"G:\\blockchain\\projects\\property_dapp\\property-dapp\\ethereum\\contracts\\Registry.sol","compiler":{"name":"solc","version":"0.8.9+commit.e5eed63a.Emscripten.clang"},"schemaVersion":"3.4.10","updatedAt":"2022-10-15T15:45:50.948Z","networkType":"ethereum","devdoc":{"kind":"dev","methods":{},"version":1},"userdoc":{"kind":"user","methods":{},"version":1}}