{"contractName":"Token","abi":[{"inputs":[],"stateMutability":"nonpayable","type":"constructor"},{"anonymous":false,"inputs":[{"indexed":true,"internalType":"address","name":"_owner","type":"address"},{"indexed":true,"internalType":"address","name":"_spender","type":"address"},{"indexed":false,"internalType":"uint256","name":"_value","type":"uint256"}],"name":"Approval","type":"event"},{"anonymous":false,"inputs":[{"indexed":true,"internalType":"address","name":"_from","type":"address"},{"indexed":true,"internalType":"address","name":"_to","type":"address"}],"name":"OwnershipTransferred","type":"event"},{"anonymous":false,"inputs":[{"indexed":true,"internalType":"address","name":"_from","type":"address"},{"indexed":true,"internalType":"address","name":"_to","type":"address"},{"indexed":false,"internalType":"uint256","name":"_value","type":"uint256"}],"name":"Transfer","type":"event"},{"inputs":[],"name":"_decimal","outputs":[{"internalType":"uint8","name":"","type":"uint8"}],"stateMutability":"view","type":"function","constant":true},{"inputs":[],"name":"_minter","outputs":[{"internalType":"address","name":"","type":"address"}],"stateMutability":"view","type":"function","constant":true},{"inputs":[],"name":"_name","outputs":[{"internalType":"string","name":"","type":"string"}],"stateMutability":"view","type":"function","constant":true},{"inputs":[],"name":"_symbol","outputs":[{"internalType":"string","name":"","type":"string"}],"stateMutability":"view","type":"function","constant":true},{"inputs":[],"name":"_totalSupply","outputs":[{"internalType":"uint256","name":"","type":"uint256"}],"stateMutability":"view","type":"function","constant":true},{"inputs":[],"name":"acceptOwnership","outputs":[],"stateMutability":"nonpayable","type":"function"},{"inputs":[{"internalType":"address","name":"","type":"address"}],"name":"balances","outputs":[{"internalType":"uint256","name":"","type":"uint256"}],"stateMutability":"view","type":"function","constant":true},{"inputs":[],"name":"newOwner","outputs":[{"internalType":"address","name":"","type":"address"}],"stateMutability":"view","type":"function","constant":true},{"inputs":[],"name":"owner","outputs":[{"internalType":"address","name":"","type":"address"}],"stateMutability":"view","type":"function","constant":true},{"inputs":[{"internalType":"address","name":"_to","type":"address"}],"name":"transferOwnership","outputs":[],"stateMutability":"nonpayable","type":"function"},{"inputs":[],"name":"name","outputs":[{"internalType":"string","name":"","type":"string"}],"stateMutability":"view","type":"function","constant":true},{"inputs":[],"name":"symbol","outputs":[{"internalType":"string","name":"","type":"string"}],"stateMutability":"view","type":"function","constant":true},{"inputs":[],"name":"decimals","outputs":[{"internalType":"uint8","name":"","type":"uint8"}],"stateMutability":"view","type":"function","constant":true},{"inputs":[],"name":"totalSupply","outputs":[{"internalType":"uint256","name":"","type":"uint256"}],"stateMutability":"view","type":"function","constant":true},{"inputs":[{"internalType":"address","name":"_owner","type":"address"}],"name":"balanceOf","outputs":[{"internalType":"uint256","name":"balance","type":"uint256"}],"stateMutability":"view","type":"function","constant":true},{"inputs":[{"internalType":"address","name":"_from","type":"address"},{"internalType":"address","name":"_to","type":"address"},{"internalType":"uint256","name":"_value","type":"uint256"}],"name":"transferFrom","outputs":[{"internalType":"bool","name":"success","type":"bool"}],"stateMutability":"nonpayable","type":"function"},{"inputs":[{"internalType":"address","name":"_to","type":"address"},{"internalType":"uint256","name":"_value","type":"uint256"}],"name":"transfer","outputs":[{"internalType":"bool","name":"success","type":"bool"}],"stateMutability":"nonpayable","type":"function"},{"inputs":[{"internalType":"uint256","name":"_amount","type":"uint256"}],"name":"mint","outputs":[{"internalType":"bool","name":"","type":"bool"}],"stateMutability":"nonpayable","type":"function"},{"inputs":[{"internalType":"address","name":"_target","type":"address"},{"internalType":"uint256","name":"_amount","type":"uint256"}],"name":"confiscate","outputs":[{"internalType":"bool","name":"","type":"bool"}],"stateMutability":"nonpayable","type":"function"}],"bytecode":"0x60806040523480156200001157600080fd5b50336000806101000a81548173ffffffffffffffffffffffffffffffffffffffff021916908373ffffffffffffffffffffffffffffffffffffffff1602179055506040518060400160405280600d81526020017f417765736f6d6520546f6b656e00000000000000000000000000000000000000815250600290805190602001906200009f9291906200024e565b506040518060400160405280600381526020017f415754000000000000000000000000000000000000000000000000000000000081525060039080519060200190620000ed9291906200024e565b506000600460006101000a81548160ff021916908360ff1602179055506103e860058190555033600660006101000a81548173ffffffffffffffffffffffffffffffffffffffff021916908373ffffffffffffffffffffffffffffffffffffffff16021790555060055460076000600660009054906101000a900473ffffffffffffffffffffffffffffffffffffffff1673ffffffffffffffffffffffffffffffffffffffff1673ffffffffffffffffffffffffffffffffffffffff16815260200190815260200160002081905550600660009054906101000a900473ffffffffffffffffffffffffffffffffffffffff1673ffffffffffffffffffffffffffffffffffffffff16600073ffffffffffffffffffffffffffffffffffffffff167fddf252ad1be2c89b69c2b068fc378daa952ba7f163c4a11628f55a4df523b3ef60055460405162000240919062000319565b60405180910390a36200039b565b8280546200025c9062000365565b90600052602060002090601f016020900481019282620002805760008555620002cc565b82601f106200029b57805160ff1916838001178555620002cc565b82800160010185558215620002cc579182015b82811115620002cb578251825591602001919060010190620002ae565b5b509050620002db9190620002df565b5090565b5b80821115620002fa576000816000905550600101620002e0565b5090565b6000819050919050565b6200031381620002fe565b82525050565b600060208201905062000330600083018462000308565b92915050565b7f4e487b7100000000000000000000000000000000000000000000000000000000600052602260045260246000fd5b600060028204905060018216806200037e57607f821691505b6020821081141562000395576200039462000336565b5b50919050565b6114e880620003ab6000396000f3fe608060405234801561001057600080fd5b50600436106101215760003560e01c806370a08231116100ad578063a9059cbb11610071578063a9059cbb14610310578063b09f126614610340578063d28d88521461035e578063d4ee1d901461037c578063f2fde38b1461039a57610121565b806370a082311461026a57806379ba50971461029a5780638da5cb5b146102a457806395d89b41146102c2578063a0712d68146102e057610121565b80632f0e3120116100f45780632f0e3120146101c2578063313ce567146101e05780633eaaf86b146101fe57806347298f821461021c578063578ec33f1461024c57610121565b806306fdde031461012657806318160ddd1461014457806323b872dd1461016257806327e235e314610192575b600080fd5b61012e6103b6565b60405161013b9190610f13565b60405180910390f35b61014c610448565b6040516101599190610f4e565b60405180910390f35b61017c60048036038101906101779190610ff8565b610452565b6040516101899190611066565b60405180910390f35b6101ac60048036038101906101a79190611081565b6105f2565b6040516101b99190610f4e565b60405180910390f35b6101ca61060a565b6040516101d791906110ca565b60405180910390f35b6101e861061d565b6040516101f591906110ca565b60405180910390f35b610206610634565b6040516102139190610f4e565b60405180910390f35b610236600480360381019061023191906110e5565b61063a565b6040516102439190611066565b60405180910390f35b61025461082e565b6040516102619190611134565b60405180910390f35b610284600480360381019061027f9190611081565b610854565b6040516102919190610f4e565b60405180910390f35b6102a261089d565b005b6102ac610a6f565b6040516102b99190611134565b60405180910390f35b6102ca610a93565b6040516102d79190610f13565b60405180910390f35b6102fa60048036038101906102f5919061114f565b610b25565b6040516103079190611066565b60405180910390f35b61032a600480360381019061032591906110e5565b610c51565b6040516103379190611066565b60405180910390f35b610348610c66565b6040516103559190610f13565b60405180910390f35b610366610cf4565b6040516103739190610f13565b60405180910390f35b610384610d82565b6040516103919190611134565b60405180910390f35b6103b460048036038101906103af9190611081565b610da8565b005b6060600280546103c5906111ab565b80601f01602080910402602001604051908101604052809291908181526020018280546103f1906111ab565b801561043e5780601f106104135761010080835404028352916020019161043e565b820191906000526020600020905b81548152906001019060200180831161042157829003601f168201915b5050505050905090565b6000600554905090565b600081600760008673ffffffffffffffffffffffffffffffffffffffff1673ffffffffffffffffffffffffffffffffffffffff1681526020019081526020016000205410156104d6576040517f08c379a00000000000000000000000000000000000000000000000000000000081526004016104cd90611229565b60405180910390fd5b81600760008673ffffffffffffffffffffffffffffffffffffffff1673ffffffffffffffffffffffffffffffffffffffff16815260200190815260200160002060008282546105259190611278565b9250508190555081600760008573ffffffffffffffffffffffffffffffffffffffff1673ffffffffffffffffffffffffffffffffffffffff168152602001908152602001600020600082825461057b91906112ac565b925050819055508273ffffffffffffffffffffffffffffffffffffffff168473ffffffffffffffffffffffffffffffffffffffff167fddf252ad1be2c89b69c2b068fc378daa952ba7f163c4a11628f55a4df523b3ef846040516105df9190610f4e565b60405180910390a3600190509392505050565b60076020528060005260406000206000915090505481565b600460009054906101000a900460ff1681565b6000600460009054906101000a900460ff16905090565b60055481565b6000600660009054906101000a900473ffffffffffffffffffffffffffffffffffffffff1673ffffffffffffffffffffffffffffffffffffffff163373ffffffffffffffffffffffffffffffffffffffff16146106cc576040517f08c379a00000000000000000000000000000000000000000000000000000000081526004016106c39061134e565b60405180910390fd5b81600760008573ffffffffffffffffffffffffffffffffffffffff1673ffffffffffffffffffffffffffffffffffffffff16815260200190815260200160002054106107865781600760008573ffffffffffffffffffffffffffffffffffffffff1673ffffffffffffffffffffffffffffffffffffffff16815260200190815260200160002060008282546107619190611278565b92505081905550816005600082825461077a9190611278565b92505081905550610824565b600760008473ffffffffffffffffffffffffffffffffffffffff1673ffffffffffffffffffffffffffffffffffffffff16815260200190815260200160002054600560008282546107d79190611278565b925050819055506000600760008573ffffffffffffffffffffffffffffffffffffffff1673ffffffffffffffffffffffffffffffffffffffff168152602001908152602001600020819055505b6001905092915050565b600660009054906101000a900473ffffffffffffffffffffffffffffffffffffffff1681565b6000600760008373ffffffffffffffffffffffffffffffffffffffff1673ffffffffffffffffffffffffffffffffffffffff168152602001908152602001600020549050919050565b600160009054906101000a900473ffffffffffffffffffffffffffffffffffffffff1673ffffffffffffffffffffffffffffffffffffffff163373ffffffffffffffffffffffffffffffffffffffff161461092d576040517f08c379a0000000000000000000000000000000000000000000000000000000008152600401610924906113ba565b60405180910390fd5b600160009054906101000a900473ffffffffffffffffffffffffffffffffffffffff1673ffffffffffffffffffffffffffffffffffffffff1660008054906101000a900473ffffffffffffffffffffffffffffffffffffffff1673ffffffffffffffffffffffffffffffffffffffff167f8be0079c531659141344cd1fd0a4f28419497f9722a3daafe3b4186f6b6457e060405160405180910390a3600160009054906101000a900473ffffffffffffffffffffffffffffffffffffffff166000806101000a81548173ffffffffffffffffffffffffffffffffffffffff021916908373ffffffffffffffffffffffffffffffffffffffff1602179055506000600160006101000a81548173ffffffffffffffffffffffffffffffffffffffff021916908373ffffffffffffffffffffffffffffffffffffffff160217905550565b60008054906101000a900473ffffffffffffffffffffffffffffffffffffffff1681565b606060038054610aa2906111ab565b80601f0160208091040260200160405190810160405280929190818152602001828054610ace906111ab565b8015610b1b5780601f10610af057610100808354040283529160200191610b1b565b820191906000526020600020905b815481529060010190602001808311610afe57829003601f168201915b5050505050905090565b6000600660009054906101000a900473ffffffffffffffffffffffffffffffffffffffff1673ffffffffffffffffffffffffffffffffffffffff163373ffffffffffffffffffffffffffffffffffffffff1614610bb7576040517f08c379a0000000000000000000000000000000000000000000000000000000008152600401610bae90611426565b60405180910390fd5b8160076000600660009054906101000a900473ffffffffffffffffffffffffffffffffffffffff1673ffffffffffffffffffffffffffffffffffffffff1673ffffffffffffffffffffffffffffffffffffffff1681526020019081526020016000206000828254610c2891906112ac565b925050819055508160056000828254610c4191906112ac565b9250508190555060019050919050565b6000610c5e338484610452565b905092915050565b60038054610c73906111ab565b80601f0160208091040260200160405190810160405280929190818152602001828054610c9f906111ab565b8015610cec5780601f10610cc157610100808354040283529160200191610cec565b820191906000526020600020905b815481529060010190602001808311610ccf57829003601f168201915b505050505081565b60028054610d01906111ab565b80601f0160208091040260200160405190810160405280929190818152602001828054610d2d906111ab565b8015610d7a5780601f10610d4f57610100808354040283529160200191610d7a565b820191906000526020600020905b815481529060010190602001808311610d5d57829003601f168201915b505050505081565b600160009054906101000a900473ffffffffffffffffffffffffffffffffffffffff1681565b60008054906101000a900473ffffffffffffffffffffffffffffffffffffffff1673ffffffffffffffffffffffffffffffffffffffff163373ffffffffffffffffffffffffffffffffffffffff1614610e36576040517f08c379a0000000000000000000000000000000000000000000000000000000008152600401610e2d90611492565b60405180910390fd5b80600160006101000a81548173ffffffffffffffffffffffffffffffffffffffff021916908373ffffffffffffffffffffffffffffffffffffffff16021790555050565b600081519050919050565b600082825260208201905092915050565b60005b83811015610eb4578082015181840152602081019050610e99565b83811115610ec3576000848401525b50505050565b6000601f19601f8301169050919050565b6000610ee582610e7a565b610eef8185610e85565b9350610eff818560208601610e96565b610f0881610ec9565b840191505092915050565b60006020820190508181036000830152610f2d8184610eda565b905092915050565b6000819050919050565b610f4881610f35565b82525050565b6000602082019050610f636000830184610f3f565b92915050565b600080fd5b600073ffffffffffffffffffffffffffffffffffffffff82169050919050565b6000610f9982610f6e565b9050919050565b610fa981610f8e565b8114610fb457600080fd5b50565b600081359050610fc681610fa0565b92915050565b610fd581610f35565b8114610fe057600080fd5b50565b600081359050610ff281610fcc565b92915050565b60008060006060848603121561101157611010610f69565b5b600061101f86828701610fb7565b935050602061103086828701610fb7565b925050604061104186828701610fe3565b9150509250925092565b60008115159050919050565b6110608161104b565b82525050565b600060208201905061107b6000830184611057565b92915050565b60006020828403121561109757611096610f69565b5b60006110a584828501610fb7565b91505092915050565b600060ff82169050919050565b6110c4816110ae565b82525050565b60006020820190506110df60008301846110bb565b92915050565b600080604083850312156110fc576110fb610f69565b5b600061110a85828601610fb7565b925050602061111b85828601610fe3565b9150509250929050565b61112e81610f8e565b82525050565b60006020820190506111496000830184611125565b92915050565b60006020828403121561116557611164610f69565b5b600061117384828501610fe3565b91505092915050565b7f4e487b7100000000000000000000000000000000000000000000000000000000600052602260045260246000fd5b600060028204905060018216806111c357607f821691505b602082108114156111d7576111d661117c565b5b50919050565b7f4e6f7420656e6f7567682066756e640000000000000000000000000000000000600082015250565b6000611213600f83610e85565b915061121e826111dd565b602082019050919050565b6000602082019050818103600083015261124281611206565b9050919050565b7f4e487b7100000000000000000000000000000000000000000000000000000000600052601160045260246000fd5b600061128382610f35565b915061128e83610f35565b9250828210156112a1576112a0611249565b5b828203905092915050565b60006112b782610f35565b91506112c283610f35565b9250827fffffffffffffffffffffffffffffffffffffffffffffffffffffffffffffffff038211156112f7576112f6611249565b5b828201905092915050565b7f4f6e6c79206d696e7465722063616e20636f6e666973636174652e0000000000600082015250565b6000611338601b83610e85565b915061134382611302565b602082019050919050565b600060208201905081810360008301526113678161132b565b9050919050565b7f4f6e6c79206e6577206f776e65722063616e2061636365707400000000000000600082015250565b60006113a4601983610e85565b91506113af8261136e565b602082019050919050565b600060208201905081810360008301526113d381611397565b9050919050565b7f4f6e6c79206d696e7465722063616e206d696e742e0000000000000000000000600082015250565b6000611410601583610e85565b915061141b826113da565b602082019050919050565b6000602082019050818103600083015261143f81611403565b9050919050565b7f4f6e6c792063757272656e74206f776e65722063616e207472616e7366657200600082015250565b600061147c601f83610e85565b915061148782611446565b602082019050919050565b600060208201905081810360008301526114ab8161146f565b905091905056fea264697066735822122068c5799a7bf5295f3c637ae0a3db6b2e514722ec999f451578908d634b667f6b64736f6c63430008090033","immutableReferences":{},"source":"// SPDX-License-Identifier: MIT\r\n\r\npragma solidity ^0.8.9;\r\n\r\nabstract contract ERC20Token {\r\n    function name() public virtual view returns (string memory);\r\n    function symbol() public virtual view returns (string memory);\r\n    function decimals() public virtual view returns (uint8);\r\n    function totalSupply() public virtual view returns (uint256);\r\n    function balanceOf(address _owner) public virtual view returns (uint256 balance);\r\n    function transfer(address _to, uint256 _value) public virtual returns (bool success);\r\n    function transferFrom(address _from, address _to, uint256 _value) public virtual returns (bool success);\r\n    // function approve(address _spender, uint256 _value) public virtual returns (bool success);\r\n    // function allowance(address _owner, address _spender) public virtual view returns (uint256 remaining);\r\n\r\n    event Transfer(address indexed _from, address indexed _to, uint256 _value);\r\n    event Approval(address indexed _owner, address indexed _spender, uint256 _value);\r\n}\r\n\r\ncontract Owned {\r\n    address public owner;\r\n    address public newOwner;\r\n\r\n    event OwnershipTransferred(address indexed _from, address indexed _to);\r\n\r\n    constructor() {\r\n        owner = msg.sender;\r\n    }\r\n\r\n    function transferOwnership(address _to) public {\r\n        require(msg.sender == owner, \"Only current owner can transfer\");\r\n        newOwner = _to;\r\n    }\r\n\r\n    function acceptOwnership() public {\r\n        require(msg.sender == newOwner, \"Only new owner can accept\");\r\n        emit OwnershipTransferred(owner, newOwner);\r\n        owner = newOwner;\r\n        newOwner = address(0);\r\n    }\r\n}\r\n\r\n// Our own custom ERC20 token (AWT)\r\n\r\ncontract Token is ERC20Token, Owned {\r\n\r\n    string public _name;\r\n    string public _symbol;\r\n    uint8 public _decimal;\r\n    uint256 public _totalSupply;\r\n    address public _minter;\r\n\r\n    mapping(address => uint256) public balances;\r\n\r\n    constructor() {\r\n        _name = \"Awesome Token\";\r\n        _symbol = \"AWT\";\r\n        _decimal = 0;\r\n        _totalSupply = 1000;\r\n        _minter = msg.sender;\r\n        balances[_minter] = _totalSupply;\r\n        emit Transfer(address(0), _minter, _totalSupply);\r\n    }\r\n\r\n    function name() public override view returns (string memory) {\r\n        return _name;\r\n    }\r\n\r\n    function symbol() public override view returns (string memory) {\r\n        return _symbol;\r\n    }\r\n\r\n    function decimals() public override view returns (uint8) {\r\n        return _decimal;\r\n    }\r\n\r\n    function totalSupply() public override view returns (uint256) {\r\n        return _totalSupply;\r\n    }\r\n\r\n    function balanceOf(address _owner) public override view returns (uint256 balance) {\r\n        return balances[_owner];\r\n    }\r\n\r\n    function transferFrom(address _from, address _to, uint256 _value) public override returns (bool success) {\r\n        require(balances[_from] >= _value, \"Not enough fund\");\r\n        balances[_from] -= _value;\r\n        balances[_to] += _value;\r\n        emit Transfer(_from, _to, _value);\r\n        return true;\r\n    }\r\n\r\n    function transfer(address _to, uint256 _value) public override returns (bool success) {\r\n        return transferFrom(msg.sender, _to, _value);\r\n    }\r\n\r\n    // function approve(address _spender, uint256 _value) public override pure returns (bool success) {\r\n    //     return true;\r\n    // }\r\n\r\n    // function allowance(address _owner, address _spender) public override pure returns (uint256 remaining) {\r\n    //     return 0;\r\n    // }\r\n\r\n    function mint(uint256 _amount) public returns(bool) {\r\n        require(msg.sender == _minter, \"Only minter can mint.\");\r\n        balances[_minter] += _amount;\r\n        _totalSupply += _amount;\r\n        return true;\r\n    }\r\n\r\n    function confiscate(address _target, uint256 _amount) public returns(bool) {\r\n        require(msg.sender == _minter, \"Only minter can confiscate.\");\r\n        if (balances[_target] >= _amount) {\r\n            balances[_target] -= _amount;\r\n            _totalSupply -= _amount;\r\n        } else {\r\n            _totalSupply -= balances[_target];\r\n            balances[_target] = 0;\r\n        }\r\n        return true;\r\n    }\r\n}\r\n","sourcePath":"G:\\blockchain\\projects\\property_dapp\\ethereum\\contracts\\Token.sol","compiler":{"name":"solc","version":"0.8.9+commit.e5eed63a.Emscripten.clang"},"schemaVersion":"3.4.10","updatedAt":"2022-10-07T08:36:40.247Z","networkType":"ethereum","devdoc":{"kind":"dev","methods":{},"version":1},"userdoc":{"kind":"user","methods":{},"version":1}}