{"contractName":"Vendor","abi":[{"inputs":[{"internalType":"address","name":"_tokenAddress","type":"address"}],"stateMutability":"nonpayable","type":"constructor"},{"anonymous":false,"inputs":[{"indexed":false,"internalType":"address","name":"buyer","type":"address"},{"indexed":false,"internalType":"uint256","name":"amountOfETH","type":"uint256"},{"indexed":false,"internalType":"uint256","name":"amountOfTokens","type":"uint256"}],"name":"BuyTokens","type":"event"},{"anonymous":false,"inputs":[{"indexed":true,"internalType":"address","name":"previousOwner","type":"address"},{"indexed":true,"internalType":"address","name":"newOwner","type":"address"}],"name":"OwnershipTransferred","type":"event"},{"inputs":[],"name":"owner","outputs":[{"internalType":"address","name":"","type":"address"}],"stateMutability":"view","type":"function","constant":true},{"inputs":[{"internalType":"uint256","name":"","type":"uint256"}],"name":"purchases","outputs":[{"internalType":"string","name":"purchaseType","type":"string"},{"internalType":"address","name":"from","type":"address"},{"internalType":"address","name":"buyer","type":"address"},{"internalType":"uint256","name":"amount","type":"uint256"},{"internalType":"uint256","name":"time","type":"uint256"}],"stateMutability":"view","type":"function","constant":true},{"inputs":[],"name":"renounceOwnership","outputs":[],"stateMutability":"nonpayable","type":"function"},{"inputs":[],"name":"tokenPerEther","outputs":[{"internalType":"uint256","name":"","type":"uint256"}],"stateMutability":"view","type":"function","constant":true},{"inputs":[{"internalType":"address","name":"newOwner","type":"address"}],"name":"transferOwnership","outputs":[],"stateMutability":"nonpayable","type":"function"},{"inputs":[],"name":"buyToken","outputs":[],"stateMutability":"payable","type":"function","payable":true},{"inputs":[{"internalType":"uint256","name":"_amountToSell","type":"uint256"}],"name":"sellToken","outputs":[],"stateMutability":"nonpayable","type":"function"},{"inputs":[],"name":"withdraw","outputs":[],"stateMutability":"nonpayable","type":"function"},{"inputs":[],"name":"getSummary","outputs":[{"internalType":"string","name":"","type":"string"},{"internalType":"string","name":"","type":"string"},{"internalType":"uint8","name":"","type":"uint8"},{"internalType":"uint256","name":"","type":"uint256"},{"internalType":"address","name":"","type":"address"},{"internalType":"uint256","name":"","type":"uint256"},{"internalType":"uint256","name":"","type":"uint256"}],"stateMutability":"view","type":"function","constant":true},{"inputs":[],"name":"getPurchases","outputs":[{"components":[{"internalType":"string","name":"purchaseType","type":"string"},{"internalType":"address","name":"from","type":"address"},{"internalType":"address","name":"buyer","type":"address"},{"internalType":"uint256","name":"amount","type":"uint256"},{"internalType":"uint256","name":"time","type":"uint256"}],"internalType":"struct Vendor.Purchase[]","name":"","type":"tuple[]"}],"stateMutability":"view","type":"function","constant":true}],"bytecode":"0x608060405260646002553480156200001657600080fd5b506040516200291d3803806200291d83398181016040528101906200003c91906200024d565b6200005c620000506200011760201b60201c565b6200011f60201b60201c565b600073ffffffffffffffffffffffffffffffffffffffff168173ffffffffffffffffffffffffffffffffffffffff161415620000cf576040517f08c379a0000000000000000000000000000000000000000000000000000000008152600401620000c69062000306565b60405180910390fd5b80600160006101000a81548173ffffffffffffffffffffffffffffffffffffffff021916908373ffffffffffffffffffffffffffffffffffffffff1602179055505062000328565b600033905090565b60008060009054906101000a900473ffffffffffffffffffffffffffffffffffffffff169050816000806101000a81548173ffffffffffffffffffffffffffffffffffffffff021916908373ffffffffffffffffffffffffffffffffffffffff1602179055508173ffffffffffffffffffffffffffffffffffffffff168173ffffffffffffffffffffffffffffffffffffffff167f8be0079c531659141344cd1fd0a4f28419497f9722a3daafe3b4186f6b6457e060405160405180910390a35050565b600080fd5b600073ffffffffffffffffffffffffffffffffffffffff82169050919050565b60006200021582620001e8565b9050919050565b620002278162000208565b81146200023357600080fd5b50565b60008151905062000247816200021c565b92915050565b600060208284031215620002665762000265620001e3565b5b6000620002768482850162000236565b91505092915050565b600082825260208201905092915050565b7f537065636966792070726f7065722041575420746f6b656e20636f6e7472616360008201527f7420616464726573732e00000000000000000000000000000000000000000000602082015250565b6000620002ee602a836200027f565b9150620002fb8262000290565b604082019050919050565b600060208201905081810360008301526200032181620002df565b9050919050565b6125e580620003386000396000f3fe6080604052600436106100915760003560e01c80638392fe31116100595780638392fe31146101495780638da5cb5b1461018a578063a4821719146101b5578063c47f0f90146101bf578063f2fde38b146101ea57610091565b80632397e4d7146100965780632f77dba4146100bf5780633ccfd60b146100ea5780634051ddac14610101578063715018a614610132575b600080fd5b3480156100a257600080fd5b506100bd60048036038101906100b8919061163d565b610213565b005b3480156100cb57600080fd5b506100d46106d7565b6040516100e19190611679565b60405180910390f35b3480156100f657600080fd5b506100ff6106dd565b005b34801561010d57600080fd5b506101166107dd565b604051610129979695949392919061178a565b60405180910390f35b34801561013e57600080fd5b50610147610c7f565b005b34801561015557600080fd5b50610170600480360381019061016b919061163d565b610c93565b604051610181959493929190611807565b60405180910390f35b34801561019657600080fd5b5061019f610da1565b6040516101ac9190611861565b60405180910390f35b6101bd610dca565b005b3480156101cb57600080fd5b506101d46111d1565b6040516101e19190611a1c565b60405180910390f35b3480156101f657600080fd5b50610211600480360381019061020c9190611a6a565b611382565b005b60008111610256576040517f08c379a000000000000000000000000000000000000000000000000000000000815260040161024d90611b09565b60405180910390fd5b6000600160009054906101000a900473ffffffffffffffffffffffffffffffffffffffff1673ffffffffffffffffffffffffffffffffffffffff166370a08231336040518263ffffffff1660e01b81526004016102b39190611861565b60206040518083038186803b1580156102cb57600080fd5b505afa1580156102df573d6000803e3d6000fd5b505050506040513d601f19601f820116820180604052508101906103039190611b3e565b905081811015610348576040517f08c379a000000000000000000000000000000000000000000000000000000000815260040161033f90611bdd565b60405180910390fd5b6000600254836103589190611c5b565b90506000479050818110156103a2576040517f08c379a000000000000000000000000000000000000000000000000000000000815260040161039990611cd8565b60405180910390fd5b6000600160009054906101000a900473ffffffffffffffffffffffffffffffffffffffff1673ffffffffffffffffffffffffffffffffffffffff166323b872dd3330886040518463ffffffff1660e01b815260040161040393929190611cf8565b602060405180830381600087803b15801561041d57600080fd5b505af1158015610431573d6000803e3d6000fd5b505050506040513d601f19601f820116820180604052508101906104559190611d67565b905080610497576040517f08c379a000000000000000000000000000000000000000000000000000000000815260040161048e90611e06565b60405180910390fd5b3373ffffffffffffffffffffffffffffffffffffffff16670de0b6b3a7640000846104c29190611e26565b6040516104ce90611eb1565b60006040518083038185875af1925050503d806000811461050b576040519150601f19603f3d011682016040523d82523d6000602084013e610510565b606091505b50508091505080610556576040517f08c379a000000000000000000000000000000000000000000000000000000000815260040161054d90611f12565b60405180910390fd5b60006040518060a001604052806040518060400160405280600481526020017f53454c4c0000000000000000000000000000000000000000000000000000000081525081526020013373ffffffffffffffffffffffffffffffffffffffff1681526020013073ffffffffffffffffffffffffffffffffffffffff1681526020018781526020014281525090506003819080600181540180825580915050600190039060005260206000209060050201600090919091909150600082015181600001908051906020019061062a929190611550565b5060208201518160010160006101000a81548173ffffffffffffffffffffffffffffffffffffffff021916908373ffffffffffffffffffffffffffffffffffffffff16021790555060408201518160020160006101000a81548173ffffffffffffffffffffffffffffffffffffffff021916908373ffffffffffffffffffffffffffffffffffffffff16021790555060608201518160030155608082015181600401555050505050505050565b60025481565b6106e5611406565b60004790506000811161072d576040517f08c379a000000000000000000000000000000000000000000000000000000000815260040161072490611fa4565b60405180910390fd5b60003373ffffffffffffffffffffffffffffffffffffffff168260405161075390611eb1565b60006040518083038185875af1925050503d8060008114610790576040519150601f19603f3d011682016040523d82523d6000602084013e610795565b606091505b50509050806107d9576040517f08c379a00000000000000000000000000000000000000000000000000000000081526004016107d090612010565b60405180910390fd5b5050565b6060806000806000806000600160009054906101000a900473ffffffffffffffffffffffffffffffffffffffff1673ffffffffffffffffffffffffffffffffffffffff166306fdde036040518163ffffffff1660e01b815260040160006040518083038186803b15801561085057600080fd5b505afa158015610864573d6000803e3d6000fd5b505050506040513d6000823e3d601f19601f8201168201806040525081019061088d9190612156565b600160009054906101000a900473ffffffffffffffffffffffffffffffffffffffff1673ffffffffffffffffffffffffffffffffffffffff166395d89b416040518163ffffffff1660e01b815260040160006040518083038186803b1580156108f557600080fd5b505afa158015610909573d6000803e3d6000fd5b505050506040513d6000823e3d601f19601f820116820180604052508101906109329190612156565b600160009054906101000a900473ffffffffffffffffffffffffffffffffffffffff1673ffffffffffffffffffffffffffffffffffffffff1663313ce5676040518163ffffffff1660e01b815260040160206040518083038186803b15801561099a57600080fd5b505afa1580156109ae573d6000803e3d6000fd5b505050506040513d601f19601f820116820180604052508101906109d291906121cb565b600160009054906101000a900473ffffffffffffffffffffffffffffffffffffffff1673ffffffffffffffffffffffffffffffffffffffff166318160ddd6040518163ffffffff1660e01b815260040160206040518083038186803b158015610a3a57600080fd5b505afa158015610a4e573d6000803e3d6000fd5b505050506040513d601f19601f82011682018060405250810190610a729190611b3e565b600160009054906101000a900473ffffffffffffffffffffffffffffffffffffffff1673ffffffffffffffffffffffffffffffffffffffff1663075461726040518163ffffffff1660e01b815260040160206040518083038186803b158015610ada57600080fd5b505afa158015610aee573d6000803e3d6000fd5b505050506040513d601f19601f82011682018060405250810190610b12919061220d565b600160009054906101000a900473ffffffffffffffffffffffffffffffffffffffff1673ffffffffffffffffffffffffffffffffffffffff166370a08231306040518263ffffffff1660e01b8152600401610b6d9190611861565b60206040518083038186803b158015610b8557600080fd5b505afa158015610b99573d6000803e3d6000fd5b505050506040513d601f19601f82011682018060405250810190610bbd9190611b3e565b600160009054906101000a900473ffffffffffffffffffffffffffffffffffffffff1673ffffffffffffffffffffffffffffffffffffffff166370a08231336040518263ffffffff1660e01b8152600401610c189190611861565b60206040518083038186803b158015610c3057600080fd5b505afa158015610c44573d6000803e3d6000fd5b505050506040513d601f19601f82011682018060405250810190610c689190611b3e565b965096509650965096509650965090919293949596565b610c87611406565b610c916000611484565b565b60038181548110610ca357600080fd5b9060005260206000209060050201600091509050806000018054610cc690612269565b80601f0160208091040260200160405190810160405280929190818152602001828054610cf290612269565b8015610d3f5780601f10610d1457610100808354040283529160200191610d3f565b820191906000526020600020905b815481529060010190602001808311610d2257829003601f168201915b5050505050908060010160009054906101000a900473ffffffffffffffffffffffffffffffffffffffff16908060020160009054906101000a900473ffffffffffffffffffffffffffffffffffffffff16908060030154908060040154905085565b60008060009054906101000a900473ffffffffffffffffffffffffffffffffffffffff16905090565b60003411610e0d576040517f08c379a0000000000000000000000000000000000000000000000000000000008152600401610e049061230d565b60405180910390fd5b6000670de0b6b3a764000060025434610e269190611e26565b610e309190611c5b565b90506000600160009054906101000a900473ffffffffffffffffffffffffffffffffffffffff1673ffffffffffffffffffffffffffffffffffffffff166370a08231306040518263ffffffff1660e01b8152600401610e8f9190611861565b60206040518083038186803b158015610ea757600080fd5b505afa158015610ebb573d6000803e3d6000fd5b505050506040513d601f19601f82011682018060405250810190610edf9190611b3e565b905081811015610f24576040517f08c379a0000000000000000000000000000000000000000000000000000000008152600401610f1b9061239f565b60405180910390fd5b6000600160009054906101000a900473ffffffffffffffffffffffffffffffffffffffff1673ffffffffffffffffffffffffffffffffffffffff1663a9059cbb33856040518363ffffffff1660e01b8152600401610f839291906123bf565b602060405180830381600087803b158015610f9d57600080fd5b505af1158015610fb1573d6000803e3d6000fd5b505050506040513d601f19601f82011682018060405250810190610fd59190611d67565b905080611017576040517f08c379a000000000000000000000000000000000000000000000000000000000815260040161100e9061245a565b60405180910390fd5b60006040518060a001604052806040518060400160405280600381526020017f425559000000000000000000000000000000000000000000000000000000000081525081526020013073ffffffffffffffffffffffffffffffffffffffff1681526020013373ffffffffffffffffffffffffffffffffffffffff168152602001858152602001428152509050600381908060018154018082558091505060019003906000526020600020906005020160009091909190915060008201518160000190805190602001906110eb929190611550565b5060208201518160010160006101000a81548173ffffffffffffffffffffffffffffffffffffffff021916908373ffffffffffffffffffffffffffffffffffffffff16021790555060408201518160020160006101000a81548173ffffffffffffffffffffffffffffffffffffffff021916908373ffffffffffffffffffffffffffffffffffffffff160217905550606082015181600301556080820151816004015550507f0a37b72bb67eee30e09084cf386f8a17817c57f620c3ab95fb25d6a20356ec773334866040516111c39392919061247a565b60405180910390a150505050565b60606003805480602002602001604051908101604052809291908181526020016000905b8282101561137957838290600052602060002090600502016040518060a001604052908160008201805461122890612269565b80601f016020809104026020016040519081016040528092919081815260200182805461125490612269565b80156112a15780601f10611276576101008083540402835291602001916112a1565b820191906000526020600020905b81548152906001019060200180831161128457829003601f168201915b505050505081526020016001820160009054906101000a900473ffffffffffffffffffffffffffffffffffffffff1673ffffffffffffffffffffffffffffffffffffffff1673ffffffffffffffffffffffffffffffffffffffff1681526020016002820160009054906101000a900473ffffffffffffffffffffffffffffffffffffffff1673ffffffffffffffffffffffffffffffffffffffff1673ffffffffffffffffffffffffffffffffffffffff16815260200160038201548152602001600482015481525050815260200190600101906111f5565b50505050905090565b61138a611406565b600073ffffffffffffffffffffffffffffffffffffffff168173ffffffffffffffffffffffffffffffffffffffff1614156113fa576040517f08c379a00000000000000000000000000000000000000000000000000000000081526004016113f190612523565b60405180910390fd5b61140381611484565b50565b61140e611548565b73ffffffffffffffffffffffffffffffffffffffff1661142c610da1565b73ffffffffffffffffffffffffffffffffffffffff1614611482576040517f08c379a00000000000000000000000000000000000000000000000000000000081526004016114799061258f565b60405180910390fd5b565b60008060009054906101000a900473ffffffffffffffffffffffffffffffffffffffff169050816000806101000a81548173ffffffffffffffffffffffffffffffffffffffff021916908373ffffffffffffffffffffffffffffffffffffffff1602179055508173ffffffffffffffffffffffffffffffffffffffff168173ffffffffffffffffffffffffffffffffffffffff167f8be0079c531659141344cd1fd0a4f28419497f9722a3daafe3b4186f6b6457e060405160405180910390a35050565b600033905090565b82805461155c90612269565b90600052602060002090601f01602090048101928261157e57600085556115c5565b82601f1061159757805160ff19168380011785556115c5565b828001600101855582156115c5579182015b828111156115c45782518255916020019190600101906115a9565b5b5090506115d291906115d6565b5090565b5b808211156115ef5760008160009055506001016115d7565b5090565b6000604051905090565b600080fd5b600080fd5b6000819050919050565b61161a81611607565b811461162557600080fd5b50565b60008135905061163781611611565b92915050565b600060208284031215611653576116526115fd565b5b600061166184828501611628565b91505092915050565b61167381611607565b82525050565b600060208201905061168e600083018461166a565b92915050565b600081519050919050565b600082825260208201905092915050565b60005b838110156116ce5780820151818401526020810190506116b3565b838111156116dd576000848401525b50505050565b6000601f19601f8301169050919050565b60006116ff82611694565b611709818561169f565b93506117198185602086016116b0565b611722816116e3565b840191505092915050565b600060ff82169050919050565b6117438161172d565b82525050565b600073ffffffffffffffffffffffffffffffffffffffff82169050919050565b600061177482611749565b9050919050565b61178481611769565b82525050565b600060e08201905081810360008301526117a4818a6116f4565b905081810360208301526117b881896116f4565b90506117c7604083018861173a565b6117d4606083018761166a565b6117e1608083018661177b565b6117ee60a083018561166a565b6117fb60c083018461166a565b98975050505050505050565b600060a082019050818103600083015261182181886116f4565b9050611830602083018761177b565b61183d604083018661177b565b61184a606083018561166a565b611857608083018461166a565b9695505050505050565b6000602082019050611876600083018461177b565b92915050565b600081519050919050565b600082825260208201905092915050565b6000819050602082019050919050565b600082825260208201905092915050565b60006118c482611694565b6118ce81856118a8565b93506118de8185602086016116b0565b6118e7816116e3565b840191505092915050565b6118fb81611769565b82525050565b61190a81611607565b82525050565b600060a083016000830151848203600086015261192d82826118b9565b915050602083015161194260208601826118f2565b50604083015161195560408601826118f2565b5060608301516119686060860182611901565b50608083015161197b6080860182611901565b508091505092915050565b60006119928383611910565b905092915050565b6000602082019050919050565b60006119b28261187c565b6119bc8185611887565b9350836020820285016119ce85611898565b8060005b85811015611a0a57848403895281516119eb8582611986565b94506119f68361199a565b925060208a019950506001810190506119d2565b50829750879550505050505092915050565b60006020820190508181036000830152611a3681846119a7565b905092915050565b611a4781611769565b8114611a5257600080fd5b50565b600081359050611a6481611a3e565b92915050565b600060208284031215611a8057611a7f6115fd565b5b6000611a8e84828501611a55565b91505092915050565b7f5370656369667920616e20616d6f756e74206f6620746f6b656e20677265617460008201527f6572207468616e207a65726f2e00000000000000000000000000000000000000602082015250565b6000611af3602d8361169f565b9150611afe82611a97565b604082019050919050565b60006020820190508181036000830152611b2281611ae6565b9050919050565b600081519050611b3881611611565b92915050565b600060208284031215611b5457611b536115fd565b5b6000611b6284828501611b29565b91505092915050565b7f596f75206861766520696e73756666696369656e742041575420746f6b656e7360008201527f2e00000000000000000000000000000000000000000000000000000000000000602082015250565b6000611bc760218361169f565b9150611bd282611b6b565b604082019050919050565b60006020820190508181036000830152611bf681611bba565b9050919050565b7f4e487b7100000000000000000000000000000000000000000000000000000000600052601260045260246000fd5b7f4e487b7100000000000000000000000000000000000000000000000000000000600052601160045260246000fd5b6000611c6682611607565b9150611c7183611607565b925082611c8157611c80611bfd565b5b828204905092915050565b7f56656e646f722068617320696e73756666696369656e742066756e64732e0000600082015250565b6000611cc2601e8361169f565b9150611ccd82611c8c565b602082019050919050565b60006020820190508181036000830152611cf181611cb5565b9050919050565b6000606082019050611d0d600083018661177b565b611d1a602083018561177b565b611d27604083018461166a565b949350505050565b60008115159050919050565b611d4481611d2f565b8114611d4f57600080fd5b50565b600081519050611d6181611d3b565b92915050565b600060208284031215611d7d57611d7c6115fd565b5b6000611d8b84828501611d52565b91505092915050565b7f4661696c656420746f207472616e7366657220746f6b656e732066726f6d207560008201527f73657220746f2076656e646f722e000000000000000000000000000000000000602082015250565b6000611df0602e8361169f565b9150611dfb82611d94565b604082019050919050565b60006020820190508181036000830152611e1f81611de3565b9050919050565b6000611e3182611607565b9150611e3c83611607565b9250817fffffffffffffffffffffffffffffffffffffffffffffffffffffffffffffffff0483118215151615611e7557611e74611c2c565b5b828202905092915050565b600081905092915050565b50565b6000611e9b600083611e80565b9150611ea682611e8b565b600082019050919050565b6000611ebc82611e8e565b9150819050919050565b7f4661696c656420746f2073656e642045544820746f2074686520757365722e00600082015250565b6000611efc601f8361169f565b9150611f0782611ec6565b602082019050919050565b60006020820190508181036000830152611f2b81611eef565b9050919050565b7f4e6f204554482070726573656e7420696e207468652076656e646f722061636360008201527f6f756e742e000000000000000000000000000000000000000000000000000000602082015250565b6000611f8e60258361169f565b9150611f9982611f32565b604082019050919050565b60006020820190508181036000830152611fbd81611f81565b9050919050565b7f4661696c656420746f2077697468647261770000000000000000000000000000600082015250565b6000611ffa60128361169f565b915061200582611fc4565b602082019050919050565b6000602082019050818103600083015261202981611fed565b9050919050565b600080fd5b600080fd5b7f4e487b7100000000000000000000000000000000000000000000000000000000600052604160045260246000fd5b612072826116e3565b810181811067ffffffffffffffff821117156120915761209061203a565b5b80604052505050565b60006120a46115f3565b90506120b08282612069565b919050565b600067ffffffffffffffff8211156120d0576120cf61203a565b5b6120d9826116e3565b9050602081019050919050565b60006120f96120f4846120b5565b61209a565b90508281526020810184848401111561211557612114612035565b5b6121208482856116b0565b509392505050565b600082601f83011261213d5761213c612030565b5b815161214d8482602086016120e6565b91505092915050565b60006020828403121561216c5761216b6115fd565b5b600082015167ffffffffffffffff81111561218a57612189611602565b5b61219684828501612128565b91505092915050565b6121a88161172d565b81146121b357600080fd5b50565b6000815190506121c58161219f565b92915050565b6000602082840312156121e1576121e06115fd565b5b60006121ef848285016121b6565b91505092915050565b60008151905061220781611a3e565b92915050565b600060208284031215612223576122226115fd565b5b6000612231848285016121f8565b91505092915050565b7f4e487b7100000000000000000000000000000000000000000000000000000000600052602260045260246000fd5b6000600282049050600182168061228157607f821691505b602082108114156122955761229461223a565b5b50919050565b7f596f75206e65656420746f2073656e6420736f6d652045544820746f2070726f60008201527f636565642e000000000000000000000000000000000000000000000000000000602082015250565b60006122f760258361169f565b91506123028261229b565b604082019050919050565b60006020820190508181036000830152612326816122ea565b9050919050565b7f56656e646f722068617320696e73756666696369656e742041575420746f6b6560008201527f6e2e000000000000000000000000000000000000000000000000000000000000602082015250565b600061238960228361169f565b91506123948261232d565b604082019050919050565b600060208201905081810360008301526123b88161237c565b9050919050565b60006040820190506123d4600083018561177b565b6123e1602083018461166a565b9392505050565b7f4661696c656420746f207472616e7366657220746f6b656e20746f207573657260008201527f2e00000000000000000000000000000000000000000000000000000000000000602082015250565b600061244460218361169f565b915061244f826123e8565b604082019050919050565b6000602082019050818103600083015261247381612437565b9050919050565b600060608201905061248f600083018661177b565b61249c602083018561166a565b6124a9604083018461166a565b949350505050565b7f4f776e61626c653a206e6577206f776e657220697320746865207a65726f206160008201527f6464726573730000000000000000000000000000000000000000000000000000602082015250565b600061250d60268361169f565b9150612518826124b1565b604082019050919050565b6000602082019050818103600083015261253c81612500565b9050919050565b7f4f776e61626c653a2063616c6c6572206973206e6f7420746865206f776e6572600082015250565b600061257960208361169f565b915061258482612543565b602082019050919050565b600060208201905081810360008301526125a88161256c565b905091905056fea26469706673582212207fc4c69f663eb6d313b0231353a2510af817b0e6b49078015cc7c1f469fd022064736f6c63430008090033","immutableReferences":{},"source":"// SPDX-License-Identifier: MIT\r\n\r\npragma solidity ^0.8.9;\r\n\r\nimport \"@openzeppelin/contracts/access/Ownable.sol\";\r\nimport \"./Token.sol\";\r\n\r\ncontract Vendor is Ownable {\r\n\r\n    Token token;                            // refers to our custom AWT ERC20 token\r\n    uint256 public tokenPerEther = 100;     // 1 ETH = 100 AWT\r\n\r\n    struct Purchase {\r\n        string purchaseType;\r\n        address from;\r\n        address buyer;\r\n        uint256 amount;\r\n        uint256 time;\r\n    }\r\n\r\n    Purchase[] public purchases;\r\n\r\n    event BuyTokens(address buyer, uint256 amountOfETH, uint256 amountOfTokens);\r\n\r\n    constructor(address _tokenAddress) {\r\n        require(_tokenAddress != address(0), \"Specify proper AWT token contract address.\");\r\n        token = Token(_tokenAddress);\r\n    }\r\n\r\n    function buyToken() public payable {\r\n        require(msg.value > 0, \"You need to send some ETH to proceed.\");\r\n\r\n        uint256 amountToBuy = (msg.value * tokenPerEther) / (1 ether);    // Ex: 10 AWT = 0.1 ETH * 100\r\n        uint256 vendorBalance = token.balanceOf(address(this));           // getting vendor contract balance of AWT\r\n        require(vendorBalance >= amountToBuy, \"Vendor has insufficient AWT token.\");\r\n\r\n        (bool success) = token.transfer(msg.sender, amountToBuy);         // transferring AWT to the buyer account\r\n        require(success, \"Failed to transfer token to user.\");\r\n\r\n        Purchase memory purchase = Purchase(\"BUY\", address(this), msg.sender, amountToBuy, block.timestamp);\r\n        purchases.push(purchase);\r\n\r\n        emit BuyTokens(msg.sender, msg.value, amountToBuy);               // recording buy token event\r\n    }\r\n\r\n    function sellToken(uint256 _amountToSell) public {\r\n        require(_amountToSell > 0, \"Specify an amount of token greater than zero.\");\r\n\r\n        uint256 userBalance = token.balanceOf(msg.sender);      // getting seller contract balance of AWT\r\n        require(userBalance >= _amountToSell, \"You have insufficient AWT tokens.\");\r\n\r\n        uint256 amoutOfETHToTransfer = _amountToSell / tokenPerEther;       // converting to ETH\r\n        uint256 ownerETHBalance = address(this).balance;                    // getting the ETH balance of this vendor contract\r\n        require(ownerETHBalance >= amoutOfETHToTransfer, \"Vendor has insufficient funds.\");\r\n\r\n        (bool success) = token.transferFrom(msg.sender, address(this), _amountToSell);      // transferring AWT from seller account to vendor account\r\n        require(success, \"Failed to transfer tokens from user to vendor.\");\r\n\r\n        (success, ) = msg.sender.call{ value: amoutOfETHToTransfer * (1 ether) }(\"\");       // transferring ETH to seller account\r\n        require(success, \"Failed to send ETH to the user.\");\r\n\r\n        Purchase memory purchase = Purchase(\"SELL\", msg.sender, address(this), _amountToSell, block.timestamp);\r\n        purchases.push(purchase);\r\n    }\r\n\r\n    // only owner of the vendor contract can withdraw\r\n    function withdraw() public onlyOwner {\r\n        uint256 ownerBalance = address(this).balance;\r\n        require(ownerBalance > 0, \"No ETH present in the vendor account.\");\r\n        (bool success, ) = msg.sender.call{ value: ownerBalance }(\"\");          // transferring ETH from vender contract to owner account\r\n        require(success, \"Failed to withdraw\");\r\n    }\r\n\r\n    // returns token name, token symbol, token decimals, token total supply, minter account address, vendor balance, my (msg.sender) balance\r\n    function getSummary() public view returns(string memory, string memory, uint8, uint256, address, uint256, uint256) {\r\n        return (\r\n            token.name(),\r\n            token.symbol(),\r\n            token.decimals(),\r\n            token.totalSupply(),\r\n            token.minter(),\r\n            token.balanceOf(address(this)),\r\n            token.balanceOf(msg.sender)\r\n        );\r\n    }\r\n\r\n    function getPurchases() public view returns(Purchase[] memory) {\r\n        return purchases;\r\n    }\r\n}\r\n","sourcePath":"G:\\blockchain\\projects\\property_dapp\\property-dapp\\ethereum\\contracts\\Vendor.sol","compiler":{"name":"solc","version":"0.8.9+commit.e5eed63a.Emscripten.clang"},"schemaVersion":"3.4.10","updatedAt":"2022-10-15T15:45:51.468Z","networkType":"ethereum","devdoc":{"kind":"dev","methods":{"owner()":{"details":"Returns the address of the current owner."},"renounceOwnership()":{"details":"Leaves the contract without owner. It will not be possible to call `onlyOwner` functions anymore. Can only be called by the current owner. NOTE: Renouncing ownership will leave the contract without an owner, thereby removing any functionality that is only available to the owner."},"transferOwnership(address)":{"details":"Transfers ownership of the contract to a new account (`newOwner`). Can only be called by the current owner."}},"version":1},"userdoc":{"kind":"user","methods":{},"version":1}}