{"contractName":"Vendor","abi":[{"inputs":[{"internalType":"address","name":"_tokenAddress","type":"address"}],"stateMutability":"nonpayable","type":"constructor"},{"anonymous":false,"inputs":[{"indexed":false,"internalType":"address","name":"buyer","type":"address"},{"indexed":false,"internalType":"uint256","name":"amountOfETH","type":"uint256"},{"indexed":false,"internalType":"uint256","name":"amountOfTokens","type":"uint256"}],"name":"BuyTokens","type":"event"},{"anonymous":false,"inputs":[{"indexed":true,"internalType":"address","name":"previousOwner","type":"address"},{"indexed":true,"internalType":"address","name":"newOwner","type":"address"}],"name":"OwnershipTransferred","type":"event"},{"inputs":[],"name":"owner","outputs":[{"internalType":"address","name":"","type":"address"}],"stateMutability":"view","type":"function","constant":true},{"inputs":[],"name":"renounceOwnership","outputs":[],"stateMutability":"nonpayable","type":"function"},{"inputs":[],"name":"tokenPerEther","outputs":[{"internalType":"uint256","name":"","type":"uint256"}],"stateMutability":"view","type":"function","constant":true},{"inputs":[{"internalType":"address","name":"newOwner","type":"address"}],"name":"transferOwnership","outputs":[],"stateMutability":"nonpayable","type":"function"},{"inputs":[],"name":"buyToken","outputs":[],"stateMutability":"payable","type":"function","payable":true},{"inputs":[{"internalType":"uint256","name":"_amountToSell","type":"uint256"}],"name":"sellToken","outputs":[],"stateMutability":"nonpayable","type":"function"},{"inputs":[],"name":"withdraw","outputs":[],"stateMutability":"nonpayable","type":"function"}],"bytecode":"0x608060405260646002553480156200001657600080fd5b50604051620017b0380380620017b083398181016040528101906200003c91906200024d565b6200005c620000506200011760201b60201c565b6200011f60201b60201c565b600073ffffffffffffffffffffffffffffffffffffffff168173ffffffffffffffffffffffffffffffffffffffff161415620000cf576040517f08c379a0000000000000000000000000000000000000000000000000000000008152600401620000c69062000306565b60405180910390fd5b80600160006101000a81548173ffffffffffffffffffffffffffffffffffffffff021916908373ffffffffffffffffffffffffffffffffffffffff1602179055505062000328565b600033905090565b60008060009054906101000a900473ffffffffffffffffffffffffffffffffffffffff169050816000806101000a81548173ffffffffffffffffffffffffffffffffffffffff021916908373ffffffffffffffffffffffffffffffffffffffff1602179055508173ffffffffffffffffffffffffffffffffffffffff168173ffffffffffffffffffffffffffffffffffffffff167f8be0079c531659141344cd1fd0a4f28419497f9722a3daafe3b4186f6b6457e060405160405180910390a35050565b600080fd5b600073ffffffffffffffffffffffffffffffffffffffff82169050919050565b60006200021582620001e8565b9050919050565b620002278162000208565b81146200023357600080fd5b50565b60008151905062000247816200021c565b92915050565b600060208284031215620002665762000265620001e3565b5b6000620002768482850162000236565b91505092915050565b600082825260208201905092915050565b7f537065636966792070726f7065722041575420746f6b656e20636f6e7472616360008201527f7420616464726573732e00000000000000000000000000000000000000000000602082015250565b6000620002ee602a836200027f565b9150620002fb8262000290565b604082019050919050565b600060208201905081810360008301526200032181620002df565b9050919050565b61147880620003386000396000f3fe6080604052600436106100705760003560e01c8063715018a61161004e578063715018a6146100e05780638da5cb5b146100f7578063a482171914610122578063f2fde38b1461012c57610070565b80632397e4d7146100755780632f77dba41461009e5780633ccfd60b146100c9575b600080fd5b34801561008157600080fd5b5061009c60048036038101906100979190610a78565b610155565b005b3480156100aa57600080fd5b506100b361049f565b6040516100c09190610ab4565b60405180910390f35b3480156100d557600080fd5b506100de6104a5565b005b3480156100ec57600080fd5b506100f56105a5565b005b34801561010357600080fd5b5061010c6105b9565b6040516101199190610b10565b60405180910390f35b61012a6105e2565b005b34801561013857600080fd5b50610153600480360381019061014e9190610b57565b61086f565b005b60008111610198576040517f08c379a000000000000000000000000000000000000000000000000000000000815260040161018f90610c07565b60405180910390fd5b6000600160009054906101000a900473ffffffffffffffffffffffffffffffffffffffff1673ffffffffffffffffffffffffffffffffffffffff166370a08231336040518263ffffffff1660e01b81526004016101f59190610b10565b60206040518083038186803b15801561020d57600080fd5b505afa158015610221573d6000803e3d6000fd5b505050506040513d601f19601f820116820180604052508101906102459190610c3c565b90508181101561028a576040517f08c379a000000000000000000000000000000000000000000000000000000000815260040161028190610cdb565b60405180910390fd5b60006002548361029a9190610d59565b90506000479050818110156102e4576040517f08c379a00000000000000000000000000000000000000000000000000000000081526004016102db90610dd6565b60405180910390fd5b6000600160009054906101000a900473ffffffffffffffffffffffffffffffffffffffff1673ffffffffffffffffffffffffffffffffffffffff166323b872dd3330886040518463ffffffff1660e01b815260040161034593929190610df6565b602060405180830381600087803b15801561035f57600080fd5b505af1158015610373573d6000803e3d6000fd5b505050506040513d601f19601f820116820180604052508101906103979190610e65565b9050806103d9576040517f08c379a00000000000000000000000000000000000000000000000000000000081526004016103d090610f04565b60405180910390fd5b3373ffffffffffffffffffffffffffffffffffffffff16670de0b6b3a7640000846104049190610f24565b60405161041090610faf565b60006040518083038185875af1925050503d806000811461044d576040519150601f19603f3d011682016040523d82523d6000602084013e610452565b606091505b50508091505080610498576040517f08c379a000000000000000000000000000000000000000000000000000000000815260040161048f90611010565b60405180910390fd5b5050505050565b60025481565b6104ad6108f3565b6000479050600081116104f5576040517f08c379a00000000000000000000000000000000000000000000000000000000081526004016104ec906110a2565b60405180910390fd5b60003373ffffffffffffffffffffffffffffffffffffffff168260405161051b90610faf565b60006040518083038185875af1925050503d8060008114610558576040519150601f19603f3d011682016040523d82523d6000602084013e61055d565b606091505b50509050806105a1576040517f08c379a00000000000000000000000000000000000000000000000000000000081526004016105989061110e565b60405180910390fd5b5050565b6105ad6108f3565b6105b76000610971565b565b60008060009054906101000a900473ffffffffffffffffffffffffffffffffffffffff16905090565b60003411610625576040517f08c379a000000000000000000000000000000000000000000000000000000000815260040161061c906111a0565b60405180910390fd5b6000670de0b6b3a76400006002543461063e9190610f24565b6106489190610d59565b90506000600160009054906101000a900473ffffffffffffffffffffffffffffffffffffffff1673ffffffffffffffffffffffffffffffffffffffff166370a08231306040518263ffffffff1660e01b81526004016106a79190610b10565b60206040518083038186803b1580156106bf57600080fd5b505afa1580156106d3573d6000803e3d6000fd5b505050506040513d601f19601f820116820180604052508101906106f79190610c3c565b90508181101561073c576040517f08c379a000000000000000000000000000000000000000000000000000000000815260040161073390611232565b60405180910390fd5b6000600160009054906101000a900473ffffffffffffffffffffffffffffffffffffffff1673ffffffffffffffffffffffffffffffffffffffff1663a9059cbb33856040518363ffffffff1660e01b815260040161079b929190611252565b602060405180830381600087803b1580156107b557600080fd5b505af11580156107c9573d6000803e3d6000fd5b505050506040513d601f19601f820116820180604052508101906107ed9190610e65565b90508061082f576040517f08c379a0000000000000000000000000000000000000000000000000000000008152600401610826906112ed565b60405180910390fd5b7f0a37b72bb67eee30e09084cf386f8a17817c57f620c3ab95fb25d6a20356ec773334856040516108629392919061130d565b60405180910390a1505050565b6108776108f3565b600073ffffffffffffffffffffffffffffffffffffffff168173ffffffffffffffffffffffffffffffffffffffff1614156108e7576040517f08c379a00000000000000000000000000000000000000000000000000000000081526004016108de906113b6565b60405180910390fd5b6108f081610971565b50565b6108fb610a35565b73ffffffffffffffffffffffffffffffffffffffff166109196105b9565b73ffffffffffffffffffffffffffffffffffffffff161461096f576040517f08c379a000000000000000000000000000000000000000000000000000000000815260040161096690611422565b60405180910390fd5b565b60008060009054906101000a900473ffffffffffffffffffffffffffffffffffffffff169050816000806101000a81548173ffffffffffffffffffffffffffffffffffffffff021916908373ffffffffffffffffffffffffffffffffffffffff1602179055508173ffffffffffffffffffffffffffffffffffffffff168173ffffffffffffffffffffffffffffffffffffffff167f8be0079c531659141344cd1fd0a4f28419497f9722a3daafe3b4186f6b6457e060405160405180910390a35050565b600033905090565b600080fd5b6000819050919050565b610a5581610a42565b8114610a6057600080fd5b50565b600081359050610a7281610a4c565b92915050565b600060208284031215610a8e57610a8d610a3d565b5b6000610a9c84828501610a63565b91505092915050565b610aae81610a42565b82525050565b6000602082019050610ac96000830184610aa5565b92915050565b600073ffffffffffffffffffffffffffffffffffffffff82169050919050565b6000610afa82610acf565b9050919050565b610b0a81610aef565b82525050565b6000602082019050610b256000830184610b01565b92915050565b610b3481610aef565b8114610b3f57600080fd5b50565b600081359050610b5181610b2b565b92915050565b600060208284031215610b6d57610b6c610a3d565b5b6000610b7b84828501610b42565b91505092915050565b600082825260208201905092915050565b7f5370656369667920616e20616d6f756e74206f6620746f6b656e20677265617460008201527f6572207468616e207a65726f2e00000000000000000000000000000000000000602082015250565b6000610bf1602d83610b84565b9150610bfc82610b95565b604082019050919050565b60006020820190508181036000830152610c2081610be4565b9050919050565b600081519050610c3681610a4c565b92915050565b600060208284031215610c5257610c51610a3d565b5b6000610c6084828501610c27565b91505092915050565b7f596f75206861766520696e73756666696369656e742041575420746f6b656e7360008201527f2e00000000000000000000000000000000000000000000000000000000000000602082015250565b6000610cc5602183610b84565b9150610cd082610c69565b604082019050919050565b60006020820190508181036000830152610cf481610cb8565b9050919050565b7f4e487b7100000000000000000000000000000000000000000000000000000000600052601260045260246000fd5b7f4e487b7100000000000000000000000000000000000000000000000000000000600052601160045260246000fd5b6000610d6482610a42565b9150610d6f83610a42565b925082610d7f57610d7e610cfb565b5b828204905092915050565b7f56656e646f722068617320696e73756666696369656e742066756e64732e0000600082015250565b6000610dc0601e83610b84565b9150610dcb82610d8a565b602082019050919050565b60006020820190508181036000830152610def81610db3565b9050919050565b6000606082019050610e0b6000830186610b01565b610e186020830185610b01565b610e256040830184610aa5565b949350505050565b60008115159050919050565b610e4281610e2d565b8114610e4d57600080fd5b50565b600081519050610e5f81610e39565b92915050565b600060208284031215610e7b57610e7a610a3d565b5b6000610e8984828501610e50565b91505092915050565b7f4661696c656420746f207472616e7366657220746f6b656e732066726f6d207560008201527f73657220746f2076656e646f722e000000000000000000000000000000000000602082015250565b6000610eee602e83610b84565b9150610ef982610e92565b604082019050919050565b60006020820190508181036000830152610f1d81610ee1565b9050919050565b6000610f2f82610a42565b9150610f3a83610a42565b9250817fffffffffffffffffffffffffffffffffffffffffffffffffffffffffffffffff0483118215151615610f7357610f72610d2a565b5b828202905092915050565b600081905092915050565b50565b6000610f99600083610f7e565b9150610fa482610f89565b600082019050919050565b6000610fba82610f8c565b9150819050919050565b7f4661696c656420746f2073656e642045544820746f2074686520757365722e00600082015250565b6000610ffa601f83610b84565b915061100582610fc4565b602082019050919050565b6000602082019050818103600083015261102981610fed565b9050919050565b7f4e6f204554482070726573656e7420696e207468652076656e646f722061636360008201527f6f756e742e000000000000000000000000000000000000000000000000000000602082015250565b600061108c602583610b84565b915061109782611030565b604082019050919050565b600060208201905081810360008301526110bb8161107f565b9050919050565b7f4661696c656420746f2077697468647261770000000000000000000000000000600082015250565b60006110f8601283610b84565b9150611103826110c2565b602082019050919050565b60006020820190508181036000830152611127816110eb565b9050919050565b7f596f75206e65656420746f2073656e6420736f6d652045544820746f2070726f60008201527f636565642e000000000000000000000000000000000000000000000000000000602082015250565b600061118a602583610b84565b91506111958261112e565b604082019050919050565b600060208201905081810360008301526111b98161117d565b9050919050565b7f56656e646f722068617320696e73756666696369656e742041575420746f6b6560008201527f6e2e000000000000000000000000000000000000000000000000000000000000602082015250565b600061121c602283610b84565b9150611227826111c0565b604082019050919050565b6000602082019050818103600083015261124b8161120f565b9050919050565b60006040820190506112676000830185610b01565b6112746020830184610aa5565b9392505050565b7f4661696c656420746f207472616e7366657220746f6b656e20746f207573657260008201527f2e00000000000000000000000000000000000000000000000000000000000000602082015250565b60006112d7602183610b84565b91506112e28261127b565b604082019050919050565b60006020820190508181036000830152611306816112ca565b9050919050565b60006060820190506113226000830186610b01565b61132f6020830185610aa5565b61133c6040830184610aa5565b949350505050565b7f4f776e61626c653a206e6577206f776e657220697320746865207a65726f206160008201527f6464726573730000000000000000000000000000000000000000000000000000602082015250565b60006113a0602683610b84565b91506113ab82611344565b604082019050919050565b600060208201905081810360008301526113cf81611393565b9050919050565b7f4f776e61626c653a2063616c6c6572206973206e6f7420746865206f776e6572600082015250565b600061140c602083610b84565b9150611417826113d6565b602082019050919050565b6000602082019050818103600083015261143b816113ff565b905091905056fea2646970667358221220ebf58df7a27decfb6e789333a9e22d1e8c2386a2e7c31e19b53f5b04b7e1052564736f6c63430008090033","immutableReferences":{},"source":"// SPDX-License-Identifier: MIT\r\n\r\npragma solidity ^0.8.9;\r\n\r\nimport \"@openzeppelin/contracts/access/Ownable.sol\";\r\nimport \"./Token.sol\";\r\n\r\ncontract Vendor is Ownable {\r\n\r\n    Token token;                            // refers to our custom AWT ERC20 token\r\n    uint256 public tokenPerEther = 100;     // 1 ETH = 100 AWT\r\n\r\n    event BuyTokens(address buyer, uint256 amountOfETH, uint256 amountOfTokens);\r\n\r\n    constructor(address _tokenAddress) {\r\n        require(_tokenAddress != address(0), \"Specify proper AWT token contract address.\");\r\n        token = Token(_tokenAddress);\r\n    }\r\n\r\n    function buyToken() public payable {\r\n        require(msg.value > 0, \"You need to send some ETH to proceed.\");\r\n\r\n        uint256 amountToBuy = (msg.value * tokenPerEther) / (1 ether);    // Ex: 10 AWT = 0.1 ETH * 100\r\n        uint256 vendorBalance = token.balanceOf(address(this));           // getting vendor contract balance of AWT\r\n        require(vendorBalance >= amountToBuy, \"Vendor has insufficient AWT token.\");\r\n\r\n        (bool success) = token.transfer(msg.sender, amountToBuy);         // transferring AWT to the buyer account\r\n        require(success, \"Failed to transfer token to user.\");\r\n\r\n        emit BuyTokens(msg.sender, msg.value, amountToBuy);               // recording buy token event\r\n    }\r\n\r\n    function sellToken(uint256 _amountToSell) public {\r\n        require(_amountToSell > 0, \"Specify an amount of token greater than zero.\");\r\n\r\n        uint256 userBalance = token.balanceOf(msg.sender);      // getting seller contract balance of AWT\r\n        require(userBalance >= _amountToSell, \"You have insufficient AWT tokens.\");\r\n\r\n        uint256 amoutOfETHToTransfer = _amountToSell / tokenPerEther;       // converting to ETH\r\n        uint256 ownerETHBalance = address(this).balance;                    // getting the ETH balance of this vendor contract\r\n        require(ownerETHBalance >= amoutOfETHToTransfer, \"Vendor has insufficient funds.\");\r\n\r\n        (bool success) = token.transferFrom(msg.sender, address(this), _amountToSell);      // transferring AWT from seller account to vendor account\r\n        require(success, \"Failed to transfer tokens from user to vendor.\");\r\n\r\n        (success, ) = msg.sender.call{ value: amoutOfETHToTransfer * (1 ether) }(\"\");       // transferring ETH to seller account\r\n        require(success, \"Failed to send ETH to the user.\");\r\n    }\r\n\r\n    // only owner of the vendor contract can withdraw\r\n    function withdraw() public onlyOwner {\r\n        uint256 ownerBalance = address(this).balance;\r\n        require(ownerBalance > 0, \"No ETH present in the vendor account.\");\r\n        (bool success, ) = msg.sender.call{ value: ownerBalance }(\"\");          // transferring ETH from vender contract to owner account\r\n        require(success, \"Failed to withdraw\");\r\n    }\r\n}\r\n","sourcePath":"G:\\blockchain\\projects\\property_dapp\\ethereum\\contracts\\Vendor.sol","compiler":{"name":"solc","version":"0.8.9+commit.e5eed63a.Emscripten.clang"},"schemaVersion":"3.4.10","updatedAt":"2022-10-07T18:55:26.149Z","networkType":"ethereum","devdoc":{"kind":"dev","methods":{"owner()":{"details":"Returns the address of the current owner."},"renounceOwnership()":{"details":"Leaves the contract without owner. It will not be possible to call `onlyOwner` functions anymore. Can only be called by the current owner. NOTE: Renouncing ownership will leave the contract without an owner, thereby removing any functionality that is only available to the owner."},"transferOwnership(address)":{"details":"Transfers ownership of the contract to a new account (`newOwner`). Can only be called by the current owner."}},"version":1},"userdoc":{"kind":"user","methods":{},"version":1}}