{"contractName":"Vendor","abi":[{"inputs":[{"internalType":"address","name":"_tokenAddress","type":"address"}],"stateMutability":"nonpayable","type":"constructor"},{"anonymous":false,"inputs":[{"indexed":false,"internalType":"address","name":"buyer","type":"address"},{"indexed":false,"internalType":"uint256","name":"amountOfETH","type":"uint256"},{"indexed":false,"internalType":"uint256","name":"amountOfTokens","type":"uint256"}],"name":"BuyTokens","type":"event"},{"anonymous":false,"inputs":[{"indexed":true,"internalType":"address","name":"previousOwner","type":"address"},{"indexed":true,"internalType":"address","name":"newOwner","type":"address"}],"name":"OwnershipTransferred","type":"event"},{"inputs":[],"name":"owner","outputs":[{"internalType":"address","name":"","type":"address"}],"stateMutability":"view","type":"function","constant":true},{"inputs":[],"name":"renounceOwnership","outputs":[],"stateMutability":"nonpayable","type":"function"},{"inputs":[],"name":"tokenPerEther","outputs":[{"internalType":"uint256","name":"","type":"uint256"}],"stateMutability":"view","type":"function","constant":true},{"inputs":[{"internalType":"address","name":"newOwner","type":"address"}],"name":"transferOwnership","outputs":[],"stateMutability":"nonpayable","type":"function"},{"inputs":[],"name":"buyToken","outputs":[],"stateMutability":"payable","type":"function","payable":true},{"inputs":[{"internalType":"uint256","name":"_amountToSell","type":"uint256"}],"name":"sellToken","outputs":[],"stateMutability":"nonpayable","type":"function"},{"inputs":[],"name":"withdraw","outputs":[],"stateMutability":"nonpayable","type":"function"},{"inputs":[],"name":"getSummary","outputs":[{"internalType":"string","name":"","type":"string"},{"internalType":"string","name":"","type":"string"},{"internalType":"uint8","name":"","type":"uint8"},{"internalType":"uint256","name":"","type":"uint256"},{"internalType":"address","name":"","type":"address"},{"internalType":"uint256","name":"","type":"uint256"},{"internalType":"uint256","name":"","type":"uint256"}],"stateMutability":"view","type":"function","constant":true}],"bytecode":"0x608060405260646002553480156200001657600080fd5b5060405162001fc838038062001fc883398181016040528101906200003c91906200024d565b6200005c620000506200011760201b60201c565b6200011f60201b60201c565b600073ffffffffffffffffffffffffffffffffffffffff168173ffffffffffffffffffffffffffffffffffffffff161415620000cf576040517f08c379a0000000000000000000000000000000000000000000000000000000008152600401620000c69062000306565b60405180910390fd5b80600160006101000a81548173ffffffffffffffffffffffffffffffffffffffff021916908373ffffffffffffffffffffffffffffffffffffffff1602179055505062000328565b600033905090565b60008060009054906101000a900473ffffffffffffffffffffffffffffffffffffffff169050816000806101000a81548173ffffffffffffffffffffffffffffffffffffffff021916908373ffffffffffffffffffffffffffffffffffffffff1602179055508173ffffffffffffffffffffffffffffffffffffffff168173ffffffffffffffffffffffffffffffffffffffff167f8be0079c531659141344cd1fd0a4f28419497f9722a3daafe3b4186f6b6457e060405160405180910390a35050565b600080fd5b600073ffffffffffffffffffffffffffffffffffffffff82169050919050565b60006200021582620001e8565b9050919050565b620002278162000208565b81146200023357600080fd5b50565b60008151905062000247816200021c565b92915050565b600060208284031215620002665762000265620001e3565b5b6000620002768482850162000236565b91505092915050565b600082825260208201905092915050565b7f537065636966792070726f7065722041575420746f6b656e20636f6e7472616360008201527f7420616464726573732e00000000000000000000000000000000000000000000602082015250565b6000620002ee602a836200027f565b9150620002fb8262000290565b604082019050919050565b600060208201905081810360008301526200032181620002df565b9050919050565b611c9080620003386000396000f3fe60806040526004361061007b5760003560e01c8063715018a61161004e578063715018a61461011c5780638da5cb5b14610133578063a48217191461015e578063f2fde38b146101685761007b565b80632397e4d7146100805780632f77dba4146100a95780633ccfd60b146100d45780634051ddac146100eb575b600080fd5b34801561008c57600080fd5b506100a760048036038101906100a29190610f65565b610191565b005b3480156100b557600080fd5b506100be6104db565b6040516100cb9190610fa1565b60405180910390f35b3480156100e057600080fd5b506100e96104e1565b005b3480156100f757600080fd5b506101006105e1565b60405161011397969594939291906110b2565b60405180910390f35b34801561012857600080fd5b50610131610a83565b005b34801561013f57600080fd5b50610148610a97565b604051610155919061112f565b60405180910390f35b610166610ac0565b005b34801561017457600080fd5b5061018f600480360381019061018a9190611176565b610d4d565b005b600081116101d4576040517f08c379a00000000000000000000000000000000000000000000000000000000081526004016101cb90611215565b60405180910390fd5b6000600160009054906101000a900473ffffffffffffffffffffffffffffffffffffffff1673ffffffffffffffffffffffffffffffffffffffff166370a08231336040518263ffffffff1660e01b8152600401610231919061112f565b60206040518083038186803b15801561024957600080fd5b505afa15801561025d573d6000803e3d6000fd5b505050506040513d601f19601f82011682018060405250810190610281919061124a565b9050818110156102c6576040517f08c379a00000000000000000000000000000000000000000000000000000000081526004016102bd906112e9565b60405180910390fd5b6000600254836102d69190611367565b9050600047905081811015610320576040517f08c379a0000000000000000000000000000000000000000000000000000000008152600401610317906113e4565b60405180910390fd5b6000600160009054906101000a900473ffffffffffffffffffffffffffffffffffffffff1673ffffffffffffffffffffffffffffffffffffffff166323b872dd3330886040518463ffffffff1660e01b815260040161038193929190611404565b602060405180830381600087803b15801561039b57600080fd5b505af11580156103af573d6000803e3d6000fd5b505050506040513d601f19601f820116820180604052508101906103d39190611473565b905080610415576040517f08c379a000000000000000000000000000000000000000000000000000000000815260040161040c90611512565b60405180910390fd5b3373ffffffffffffffffffffffffffffffffffffffff16670de0b6b3a7640000846104409190611532565b60405161044c906115bd565b60006040518083038185875af1925050503d8060008114610489576040519150601f19603f3d011682016040523d82523d6000602084013e61048e565b606091505b505080915050806104d4576040517f08c379a00000000000000000000000000000000000000000000000000000000081526004016104cb9061161e565b60405180910390fd5b5050505050565b60025481565b6104e9610dd1565b600047905060008111610531576040517f08c379a0000000000000000000000000000000000000000000000000000000008152600401610528906116b0565b60405180910390fd5b60003373ffffffffffffffffffffffffffffffffffffffff1682604051610557906115bd565b60006040518083038185875af1925050503d8060008114610594576040519150601f19603f3d011682016040523d82523d6000602084013e610599565b606091505b50509050806105dd576040517f08c379a00000000000000000000000000000000000000000000000000000000081526004016105d49061171c565b60405180910390fd5b5050565b6060806000806000806000600160009054906101000a900473ffffffffffffffffffffffffffffffffffffffff1673ffffffffffffffffffffffffffffffffffffffff166306fdde036040518163ffffffff1660e01b815260040160006040518083038186803b15801561065457600080fd5b505afa158015610668573d6000803e3d6000fd5b505050506040513d6000823e3d601f19601f820116820180604052508101906106919190611862565b600160009054906101000a900473ffffffffffffffffffffffffffffffffffffffff1673ffffffffffffffffffffffffffffffffffffffff166395d89b416040518163ffffffff1660e01b815260040160006040518083038186803b1580156106f957600080fd5b505afa15801561070d573d6000803e3d6000fd5b505050506040513d6000823e3d601f19601f820116820180604052508101906107369190611862565b600160009054906101000a900473ffffffffffffffffffffffffffffffffffffffff1673ffffffffffffffffffffffffffffffffffffffff1663313ce5676040518163ffffffff1660e01b815260040160206040518083038186803b15801561079e57600080fd5b505afa1580156107b2573d6000803e3d6000fd5b505050506040513d601f19601f820116820180604052508101906107d691906118d7565b600160009054906101000a900473ffffffffffffffffffffffffffffffffffffffff1673ffffffffffffffffffffffffffffffffffffffff166318160ddd6040518163ffffffff1660e01b815260040160206040518083038186803b15801561083e57600080fd5b505afa158015610852573d6000803e3d6000fd5b505050506040513d601f19601f82011682018060405250810190610876919061124a565b600160009054906101000a900473ffffffffffffffffffffffffffffffffffffffff1673ffffffffffffffffffffffffffffffffffffffff1663075461726040518163ffffffff1660e01b815260040160206040518083038186803b1580156108de57600080fd5b505afa1580156108f2573d6000803e3d6000fd5b505050506040513d601f19601f820116820180604052508101906109169190611919565b600160009054906101000a900473ffffffffffffffffffffffffffffffffffffffff1673ffffffffffffffffffffffffffffffffffffffff166370a08231306040518263ffffffff1660e01b8152600401610971919061112f565b60206040518083038186803b15801561098957600080fd5b505afa15801561099d573d6000803e3d6000fd5b505050506040513d601f19601f820116820180604052508101906109c1919061124a565b600160009054906101000a900473ffffffffffffffffffffffffffffffffffffffff1673ffffffffffffffffffffffffffffffffffffffff166370a08231336040518263ffffffff1660e01b8152600401610a1c919061112f565b60206040518083038186803b158015610a3457600080fd5b505afa158015610a48573d6000803e3d6000fd5b505050506040513d601f19601f82011682018060405250810190610a6c919061124a565b965096509650965096509650965090919293949596565b610a8b610dd1565b610a956000610e4f565b565b60008060009054906101000a900473ffffffffffffffffffffffffffffffffffffffff16905090565b60003411610b03576040517f08c379a0000000000000000000000000000000000000000000000000000000008152600401610afa906119b8565b60405180910390fd5b6000670de0b6b3a764000060025434610b1c9190611532565b610b269190611367565b90506000600160009054906101000a900473ffffffffffffffffffffffffffffffffffffffff1673ffffffffffffffffffffffffffffffffffffffff166370a08231306040518263ffffffff1660e01b8152600401610b85919061112f565b60206040518083038186803b158015610b9d57600080fd5b505afa158015610bb1573d6000803e3d6000fd5b505050506040513d601f19601f82011682018060405250810190610bd5919061124a565b905081811015610c1a576040517f08c379a0000000000000000000000000000000000000000000000000000000008152600401610c1190611a4a565b60405180910390fd5b6000600160009054906101000a900473ffffffffffffffffffffffffffffffffffffffff1673ffffffffffffffffffffffffffffffffffffffff1663a9059cbb33856040518363ffffffff1660e01b8152600401610c79929190611a6a565b602060405180830381600087803b158015610c9357600080fd5b505af1158015610ca7573d6000803e3d6000fd5b505050506040513d601f19601f82011682018060405250810190610ccb9190611473565b905080610d0d576040517f08c379a0000000000000000000000000000000000000000000000000000000008152600401610d0490611b05565b60405180910390fd5b7f0a37b72bb67eee30e09084cf386f8a17817c57f620c3ab95fb25d6a20356ec77333485604051610d4093929190611b25565b60405180910390a1505050565b610d55610dd1565b600073ffffffffffffffffffffffffffffffffffffffff168173ffffffffffffffffffffffffffffffffffffffff161415610dc5576040517f08c379a0000000000000000000000000000000000000000000000000000000008152600401610dbc90611bce565b60405180910390fd5b610dce81610e4f565b50565b610dd9610f13565b73ffffffffffffffffffffffffffffffffffffffff16610df7610a97565b73ffffffffffffffffffffffffffffffffffffffff1614610e4d576040517f08c379a0000000000000000000000000000000000000000000000000000000008152600401610e4490611c3a565b60405180910390fd5b565b60008060009054906101000a900473ffffffffffffffffffffffffffffffffffffffff169050816000806101000a81548173ffffffffffffffffffffffffffffffffffffffff021916908373ffffffffffffffffffffffffffffffffffffffff1602179055508173ffffffffffffffffffffffffffffffffffffffff168173ffffffffffffffffffffffffffffffffffffffff167f8be0079c531659141344cd1fd0a4f28419497f9722a3daafe3b4186f6b6457e060405160405180910390a35050565b600033905090565b6000604051905090565b600080fd5b600080fd5b6000819050919050565b610f4281610f2f565b8114610f4d57600080fd5b50565b600081359050610f5f81610f39565b92915050565b600060208284031215610f7b57610f7a610f25565b5b6000610f8984828501610f50565b91505092915050565b610f9b81610f2f565b82525050565b6000602082019050610fb66000830184610f92565b92915050565b600081519050919050565b600082825260208201905092915050565b60005b83811015610ff6578082015181840152602081019050610fdb565b83811115611005576000848401525b50505050565b6000601f19601f8301169050919050565b600061102782610fbc565b6110318185610fc7565b9350611041818560208601610fd8565b61104a8161100b565b840191505092915050565b600060ff82169050919050565b61106b81611055565b82525050565b600073ffffffffffffffffffffffffffffffffffffffff82169050919050565b600061109c82611071565b9050919050565b6110ac81611091565b82525050565b600060e08201905081810360008301526110cc818a61101c565b905081810360208301526110e0818961101c565b90506110ef6040830188611062565b6110fc6060830187610f92565b61110960808301866110a3565b61111660a0830185610f92565b61112360c0830184610f92565b98975050505050505050565b600060208201905061114460008301846110a3565b92915050565b61115381611091565b811461115e57600080fd5b50565b6000813590506111708161114a565b92915050565b60006020828403121561118c5761118b610f25565b5b600061119a84828501611161565b91505092915050565b7f5370656369667920616e20616d6f756e74206f6620746f6b656e20677265617460008201527f6572207468616e207a65726f2e00000000000000000000000000000000000000602082015250565b60006111ff602d83610fc7565b915061120a826111a3565b604082019050919050565b6000602082019050818103600083015261122e816111f2565b9050919050565b60008151905061124481610f39565b92915050565b6000602082840312156112605761125f610f25565b5b600061126e84828501611235565b91505092915050565b7f596f75206861766520696e73756666696369656e742041575420746f6b656e7360008201527f2e00000000000000000000000000000000000000000000000000000000000000602082015250565b60006112d3602183610fc7565b91506112de82611277565b604082019050919050565b60006020820190508181036000830152611302816112c6565b9050919050565b7f4e487b7100000000000000000000000000000000000000000000000000000000600052601260045260246000fd5b7f4e487b7100000000000000000000000000000000000000000000000000000000600052601160045260246000fd5b600061137282610f2f565b915061137d83610f2f565b92508261138d5761138c611309565b5b828204905092915050565b7f56656e646f722068617320696e73756666696369656e742066756e64732e0000600082015250565b60006113ce601e83610fc7565b91506113d982611398565b602082019050919050565b600060208201905081810360008301526113fd816113c1565b9050919050565b600060608201905061141960008301866110a3565b61142660208301856110a3565b6114336040830184610f92565b949350505050565b60008115159050919050565b6114508161143b565b811461145b57600080fd5b50565b60008151905061146d81611447565b92915050565b60006020828403121561148957611488610f25565b5b60006114978482850161145e565b91505092915050565b7f4661696c656420746f207472616e7366657220746f6b656e732066726f6d207560008201527f73657220746f2076656e646f722e000000000000000000000000000000000000602082015250565b60006114fc602e83610fc7565b9150611507826114a0565b604082019050919050565b6000602082019050818103600083015261152b816114ef565b9050919050565b600061153d82610f2f565b915061154883610f2f565b9250817fffffffffffffffffffffffffffffffffffffffffffffffffffffffffffffffff048311821515161561158157611580611338565b5b828202905092915050565b600081905092915050565b50565b60006115a760008361158c565b91506115b282611597565b600082019050919050565b60006115c88261159a565b9150819050919050565b7f4661696c656420746f2073656e642045544820746f2074686520757365722e00600082015250565b6000611608601f83610fc7565b9150611613826115d2565b602082019050919050565b60006020820190508181036000830152611637816115fb565b9050919050565b7f4e6f204554482070726573656e7420696e207468652076656e646f722061636360008201527f6f756e742e000000000000000000000000000000000000000000000000000000602082015250565b600061169a602583610fc7565b91506116a58261163e565b604082019050919050565b600060208201905081810360008301526116c98161168d565b9050919050565b7f4661696c656420746f2077697468647261770000000000000000000000000000600082015250565b6000611706601283610fc7565b9150611711826116d0565b602082019050919050565b60006020820190508181036000830152611735816116f9565b9050919050565b600080fd5b600080fd5b7f4e487b7100000000000000000000000000000000000000000000000000000000600052604160045260246000fd5b61177e8261100b565b810181811067ffffffffffffffff8211171561179d5761179c611746565b5b80604052505050565b60006117b0610f1b565b90506117bc8282611775565b919050565b600067ffffffffffffffff8211156117dc576117db611746565b5b6117e58261100b565b9050602081019050919050565b6000611805611800846117c1565b6117a6565b90508281526020810184848401111561182157611820611741565b5b61182c848285610fd8565b509392505050565b600082601f8301126118495761184861173c565b5b81516118598482602086016117f2565b91505092915050565b60006020828403121561187857611877610f25565b5b600082015167ffffffffffffffff81111561189657611895610f2a565b5b6118a284828501611834565b91505092915050565b6118b481611055565b81146118bf57600080fd5b50565b6000815190506118d1816118ab565b92915050565b6000602082840312156118ed576118ec610f25565b5b60006118fb848285016118c2565b91505092915050565b6000815190506119138161114a565b92915050565b60006020828403121561192f5761192e610f25565b5b600061193d84828501611904565b91505092915050565b7f596f75206e65656420746f2073656e6420736f6d652045544820746f2070726f60008201527f636565642e000000000000000000000000000000000000000000000000000000602082015250565b60006119a2602583610fc7565b91506119ad82611946565b604082019050919050565b600060208201905081810360008301526119d181611995565b9050919050565b7f56656e646f722068617320696e73756666696369656e742041575420746f6b6560008201527f6e2e000000000000000000000000000000000000000000000000000000000000602082015250565b6000611a34602283610fc7565b9150611a3f826119d8565b604082019050919050565b60006020820190508181036000830152611a6381611a27565b9050919050565b6000604082019050611a7f60008301856110a3565b611a8c6020830184610f92565b9392505050565b7f4661696c656420746f207472616e7366657220746f6b656e20746f207573657260008201527f2e00000000000000000000000000000000000000000000000000000000000000602082015250565b6000611aef602183610fc7565b9150611afa82611a93565b604082019050919050565b60006020820190508181036000830152611b1e81611ae2565b9050919050565b6000606082019050611b3a60008301866110a3565b611b476020830185610f92565b611b546040830184610f92565b949350505050565b7f4f776e61626c653a206e6577206f776e657220697320746865207a65726f206160008201527f6464726573730000000000000000000000000000000000000000000000000000602082015250565b6000611bb8602683610fc7565b9150611bc382611b5c565b604082019050919050565b60006020820190508181036000830152611be781611bab565b9050919050565b7f4f776e61626c653a2063616c6c6572206973206e6f7420746865206f776e6572600082015250565b6000611c24602083610fc7565b9150611c2f82611bee565b602082019050919050565b60006020820190508181036000830152611c5381611c17565b905091905056fea264697066735822122023c68c14a56f90913e8d8b31f32091c1478a58a8dc4e6372586200eb2225151664736f6c63430008090033","immutableReferences":{},"source":"// SPDX-License-Identifier: MIT\r\n\r\npragma solidity ^0.8.9;\r\n\r\nimport \"@openzeppelin/contracts/access/Ownable.sol\";\r\nimport \"./Token.sol\";\r\n\r\ncontract Vendor is Ownable {\r\n\r\n    Token token;                            // refers to our custom AWT ERC20 token\r\n    uint256 public tokenPerEther = 100;     // 1 ETH = 100 AWT\r\n\r\n    event BuyTokens(address buyer, uint256 amountOfETH, uint256 amountOfTokens);\r\n\r\n    constructor(address _tokenAddress) {\r\n        require(_tokenAddress != address(0), \"Specify proper AWT token contract address.\");\r\n        token = Token(_tokenAddress);\r\n    }\r\n\r\n    function buyToken() public payable {\r\n        require(msg.value > 0, \"You need to send some ETH to proceed.\");\r\n\r\n        uint256 amountToBuy = (msg.value * tokenPerEther) / (1 ether);    // Ex: 10 AWT = 0.1 ETH * 100\r\n        uint256 vendorBalance = token.balanceOf(address(this));           // getting vendor contract balance of AWT\r\n        require(vendorBalance >= amountToBuy, \"Vendor has insufficient AWT token.\");\r\n\r\n        (bool success) = token.transfer(msg.sender, amountToBuy);         // transferring AWT to the buyer account\r\n        require(success, \"Failed to transfer token to user.\");\r\n\r\n        emit BuyTokens(msg.sender, msg.value, amountToBuy);               // recording buy token event\r\n    }\r\n\r\n    function sellToken(uint256 _amountToSell) public {\r\n        require(_amountToSell > 0, \"Specify an amount of token greater than zero.\");\r\n\r\n        uint256 userBalance = token.balanceOf(msg.sender);      // getting seller contract balance of AWT\r\n        require(userBalance >= _amountToSell, \"You have insufficient AWT tokens.\");\r\n\r\n        uint256 amoutOfETHToTransfer = _amountToSell / tokenPerEther;       // converting to ETH\r\n        uint256 ownerETHBalance = address(this).balance;                    // getting the ETH balance of this vendor contract\r\n        require(ownerETHBalance >= amoutOfETHToTransfer, \"Vendor has insufficient funds.\");\r\n\r\n        (bool success) = token.transferFrom(msg.sender, address(this), _amountToSell);      // transferring AWT from seller account to vendor account\r\n        require(success, \"Failed to transfer tokens from user to vendor.\");\r\n\r\n        (success, ) = msg.sender.call{ value: amoutOfETHToTransfer * (1 ether) }(\"\");       // transferring ETH to seller account\r\n        require(success, \"Failed to send ETH to the user.\");\r\n    }\r\n\r\n    // only owner of the vendor contract can withdraw\r\n    function withdraw() public onlyOwner {\r\n        uint256 ownerBalance = address(this).balance;\r\n        require(ownerBalance > 0, \"No ETH present in the vendor account.\");\r\n        (bool success, ) = msg.sender.call{ value: ownerBalance }(\"\");          // transferring ETH from vender contract to owner account\r\n        require(success, \"Failed to withdraw\");\r\n    }\r\n\r\n    // returns token name, token symbol, token decimals, token total supply, minter account address, vendor balance, my (msg.sender) balance\r\n    function getSummary() public view returns(string memory, string memory, uint8, uint256, address, uint256, uint256) {\r\n        return (\r\n            token.name(),\r\n            token.symbol(),\r\n            token.decimals(),\r\n            token.totalSupply(),\r\n            token.minter(),\r\n            token.balanceOf(address(this)),\r\n            token.balanceOf(msg.sender)\r\n        );\r\n    }\r\n}\r\n","sourcePath":"G:\\blockchain\\projects\\property_dapp\\property-dapp\\ethereum\\contracts\\Vendor.sol","compiler":{"name":"solc","version":"0.8.9+commit.e5eed63a.Emscripten.clang"},"schemaVersion":"3.4.10","updatedAt":"2022-10-15T14:39:28.547Z","networkType":"ethereum","devdoc":{"kind":"dev","methods":{"owner()":{"details":"Returns the address of the current owner."},"renounceOwnership()":{"details":"Leaves the contract without owner. It will not be possible to call `onlyOwner` functions anymore. Can only be called by the current owner. NOTE: Renouncing ownership will leave the contract without an owner, thereby removing any functionality that is only available to the owner."},"transferOwnership(address)":{"details":"Transfers ownership of the contract to a new account (`newOwner`). Can only be called by the current owner."}},"version":1},"userdoc":{"kind":"user","methods":{},"version":1}}