{"contractName":"Vendor","abi":[{"inputs":[{"internalType":"address","name":"_tokenAddress","type":"address"}],"stateMutability":"nonpayable","type":"constructor"},{"anonymous":false,"inputs":[{"indexed":false,"internalType":"address","name":"buyer","type":"address"},{"indexed":false,"internalType":"uint256","name":"amountOfETH","type":"uint256"},{"indexed":false,"internalType":"uint256","name":"amountOfTokens","type":"uint256"}],"name":"BuyTokens","type":"event"},{"anonymous":false,"inputs":[{"indexed":true,"internalType":"address","name":"previousOwner","type":"address"},{"indexed":true,"internalType":"address","name":"newOwner","type":"address"}],"name":"OwnershipTransferred","type":"event"},{"inputs":[],"name":"owner","outputs":[{"internalType":"address","name":"","type":"address"}],"stateMutability":"view","type":"function","constant":true},{"inputs":[{"internalType":"uint256","name":"","type":"uint256"}],"name":"purchases","outputs":[{"internalType":"string","name":"purchaseType","type":"string"},{"internalType":"address","name":"from","type":"address"},{"internalType":"address","name":"buyer","type":"address"},{"internalType":"uint256","name":"amount","type":"uint256"},{"internalType":"uint256","name":"time","type":"uint256"}],"stateMutability":"view","type":"function","constant":true},{"inputs":[],"name":"renounceOwnership","outputs":[],"stateMutability":"nonpayable","type":"function"},{"inputs":[],"name":"tokenPerEther","outputs":[{"internalType":"uint256","name":"","type":"uint256"}],"stateMutability":"view","type":"function","constant":true},{"inputs":[{"internalType":"address","name":"newOwner","type":"address"}],"name":"transferOwnership","outputs":[],"stateMutability":"nonpayable","type":"function"},{"inputs":[],"name":"buyToken","outputs":[],"stateMutability":"payable","type":"function","payable":true},{"inputs":[{"internalType":"uint256","name":"_amountToSell","type":"uint256"}],"name":"sellToken","outputs":[],"stateMutability":"nonpayable","type":"function"},{"inputs":[],"name":"withdraw","outputs":[],"stateMutability":"nonpayable","type":"function"},{"inputs":[],"name":"getSummary","outputs":[{"internalType":"string","name":"","type":"string"},{"internalType":"string","name":"","type":"string"},{"internalType":"uint8","name":"","type":"uint8"},{"internalType":"uint256","name":"","type":"uint256"},{"internalType":"address","name":"","type":"address"},{"internalType":"uint256","name":"","type":"uint256"},{"internalType":"uint256","name":"","type":"uint256"},{"internalType":"uint256","name":"","type":"uint256"}],"stateMutability":"view","type":"function","constant":true},{"inputs":[],"name":"getPurchases","outputs":[{"components":[{"internalType":"string","name":"purchaseType","type":"string"},{"internalType":"address","name":"from","type":"address"},{"internalType":"address","name":"buyer","type":"address"},{"internalType":"uint256","name":"amount","type":"uint256"},{"internalType":"uint256","name":"time","type":"uint256"}],"internalType":"struct Vendor.Purchase[]","name":"","type":"tuple[]"}],"stateMutability":"view","type":"function","constant":true}],"bytecode":"0x608060405260646002553480156200001657600080fd5b50604051620029323803806200293283398181016040528101906200003c91906200024d565b6200005c620000506200011760201b60201c565b6200011f60201b60201c565b600073ffffffffffffffffffffffffffffffffffffffff168173ffffffffffffffffffffffffffffffffffffffff161415620000cf576040517f08c379a0000000000000000000000000000000000000000000000000000000008152600401620000c69062000306565b60405180910390fd5b80600160006101000a81548173ffffffffffffffffffffffffffffffffffffffff021916908373ffffffffffffffffffffffffffffffffffffffff1602179055505062000328565b600033905090565b60008060009054906101000a900473ffffffffffffffffffffffffffffffffffffffff169050816000806101000a81548173ffffffffffffffffffffffffffffffffffffffff021916908373ffffffffffffffffffffffffffffffffffffffff1602179055508173ffffffffffffffffffffffffffffffffffffffff168173ffffffffffffffffffffffffffffffffffffffff167f8be0079c531659141344cd1fd0a4f28419497f9722a3daafe3b4186f6b6457e060405160405180910390a35050565b600080fd5b600073ffffffffffffffffffffffffffffffffffffffff82169050919050565b60006200021582620001e8565b9050919050565b620002278162000208565b81146200023357600080fd5b50565b60008151905062000247816200021c565b92915050565b600060208284031215620002665762000265620001e3565b5b6000620002768482850162000236565b91505092915050565b600082825260208201905092915050565b7f537065636966792070726f7065722041575420746f6b656e20636f6e7472616360008201527f7420616464726573732e00000000000000000000000000000000000000000000602082015250565b6000620002ee602a836200027f565b9150620002fb8262000290565b604082019050919050565b600060208201905081810360008301526200032181620002df565b9050919050565b6125fa80620003386000396000f3fe6080604052600436106100915760003560e01c80638392fe31116100595780638392fe311461014a5780638da5cb5b1461018b578063a4821719146101b6578063c47f0f90146101c0578063f2fde38b146101eb57610091565b80632397e4d7146100965780632f77dba4146100bf5780633ccfd60b146100ea5780634051ddac14610101578063715018a614610133575b600080fd5b3480156100a257600080fd5b506100bd60048036038101906100b89190611643565b610214565b005b3480156100cb57600080fd5b506100d46106d8565b6040516100e1919061167f565b60405180910390f35b3480156100f657600080fd5b506100ff6106de565b005b34801561010d57600080fd5b506101166107de565b60405161012a989796959493929190611790565b60405180910390f35b34801561013f57600080fd5b50610148610c85565b005b34801561015657600080fd5b50610171600480360381019061016c9190611643565b610c99565b60405161018295949392919061181c565b60405180910390f35b34801561019757600080fd5b506101a0610da7565b6040516101ad9190611876565b60405180910390f35b6101be610dd0565b005b3480156101cc57600080fd5b506101d56111d7565b6040516101e29190611a31565b60405180910390f35b3480156101f757600080fd5b50610212600480360381019061020d9190611a7f565b611388565b005b60008111610257576040517f08c379a000000000000000000000000000000000000000000000000000000000815260040161024e90611b1e565b60405180910390fd5b6000600160009054906101000a900473ffffffffffffffffffffffffffffffffffffffff1673ffffffffffffffffffffffffffffffffffffffff166370a08231336040518263ffffffff1660e01b81526004016102b49190611876565b60206040518083038186803b1580156102cc57600080fd5b505afa1580156102e0573d6000803e3d6000fd5b505050506040513d601f19601f820116820180604052508101906103049190611b53565b905081811015610349576040517f08c379a000000000000000000000000000000000000000000000000000000000815260040161034090611bf2565b60405180910390fd5b6000600254836103599190611c70565b90506000479050818110156103a3576040517f08c379a000000000000000000000000000000000000000000000000000000000815260040161039a90611ced565b60405180910390fd5b6000600160009054906101000a900473ffffffffffffffffffffffffffffffffffffffff1673ffffffffffffffffffffffffffffffffffffffff166323b872dd3330886040518463ffffffff1660e01b815260040161040493929190611d0d565b602060405180830381600087803b15801561041e57600080fd5b505af1158015610432573d6000803e3d6000fd5b505050506040513d601f19601f820116820180604052508101906104569190611d7c565b905080610498576040517f08c379a000000000000000000000000000000000000000000000000000000000815260040161048f90611e1b565b60405180910390fd5b3373ffffffffffffffffffffffffffffffffffffffff16670de0b6b3a7640000846104c39190611e3b565b6040516104cf90611ec6565b60006040518083038185875af1925050503d806000811461050c576040519150601f19603f3d011682016040523d82523d6000602084013e610511565b606091505b50508091505080610557576040517f08c379a000000000000000000000000000000000000000000000000000000000815260040161054e90611f27565b60405180910390fd5b60006040518060a001604052806040518060400160405280600481526020017f53454c4c0000000000000000000000000000000000000000000000000000000081525081526020013373ffffffffffffffffffffffffffffffffffffffff1681526020013073ffffffffffffffffffffffffffffffffffffffff1681526020018781526020014281525090506003819080600181540180825580915050600190039060005260206000209060050201600090919091909150600082015181600001908051906020019061062b929190611556565b5060208201518160010160006101000a81548173ffffffffffffffffffffffffffffffffffffffff021916908373ffffffffffffffffffffffffffffffffffffffff16021790555060408201518160020160006101000a81548173ffffffffffffffffffffffffffffffffffffffff021916908373ffffffffffffffffffffffffffffffffffffffff16021790555060608201518160030155608082015181600401555050505050505050565b60025481565b6106e661140c565b60004790506000811161072e576040517f08c379a000000000000000000000000000000000000000000000000000000000815260040161072590611fb9565b60405180910390fd5b60003373ffffffffffffffffffffffffffffffffffffffff168260405161075490611ec6565b60006040518083038185875af1925050503d8060008114610791576040519150601f19603f3d011682016040523d82523d6000602084013e610796565b606091505b50509050806107da576040517f08c379a00000000000000000000000000000000000000000000000000000000081526004016107d190612025565b60405180910390fd5b5050565b606080600080600080600080600160009054906101000a900473ffffffffffffffffffffffffffffffffffffffff1673ffffffffffffffffffffffffffffffffffffffff166306fdde036040518163ffffffff1660e01b815260040160006040518083038186803b15801561085257600080fd5b505afa158015610866573d6000803e3d6000fd5b505050506040513d6000823e3d601f19601f8201168201806040525081019061088f919061216b565b600160009054906101000a900473ffffffffffffffffffffffffffffffffffffffff1673ffffffffffffffffffffffffffffffffffffffff166395d89b416040518163ffffffff1660e01b815260040160006040518083038186803b1580156108f757600080fd5b505afa15801561090b573d6000803e3d6000fd5b505050506040513d6000823e3d601f19601f82011682018060405250810190610934919061216b565b600160009054906101000a900473ffffffffffffffffffffffffffffffffffffffff1673ffffffffffffffffffffffffffffffffffffffff1663313ce5676040518163ffffffff1660e01b815260040160206040518083038186803b15801561099c57600080fd5b505afa1580156109b0573d6000803e3d6000fd5b505050506040513d601f19601f820116820180604052508101906109d491906121e0565b600160009054906101000a900473ffffffffffffffffffffffffffffffffffffffff1673ffffffffffffffffffffffffffffffffffffffff166318160ddd6040518163ffffffff1660e01b815260040160206040518083038186803b158015610a3c57600080fd5b505afa158015610a50573d6000803e3d6000fd5b505050506040513d601f19601f82011682018060405250810190610a749190611b53565b600160009054906101000a900473ffffffffffffffffffffffffffffffffffffffff1673ffffffffffffffffffffffffffffffffffffffff1663075461726040518163ffffffff1660e01b815260040160206040518083038186803b158015610adc57600080fd5b505afa158015610af0573d6000803e3d6000fd5b505050506040513d601f19601f82011682018060405250810190610b149190612222565b600160009054906101000a900473ffffffffffffffffffffffffffffffffffffffff1673ffffffffffffffffffffffffffffffffffffffff166370a08231306040518263ffffffff1660e01b8152600401610b6f9190611876565b60206040518083038186803b158015610b8757600080fd5b505afa158015610b9b573d6000803e3d6000fd5b505050506040513d601f19601f82011682018060405250810190610bbf9190611b53565b600160009054906101000a900473ffffffffffffffffffffffffffffffffffffffff1673ffffffffffffffffffffffffffffffffffffffff166370a08231336040518263ffffffff1660e01b8152600401610c1a9190611876565b60206040518083038186803b158015610c3257600080fd5b505afa158015610c46573d6000803e3d6000fd5b505050506040513d601f19601f82011682018060405250810190610c6a9190611b53565b47975097509750975097509750975097509091929394959697565b610c8d61140c565b610c97600061148a565b565b60038181548110610ca957600080fd5b9060005260206000209060050201600091509050806000018054610ccc9061227e565b80601f0160208091040260200160405190810160405280929190818152602001828054610cf89061227e565b8015610d455780601f10610d1a57610100808354040283529160200191610d45565b820191906000526020600020905b815481529060010190602001808311610d2857829003601f168201915b5050505050908060010160009054906101000a900473ffffffffffffffffffffffffffffffffffffffff16908060020160009054906101000a900473ffffffffffffffffffffffffffffffffffffffff16908060030154908060040154905085565b60008060009054906101000a900473ffffffffffffffffffffffffffffffffffffffff16905090565b60003411610e13576040517f08c379a0000000000000000000000000000000000000000000000000000000008152600401610e0a90612322565b60405180910390fd5b6000670de0b6b3a764000060025434610e2c9190611e3b565b610e369190611c70565b90506000600160009054906101000a900473ffffffffffffffffffffffffffffffffffffffff1673ffffffffffffffffffffffffffffffffffffffff166370a08231306040518263ffffffff1660e01b8152600401610e959190611876565b60206040518083038186803b158015610ead57600080fd5b505afa158015610ec1573d6000803e3d6000fd5b505050506040513d601f19601f82011682018060405250810190610ee59190611b53565b905081811015610f2a576040517f08c379a0000000000000000000000000000000000000000000000000000000008152600401610f21906123b4565b60405180910390fd5b6000600160009054906101000a900473ffffffffffffffffffffffffffffffffffffffff1673ffffffffffffffffffffffffffffffffffffffff1663a9059cbb33856040518363ffffffff1660e01b8152600401610f899291906123d4565b602060405180830381600087803b158015610fa357600080fd5b505af1158015610fb7573d6000803e3d6000fd5b505050506040513d601f19601f82011682018060405250810190610fdb9190611d7c565b90508061101d576040517f08c379a00000000000000000000000000000000000000000000000000000000081526004016110149061246f565b60405180910390fd5b60006040518060a001604052806040518060400160405280600381526020017f425559000000000000000000000000000000000000000000000000000000000081525081526020013073ffffffffffffffffffffffffffffffffffffffff1681526020013373ffffffffffffffffffffffffffffffffffffffff168152602001858152602001428152509050600381908060018154018082558091505060019003906000526020600020906005020160009091909190915060008201518160000190805190602001906110f1929190611556565b5060208201518160010160006101000a81548173ffffffffffffffffffffffffffffffffffffffff021916908373ffffffffffffffffffffffffffffffffffffffff16021790555060408201518160020160006101000a81548173ffffffffffffffffffffffffffffffffffffffff021916908373ffffffffffffffffffffffffffffffffffffffff160217905550606082015181600301556080820151816004015550507f0a37b72bb67eee30e09084cf386f8a17817c57f620c3ab95fb25d6a20356ec773334866040516111c99392919061248f565b60405180910390a150505050565b60606003805480602002602001604051908101604052809291908181526020016000905b8282101561137f57838290600052602060002090600502016040518060a001604052908160008201805461122e9061227e565b80601f016020809104026020016040519081016040528092919081815260200182805461125a9061227e565b80156112a75780601f1061127c576101008083540402835291602001916112a7565b820191906000526020600020905b81548152906001019060200180831161128a57829003601f168201915b505050505081526020016001820160009054906101000a900473ffffffffffffffffffffffffffffffffffffffff1673ffffffffffffffffffffffffffffffffffffffff1673ffffffffffffffffffffffffffffffffffffffff1681526020016002820160009054906101000a900473ffffffffffffffffffffffffffffffffffffffff1673ffffffffffffffffffffffffffffffffffffffff1673ffffffffffffffffffffffffffffffffffffffff16815260200160038201548152602001600482015481525050815260200190600101906111fb565b50505050905090565b61139061140c565b600073ffffffffffffffffffffffffffffffffffffffff168173ffffffffffffffffffffffffffffffffffffffff161415611400576040517f08c379a00000000000000000000000000000000000000000000000000000000081526004016113f790612538565b60405180910390fd5b6114098161148a565b50565b61141461154e565b73ffffffffffffffffffffffffffffffffffffffff16611432610da7565b73ffffffffffffffffffffffffffffffffffffffff1614611488576040517f08c379a000000000000000000000000000000000000000000000000000000000815260040161147f906125a4565b60405180910390fd5b565b60008060009054906101000a900473ffffffffffffffffffffffffffffffffffffffff169050816000806101000a81548173ffffffffffffffffffffffffffffffffffffffff021916908373ffffffffffffffffffffffffffffffffffffffff1602179055508173ffffffffffffffffffffffffffffffffffffffff168173ffffffffffffffffffffffffffffffffffffffff167f8be0079c531659141344cd1fd0a4f28419497f9722a3daafe3b4186f6b6457e060405160405180910390a35050565b600033905090565b8280546115629061227e565b90600052602060002090601f01602090048101928261158457600085556115cb565b82601f1061159d57805160ff19168380011785556115cb565b828001600101855582156115cb579182015b828111156115ca5782518255916020019190600101906115af565b5b5090506115d891906115dc565b5090565b5b808211156115f55760008160009055506001016115dd565b5090565b6000604051905090565b600080fd5b600080fd5b6000819050919050565b6116208161160d565b811461162b57600080fd5b50565b60008135905061163d81611617565b92915050565b60006020828403121561165957611658611603565b5b60006116678482850161162e565b91505092915050565b6116798161160d565b82525050565b60006020820190506116946000830184611670565b92915050565b600081519050919050565b600082825260208201905092915050565b60005b838110156116d45780820151818401526020810190506116b9565b838111156116e3576000848401525b50505050565b6000601f19601f8301169050919050565b60006117058261169a565b61170f81856116a5565b935061171f8185602086016116b6565b611728816116e9565b840191505092915050565b600060ff82169050919050565b61174981611733565b82525050565b600073ffffffffffffffffffffffffffffffffffffffff82169050919050565b600061177a8261174f565b9050919050565b61178a8161176f565b82525050565b60006101008201905081810360008301526117ab818b6116fa565b905081810360208301526117bf818a6116fa565b90506117ce6040830189611740565b6117db6060830188611670565b6117e86080830187611781565b6117f560a0830186611670565b61180260c0830185611670565b61180f60e0830184611670565b9998505050505050505050565b600060a082019050818103600083015261183681886116fa565b90506118456020830187611781565b6118526040830186611781565b61185f6060830185611670565b61186c6080830184611670565b9695505050505050565b600060208201905061188b6000830184611781565b92915050565b600081519050919050565b600082825260208201905092915050565b6000819050602082019050919050565b600082825260208201905092915050565b60006118d98261169a565b6118e381856118bd565b93506118f38185602086016116b6565b6118fc816116e9565b840191505092915050565b6119108161176f565b82525050565b61191f8161160d565b82525050565b600060a083016000830151848203600086015261194282826118ce565b91505060208301516119576020860182611907565b50604083015161196a6040860182611907565b50606083015161197d6060860182611916565b5060808301516119906080860182611916565b508091505092915050565b60006119a78383611925565b905092915050565b6000602082019050919050565b60006119c782611891565b6119d1818561189c565b9350836020820285016119e3856118ad565b8060005b85811015611a1f5784840389528151611a00858261199b565b9450611a0b836119af565b925060208a019950506001810190506119e7565b50829750879550505050505092915050565b60006020820190508181036000830152611a4b81846119bc565b905092915050565b611a5c8161176f565b8114611a6757600080fd5b50565b600081359050611a7981611a53565b92915050565b600060208284031215611a9557611a94611603565b5b6000611aa384828501611a6a565b91505092915050565b7f5370656369667920616e20616d6f756e74206f6620746f6b656e20677265617460008201527f6572207468616e207a65726f2e00000000000000000000000000000000000000602082015250565b6000611b08602d836116a5565b9150611b1382611aac565b604082019050919050565b60006020820190508181036000830152611b3781611afb565b9050919050565b600081519050611b4d81611617565b92915050565b600060208284031215611b6957611b68611603565b5b6000611b7784828501611b3e565b91505092915050565b7f596f75206861766520696e73756666696369656e742041575420746f6b656e7360008201527f2e00000000000000000000000000000000000000000000000000000000000000602082015250565b6000611bdc6021836116a5565b9150611be782611b80565b604082019050919050565b60006020820190508181036000830152611c0b81611bcf565b9050919050565b7f4e487b7100000000000000000000000000000000000000000000000000000000600052601260045260246000fd5b7f4e487b7100000000000000000000000000000000000000000000000000000000600052601160045260246000fd5b6000611c7b8261160d565b9150611c868361160d565b925082611c9657611c95611c12565b5b828204905092915050565b7f56656e646f722068617320696e73756666696369656e742066756e64732e0000600082015250565b6000611cd7601e836116a5565b9150611ce282611ca1565b602082019050919050565b60006020820190508181036000830152611d0681611cca565b9050919050565b6000606082019050611d226000830186611781565b611d2f6020830185611781565b611d3c6040830184611670565b949350505050565b60008115159050919050565b611d5981611d44565b8114611d6457600080fd5b50565b600081519050611d7681611d50565b92915050565b600060208284031215611d9257611d91611603565b5b6000611da084828501611d67565b91505092915050565b7f4661696c656420746f207472616e7366657220746f6b656e732066726f6d207560008201527f73657220746f2076656e646f722e000000000000000000000000000000000000602082015250565b6000611e05602e836116a5565b9150611e1082611da9565b604082019050919050565b60006020820190508181036000830152611e3481611df8565b9050919050565b6000611e468261160d565b9150611e518361160d565b9250817fffffffffffffffffffffffffffffffffffffffffffffffffffffffffffffffff0483118215151615611e8a57611e89611c41565b5b828202905092915050565b600081905092915050565b50565b6000611eb0600083611e95565b9150611ebb82611ea0565b600082019050919050565b6000611ed182611ea3565b9150819050919050565b7f4661696c656420746f2073656e642045544820746f2074686520757365722e00600082015250565b6000611f11601f836116a5565b9150611f1c82611edb565b602082019050919050565b60006020820190508181036000830152611f4081611f04565b9050919050565b7f4e6f204554482070726573656e7420696e207468652076656e646f722061636360008201527f6f756e742e000000000000000000000000000000000000000000000000000000602082015250565b6000611fa36025836116a5565b9150611fae82611f47565b604082019050919050565b60006020820190508181036000830152611fd281611f96565b9050919050565b7f4661696c656420746f2077697468647261770000000000000000000000000000600082015250565b600061200f6012836116a5565b915061201a82611fd9565b602082019050919050565b6000602082019050818103600083015261203e81612002565b9050919050565b600080fd5b600080fd5b7f4e487b7100000000000000000000000000000000000000000000000000000000600052604160045260246000fd5b612087826116e9565b810181811067ffffffffffffffff821117156120a6576120a561204f565b5b80604052505050565b60006120b96115f9565b90506120c5828261207e565b919050565b600067ffffffffffffffff8211156120e5576120e461204f565b5b6120ee826116e9565b9050602081019050919050565b600061210e612109846120ca565b6120af565b90508281526020810184848401111561212a5761212961204a565b5b6121358482856116b6565b509392505050565b600082601f83011261215257612151612045565b5b81516121628482602086016120fb565b91505092915050565b60006020828403121561218157612180611603565b5b600082015167ffffffffffffffff81111561219f5761219e611608565b5b6121ab8482850161213d565b91505092915050565b6121bd81611733565b81146121c857600080fd5b50565b6000815190506121da816121b4565b92915050565b6000602082840312156121f6576121f5611603565b5b6000612204848285016121cb565b91505092915050565b60008151905061221c81611a53565b92915050565b60006020828403121561223857612237611603565b5b60006122468482850161220d565b91505092915050565b7f4e487b7100000000000000000000000000000000000000000000000000000000600052602260045260246000fd5b6000600282049050600182168061229657607f821691505b602082108114156122aa576122a961224f565b5b50919050565b7f596f75206e65656420746f2073656e6420736f6d652045544820746f2070726f60008201527f636565642e000000000000000000000000000000000000000000000000000000602082015250565b600061230c6025836116a5565b9150612317826122b0565b604082019050919050565b6000602082019050818103600083015261233b816122ff565b9050919050565b7f56656e646f722068617320696e73756666696369656e742041575420746f6b6560008201527f6e2e000000000000000000000000000000000000000000000000000000000000602082015250565b600061239e6022836116a5565b91506123a982612342565b604082019050919050565b600060208201905081810360008301526123cd81612391565b9050919050565b60006040820190506123e96000830185611781565b6123f66020830184611670565b9392505050565b7f4661696c656420746f207472616e7366657220746f6b656e20746f207573657260008201527f2e00000000000000000000000000000000000000000000000000000000000000602082015250565b60006124596021836116a5565b9150612464826123fd565b604082019050919050565b600060208201905081810360008301526124888161244c565b9050919050565b60006060820190506124a46000830186611781565b6124b16020830185611670565b6124be6040830184611670565b949350505050565b7f4f776e61626c653a206e6577206f776e657220697320746865207a65726f206160008201527f6464726573730000000000000000000000000000000000000000000000000000602082015250565b60006125226026836116a5565b915061252d826124c6565b604082019050919050565b6000602082019050818103600083015261255181612515565b9050919050565b7f4f776e61626c653a2063616c6c6572206973206e6f7420746865206f776e6572600082015250565b600061258e6020836116a5565b915061259982612558565b602082019050919050565b600060208201905081810360008301526125bd81612581565b905091905056fea2646970667358221220beea3ff3cbd918d9ea04f668144cd9537a8caba687319c0215f0d69f3939cee264736f6c63430008090033","immutableReferences":{},"source":"// SPDX-License-Identifier: MIT\r\n\r\npragma solidity ^0.8.9;\r\n\r\nimport \"@openzeppelin/contracts/access/Ownable.sol\";\r\nimport \"./Token.sol\";\r\n\r\ncontract Vendor is Ownable {\r\n\r\n    Token token;                            // refers to our custom AWT ERC20 token\r\n    uint256 public tokenPerEther = 100;     // 1 ETH = 100 AWT\r\n\r\n    struct Purchase {\r\n        string purchaseType;\r\n        address from;\r\n        address buyer;\r\n        uint256 amount;\r\n        uint256 time;\r\n    }\r\n\r\n    Purchase[] public purchases;\r\n\r\n    event BuyTokens(address buyer, uint256 amountOfETH, uint256 amountOfTokens);\r\n\r\n    constructor(address _tokenAddress) {\r\n        require(_tokenAddress != address(0), \"Specify proper AWT token contract address.\");\r\n        token = Token(_tokenAddress);\r\n    }\r\n\r\n    function buyToken() public payable {\r\n        require(msg.value > 0, \"You need to send some ETH to proceed.\");\r\n\r\n        uint256 amountToBuy = (msg.value * tokenPerEther) / (1 ether);    // Ex: 10 AWT = 0.1 ETH * 100\r\n        uint256 vendorBalance = token.balanceOf(address(this));           // getting vendor contract balance of AWT\r\n        require(vendorBalance >= amountToBuy, \"Vendor has insufficient AWT token.\");\r\n\r\n        (bool success) = token.transfer(msg.sender, amountToBuy);         // transferring AWT to the buyer account\r\n        require(success, \"Failed to transfer token to user.\");\r\n\r\n        Purchase memory purchase = Purchase(\"BUY\", address(this), msg.sender, amountToBuy, block.timestamp);\r\n        purchases.push(purchase);\r\n\r\n        emit BuyTokens(msg.sender, msg.value, amountToBuy);               // recording buy token event\r\n    }\r\n\r\n    function sellToken(uint256 _amountToSell) public {\r\n        require(_amountToSell > 0, \"Specify an amount of token greater than zero.\");\r\n\r\n        uint256 userBalance = token.balanceOf(msg.sender);      // getting seller contract balance of AWT\r\n        require(userBalance >= _amountToSell, \"You have insufficient AWT tokens.\");\r\n\r\n        uint256 amoutOfETHToTransfer = _amountToSell / tokenPerEther;       // converting to ETH\r\n        uint256 ownerETHBalance = address(this).balance;                    // getting the ETH balance of this vendor contract\r\n        require(ownerETHBalance >= amoutOfETHToTransfer, \"Vendor has insufficient funds.\");\r\n\r\n        (bool success) = token.transferFrom(msg.sender, address(this), _amountToSell);      // transferring AWT from seller account to vendor account\r\n        require(success, \"Failed to transfer tokens from user to vendor.\");\r\n\r\n        (success, ) = msg.sender.call{ value: amoutOfETHToTransfer * (1 ether) }(\"\");       // transferring ETH to seller account\r\n        require(success, \"Failed to send ETH to the user.\");\r\n\r\n        Purchase memory purchase = Purchase(\"SELL\", msg.sender, address(this), _amountToSell, block.timestamp);\r\n        purchases.push(purchase);\r\n    }\r\n\r\n    // only owner of the vendor contract can withdraw\r\n    function withdraw() public onlyOwner {\r\n        uint256 ownerBalance = address(this).balance;\r\n        require(ownerBalance > 0, \"No ETH present in the vendor account.\");\r\n        (bool success, ) = msg.sender.call{ value: ownerBalance }(\"\");          // transferring ETH from vender contract to owner account\r\n        require(success, \"Failed to withdraw\");\r\n    }\r\n\r\n    // returns token name, token symbol, token decimals, token total supply, minter account address, vendor token balance, my (msg.sender) balance, vendor wallet balance\r\n    function getSummary() public view returns(string memory, string memory, uint8, uint256, address, uint256, uint256, uint256) {\r\n        return (\r\n            token.name(),\r\n            token.symbol(),\r\n            token.decimals(),\r\n            token.totalSupply(),\r\n            token.minter(),\r\n            token.balanceOf(address(this)),\r\n            token.balanceOf(msg.sender),\r\n            address(this).balance\r\n        );\r\n    }\r\n\r\n    function getPurchases() public view returns(Purchase[] memory) {\r\n        return purchases;\r\n    }\r\n}\r\n","sourcePath":"G:\\blockchain\\projects\\property_dapp\\property-dapp\\ethereum\\contracts\\Vendor.sol","compiler":{"name":"solc","version":"0.8.9+commit.e5eed63a.Emscripten.clang"},"schemaVersion":"3.4.10","updatedAt":"2022-10-15T16:46:00.069Z","networkType":"ethereum","devdoc":{"kind":"dev","methods":{"owner()":{"details":"Returns the address of the current owner."},"renounceOwnership()":{"details":"Leaves the contract without owner. It will not be possible to call `onlyOwner` functions anymore. Can only be called by the current owner. NOTE: Renouncing ownership will leave the contract without an owner, thereby removing any functionality that is only available to the owner."},"transferOwnership(address)":{"details":"Transfers ownership of the contract to a new account (`newOwner`). Can only be called by the current owner."}},"version":1},"userdoc":{"kind":"user","methods":{},"version":1}}